{
  "_format": "hh-sol-artifact-1",
  "contractName": "NftMarketplace",
  "sourceName": "contracts/NftMarketplace.sol",
  "abi": [
    {
      "inputs": [
        {
          "internalType": "address",
          "name": "_sleepNftAddress",
          "type": "address"
        }
      ],
      "stateMutability": "nonpayable",
      "type": "constructor"
    },
    {
      "anonymous": false,
      "inputs": [
        {
          "indexed": true,
          "internalType": "address",
          "name": "to",
          "type": "address"
        },
        {
          "indexed": false,
          "internalType": "uint256",
          "name": "amount",
          "type": "uint256"
        }
      ],
      "name": "EmergencyWithdraw",
      "type": "event"
    },
    {
      "anonymous": false,
      "inputs": [
        {
          "indexed": false,
          "internalType": "uint256",
          "name": "oldFee",
          "type": "uint256"
        },
        {
          "indexed": false,
          "internalType": "uint256",
          "name": "newFee",
          "type": "uint256"
        }
      ],
      "name": "MarketplaceFeeUpdated",
      "type": "event"
    },
    {
      "anonymous": false,
      "inputs": [
        {
          "indexed": true,
          "internalType": "uint256",
          "name": "tokenId",
          "type": "uint256"
        },
        {
          "indexed": true,
          "internalType": "address",
          "name": "seller",
          "type": "address"
        }
      ],
      "name": "NFTDelisted",
      "type": "event"
    },
    {
      "anonymous": false,
      "inputs": [
        {
          "indexed": true,
          "internalType": "uint256",
          "name": "tokenId",
          "type": "uint256"
        },
        {
          "indexed": true,
          "internalType": "address",
          "name": "seller",
          "type": "address"
        },
        {
          "indexed": false,
          "internalType": "uint256",
          "name": "price",
          "type": "uint256"
        }
      ],
      "name": "NFTListed",
      "type": "event"
    },
    {
      "anonymous": false,
      "inputs": [
        {
          "indexed": true,
          "internalType": "uint256",
          "name": "tokenId",
          "type": "uint256"
        },
        {
          "indexed": true,
          "internalType": "address",
          "name": "seller",
          "type": "address"
        },
        {
          "indexed": true,
          "internalType": "address",
          "name": "buyer",
          "type": "address"
        },
        {
          "indexed": false,
          "internalType": "uint256",
          "name": "price",
          "type": "uint256"
        },
        {
          "indexed": false,
          "internalType": "uint256",
          "name": "fee",
          "type": "uint256"
        }
      ],
      "name": "NFTSold",
      "type": "event"
    },
    {
      "anonymous": false,
      "inputs": [
        {
          "indexed": true,
          "internalType": "address",
          "name": "previousOwner",
          "type": "address"
        },
        {
          "indexed": true,
          "internalType": "address",
          "name": "newOwner",
          "type": "address"
        }
      ],
      "name": "OwnershipTransferred",
      "type": "event"
    },
    {
      "inputs": [
        {
          "internalType": "uint256",
          "name": "_tokenId",
          "type": "uint256"
        }
      ],
      "name": "buyNFT",
      "outputs": [],
      "stateMutability": "payable",
      "type": "function"
    },
    {
      "inputs": [
        {
          "internalType": "uint256",
          "name": "_tokenId",
          "type": "uint256"
        }
      ],
      "name": "delistNFT",
      "outputs": [],
      "stateMutability": "nonpayable",
      "type": "function"
    },
    {
      "inputs": [],
      "name": "emergencyWithdraw",
      "outputs": [],
      "stateMutability": "nonpayable",
      "type": "function"
    },
    {
      "inputs": [
        {
          "internalType": "uint256",
          "name": "_tokenId",
          "type": "uint256"
        },
        {
          "internalType": "uint256",
          "name": "_price",
          "type": "uint256"
        }
      ],
      "name": "listNFT",
      "outputs": [],
      "stateMutability": "nonpayable",
      "type": "function"
    },
    {
      "inputs": [
        {
          "internalType": "uint256",
          "name": "",
          "type": "uint256"
        }
      ],
      "name": "listings",
      "outputs": [
        {
          "internalType": "uint256",
          "name": "price",
          "type": "uint256"
        },
        {
          "internalType": "address",
          "name": "seller",
          "type": "address"
        }
      ],
      "stateMutability": "view",
      "type": "function"
    },
    {
      "inputs": [],
      "name": "marketplaceFeePercent",
      "outputs": [
        {
          "internalType": "uint256",
          "name": "",
          "type": "uint256"
        }
      ],
      "stateMutability": "view",
      "type": "function"
    },
    {
      "inputs": [],
      "name": "owner",
      "outputs": [
        {
          "internalType": "address",
          "name": "",
          "type": "address"
        }
      ],
      "stateMutability": "view",
      "type": "function"
    },
    {
      "inputs": [],
      "name": "renounceOwnership",
      "outputs": [],
      "stateMutability": "nonpayable",
      "type": "function"
    },
    {
      "inputs": [
        {
          "internalType": "uint256",
          "name": "_newFeePercent",
          "type": "uint256"
        }
      ],
      "name": "setMarketplaceFee",
      "outputs": [],
      "stateMutability": "nonpayable",
      "type": "function"
    },
    {
      "inputs": [],
      "name": "sleepNft",
      "outputs": [
        {
          "internalType": "contract IERC721",
          "name": "",
          "type": "address"
        }
      ],
      "stateMutability": "view",
      "type": "function"
    },
    {
      "inputs": [
        {
          "internalType": "address",
          "name": "newOwner",
          "type": "address"
        }
      ],
      "name": "transferOwnership",
      "outputs": [],
      "stateMutability": "nonpayable",
      "type": "function"
    }
  ],
  "bytecode": "0x60a0806040523461008257601f6110fc38819003918201601f19168301916001600160401b038311848410176100885780849260209460405283398101031261008257516001600160a01b0381168114156100825761005d906100a2565b60405161100190816100fb823960805181818160b10152818161045501526109fd0152f35b50600080fd5b50505050634e487b7160e01b600052604160045260246000fd5b60008054336001600160a01b03198216811783556040516001600160a01b03949391928516917f8be0079c531659141344cd1fd0a4f28419497f9722a3daafe3b4186f6b6457e091a36001805516608052603260035556fe60806040908082526004361015610018575b5050600080fd5b600090813560e01c90816338d73b0d146102225750806351ed82881461020f578063715018a6146101f75780638da5cb5b146101c15780639407ea98146101a957806394383f1414610190578063cb917b9c14610178578063db2e21bc14610160578063de74e57b14610108578063f2fde38b146100e95763ffc9d1471461009f57610011565b346100e457506100ae3661023e565b517f00000000000000000000000000000000000000000000000000000000000000006001600160a01b03168152602090f35b0390f35b809150fd5b509034610104576101016100fc36610297565b610363565b51f35b5080fd5b509034610104576100e091506101416101203661025d565b60005260026020526040600020906001600160a01b03600183549301541690565b91519081526001600160a01b0390911660208201529081906040820190565b509034610104576101703661023e565b610101610eea565b5090346101045761010161018b3661025d565b610d48565b509034610104576101016101a33661026f565b90610434565b509034610104576101016101bc3661025d565b610e30565b509034610104576001600160a01b036100e0926101dd3661023e565b54915191166001600160a01b031681529081906020820190565b509034610104576102073661023e565b6101016102b2565b509061010161021d3661025d565b61090c565b925050346100e457506102343661023e565b6003548152602090f35b600090600319011261024c57565b50600080fd5b600091031261024c57565b602090600319011261024c5760043590565b604090600319011261024c576004359060243590565b6001600160a01b038116141561024c57565b602090600319011261024c576004356102af81610285565b90565b6102ba610309565b60006001600160a01b03815473ffffffffffffffffffffffffffffffffffffffff1981168355167f8be0079c531659141344cd1fd0a4f28419497f9722a3daafe3b4186f6b6457e082604051a3565b6001600160a01b036000541633141561031e57565b50606460405162461bcd60e51b815260206004820152602060248201527f4f776e61626c653a2063616c6c6572206973206e6f7420746865206f776e65726044820152fd5b61036b610309565b6001600160a01b0380821680156103c6576000549073ffffffffffffffffffffffffffffffffffffffff19821617600055167f8be0079c531659141344cd1fd0a4f28419497f9722a3daafe3b4186f6b6457e06000604051a3565b50505050608460405162461bcd60e51b815260206004820152602660248201527f4f776e61626c653a206e6577206f776e657220697320746865207a65726f206160448201527f64647265737300000000000000000000000000000000000000000000000000006064820152fd5b61043c6108b6565b610447821515610696565b61052e6001600160a01b03807f0000000000000000000000000000000000000000000000000000000000000000166104d36040517f6352211e000000000000000000000000000000000000000000000000000000008152602081806104b489600483019190602083019252565b0381865afa908115610689575b600091610674575b5083163314610780565b6040517fe985e9c500000000000000000000000000000000000000000000000000000000815233600482015230602482015291602083604481855afa928315610667575b600093610647575b5082156105c3575b505061080b565b61058a61053961087d565b838152336020820152610556836000526002602052604060002090565b602060016001600160a01b039284518155019201511673ffffffffffffffffffffffffffffffffffffffff19825416179055565b60405191825233917f5f9c03de076f5063cd3ebcfe8ef7aa8af378e4b35a83c77ba9777e97083879a290602090a36105c160018055565b565b6040517f081812fc00000000000000000000000000000000000000000000000000000000815260048101869052925090602090839060249082905afa91821561063a575b60009261061a575b501630143880610527565b61063391925061062a3d8261073c565b3d81019061075e565b903861060f565b610642610773565b610607565b6106609193506106573d8261073c565b3d8101906107f2565b913861051f565b61066f610773565b610517565b610683915061062a3d8261073c565b386104c9565b610691610773565b6104c1565b1561069d57565b50608460405162461bcd60e51b815260206004820152602c60248201527f4d41524b4554504c4143453a205072696365206d75737420626520677265617460448201527f6572207468616e207a65726f00000000000000000000000000000000000000006064820152fd5b6040810190811067ffffffffffffffff82111761072457604052565b5050634e487b7160e01b600052604160045260246000fd5b90601f8019910116810190811067ffffffffffffffff82111761072457604052565b9081602091031261001157516102af81610285565b506040513d6000823e3d90fd5b1561078757565b50608460405162461bcd60e51b815260206004820152602e60248201527f4d41524b4554504c4143453a20596f7520617265206e6f7420746865206f776e60448201527f6572206f662074686973204e46540000000000000000000000000000000000006064820152fd5b9081602091031261001157518015158114156100115790565b1561081257565b50608460405162461bcd60e51b815260206004820152603560248201527f4d41524b4554504c4143453a20436f6e7472616374206e6f7420617070726f7660448201527f656420746f206d616e6167652074686973204e465400000000000000000000006064820152fd5b604051906040820182811067ffffffffffffffff82111761089d57604052565b505050634e487b7160e01b600052604160045260246000fd5b6002600154146108c7576002600155565b50606460405162461bcd60e51b815260206004820152601f60248201527f5265656e7472616e637947756172643a207265656e7472616e742063616c6c006044820152fd5b6109146108b6565b61098761093361092e836000526002602052604060002090565b610b55565b61093f81511515610ba7565b61097a602082019161097261096a61095e85516001600160a01b031690565b6001600160a01b031690565b331415610c18565b513414610c89565b516001600160a01b031690565b6109aa61099e836000526002602052604060002090565b60016000918281550155565b6109c16109b960035434610d12565b612710900490565b918280158015610b0b575b506109d79034610d31565b6000908015610b01575b6000808080936001600160a01b039586891690f115610af4575b7f000000000000000000000000000000000000000000000000000000000000000016803b15610aea576040517f42842e0e0000000000000000000000000000000000000000000000000000000081526001600160a01b038416600482015233602482015260448101839052906000908290606490829084905af18015610add575b610ac0575b5060408051348152602081019490945233937f5fafad85dec201c2e73b6a2bef6351129304a624ea8720ecd04cd7f04d83bc399190a46105c160018055565b610ad790610ace3d8261073c565b3d810190610252565b38610a81565b610ae5610773565b610a7c565b5050505050600080fd5b610afc610773565b6109fb565b6108fc91506109e1565b60008080938193610b2961095e61095e85546001600160a01b031690565b908390610b4c575bf115610b3f575b82386109cc565b610b47610773565b610b38565b506108fc610b31565b906040516040810181811067ffffffffffffffff821117610b8d5760405260206001600160a01b036001839580548552015416910152565b50505050634e487b7160e01b600052604160045260246000fd5b15610bae57565b50608460405162461bcd60e51b8152602060048201526024808201527f4d41524b4554504c4143453a204e4654206e6f74206c697374656420666f722060448201527f73616c65000000000000000000000000000000000000000000000000000000006064820152fd5b15610c1f57565b50608460405162461bcd60e51b8152602060048201526024808201527f4d41524b4554504c4143453a2043616e6e6f742062757920796f7572206f776e60448201527f204e4654000000000000000000000000000000000000000000000000000000006064820152fd5b15610c9057565b50608460405162461bcd60e51b815260206004820152602960248201527f4d41524b4554504c4143453a20496e636f727265637420616d6f756e74206f6660448201527f204f4b422073656e7400000000000000000000000000000000000000000000006064820152fd5b50634e487b7160e01b600052601160045260246000fd5b8060001904821181151516610d25570290565b610d2d610cfb565b0290565b818110610d3c570390565b610d44610cfb565b0390565b806000526002602052602060406000206001600160a01b03600160405192610d6f84610708565b805484520154169182910152331415610dc457610d9961099e826000526002602052604060002090565b33907fef1499b350e05776e60cd2ffcac001569a28e9d574e1f3adc1b3ab264f8ccffd6000604051a3565b5050608460405162461bcd60e51b815260206004820152602f60248201527f4d41524b4554504c4143453a20596f7520617265206e6f74207468652073656c60448201527f6c6572206f662074686973204e465400000000000000000000000000000000006064820152fd5b610e38610309565b6101f48111610e7e5760038054908290556040805191825260208201929092527f936008f1e981d6f48d4a529714c27d74d644750a1d215451212ce0f2476f2fbc9190a1565b5050608460405162461bcd60e51b815260206004820152602160248201527f4d41524b4554504c4143453a204665652063616e6e6f7420657863656564203560448201527f25000000000000000000000000000000000000000000000000000000000000006064820152fd5b610ef2610309565b478015610f51577f5fafa99d0643513820be26656b45130b01e1c03062e1266bf36f88cbd3bd9695602060006001600160a01b039080808080888682541682f115610f44575b541692604051908152a2565b610f4c610773565b610f38565b5050608460405162461bcd60e51b815260206004820152602160248201527f4d41524b4554504c4143453a204e6f2066756e647320746f207769746864726160448201527f77000000000000000000000000000000000000000000000000000000000000006064820152fdfea36469706673582212208260468617ed81a887efe19f5cdc7db503045e8ac44ca5955d96a22738378f766c6578706572696d656e74616cf564736f6c634300080a0041",
  "linkReferences": {},
  "deployedLinkReferences": {}
}