{
  "_format": "hh-sol-artifact-1",
  "contractName": "SleepMinter",
  "sourceName": "contracts/SleepMinter.sol",
  "abi": [
    {
      "inputs": [
        {
          "internalType": "address",
          "name": "_sleepTokenAddress",
          "type": "address"
        },
        {
          "internalType": "address",
          "name": "_treasuryAddress",
          "type": "address"
        }
      ],
      "stateMutability": "nonpayable",
      "type": "constructor"
    },
    {
      "anonymous": false,
      "inputs": [
        {
          "indexed": true,
          "internalType": "address",
          "name": "owner",
          "type": "address"
        },
        {
          "indexed": true,
          "internalType": "address",
          "name": "approved",
          "type": "address"
        },
        {
          "indexed": true,
          "internalType": "uint256",
          "name": "tokenId",
          "type": "uint256"
        }
      ],
      "name": "Approval",
      "type": "event"
    },
    {
      "anonymous": false,
      "inputs": [
        {
          "indexed": true,
          "internalType": "address",
          "name": "owner",
          "type": "address"
        },
        {
          "indexed": true,
          "internalType": "address",
          "name": "operator",
          "type": "address"
        },
        {
          "indexed": false,
          "internalType": "bool",
          "name": "approved",
          "type": "bool"
        }
      ],
      "name": "ApprovalForAll",
      "type": "event"
    },
    {
      "anonymous": false,
      "inputs": [
        {
          "indexed": true,
          "internalType": "address",
          "name": "previousOwner",
          "type": "address"
        },
        {
          "indexed": true,
          "internalType": "address",
          "name": "newOwner",
          "type": "address"
        }
      ],
      "name": "OwnershipTransferred",
      "type": "event"
    },
    {
      "anonymous": false,
      "inputs": [
        {
          "indexed": true,
          "internalType": "address",
          "name": "minter",
          "type": "address"
        },
        {
          "indexed": false,
          "internalType": "uint256",
          "name": "term",
          "type": "uint256"
        },
        {
          "indexed": false,
          "internalType": "uint256",
          "name": "count",
          "type": "uint256"
        },
        {
          "indexed": false,
          "internalType": "uint256",
          "name": "feePaid",
          "type": "uint256"
        },
        {
          "indexed": false,
          "internalType": "uint256",
          "name": "expectedFee",
          "type": "uint256"
        }
      ],
      "name": "RankClaimed",
      "type": "event"
    },
    {
      "anonymous": false,
      "inputs": [
        {
          "indexed": true,
          "internalType": "address",
          "name": "from",
          "type": "address"
        },
        {
          "indexed": true,
          "internalType": "address",
          "name": "to",
          "type": "address"
        },
        {
          "indexed": true,
          "internalType": "uint256",
          "name": "tokenId",
          "type": "uint256"
        }
      ],
      "name": "Transfer",
      "type": "event"
    },
    {
      "inputs": [],
      "name": "EAA",
      "outputs": [
        {
          "internalType": "uint256",
          "name": "",
          "type": "uint256"
        }
      ],
      "stateMutability": "view",
      "type": "function"
    },
    {
      "inputs": [],
      "name": "MAX_PENALTY_PCT",
      "outputs": [
        {
          "internalType": "uint256",
          "name": "",
          "type": "uint256"
        }
      ],
      "stateMutability": "view",
      "type": "function"
    },
    {
      "inputs": [],
      "name": "MINT_FEE",
      "outputs": [
        {
          "internalType": "uint256",
          "name": "",
          "type": "uint256"
        }
      ],
      "stateMutability": "view",
      "type": "function"
    },
    {
      "inputs": [],
      "name": "SECONDS_IN_DAY",
      "outputs": [
        {
          "internalType": "uint256",
          "name": "",
          "type": "uint256"
        }
      ],
      "stateMutability": "view",
      "type": "function"
    },
    {
      "inputs": [],
      "name": "WITHDRAWAL_WINDOW_DAYS",
      "outputs": [
        {
          "internalType": "uint256",
          "name": "",
          "type": "uint256"
        }
      ],
      "stateMutability": "view",
      "type": "function"
    },
    {
      "inputs": [
        {
          "internalType": "address",
          "name": "to",
          "type": "address"
        },
        {
          "internalType": "uint256",
          "name": "tokenId",
          "type": "uint256"
        }
      ],
      "name": "approve",
      "outputs": [],
      "stateMutability": "nonpayable",
      "type": "function"
    },
    {
      "inputs": [
        {
          "internalType": "address",
          "name": "owner",
          "type": "address"
        }
      ],
      "name": "balanceOf",
      "outputs": [
        {
          "internalType": "uint256",
          "name": "",
          "type": "uint256"
        }
      ],
      "stateMutability": "view",
      "type": "function"
    },
    {
      "inputs": [
        {
          "internalType": "uint256",
          "name": "tokenId",
          "type": "uint256"
        }
      ],
      "name": "claimMintReward",
      "outputs": [],
      "stateMutability": "nonpayable",
      "type": "function"
    },
    {
      "inputs": [
        {
          "internalType": "uint256",
          "name": "term",
          "type": "uint256"
        },
        {
          "internalType": "uint256",
          "name": "count",
          "type": "uint256"
        }
      ],
      "name": "claimRank",
      "outputs": [],
      "stateMutability": "payable",
      "type": "function"
    },
    {
      "inputs": [],
      "name": "genesisTs",
      "outputs": [
        {
          "internalType": "uint256",
          "name": "",
          "type": "uint256"
        }
      ],
      "stateMutability": "view",
      "type": "function"
    },
    {
      "inputs": [
        {
          "internalType": "uint256",
          "name": "tokenId",
          "type": "uint256"
        }
      ],
      "name": "getApproved",
      "outputs": [
        {
          "internalType": "address",
          "name": "",
          "type": "address"
        }
      ],
      "stateMutability": "view",
      "type": "function"
    },
    {
      "inputs": [],
      "name": "globalRank",
      "outputs": [
        {
          "internalType": "uint256",
          "name": "",
          "type": "uint256"
        }
      ],
      "stateMutability": "view",
      "type": "function"
    },
    {
      "inputs": [
        {
          "internalType": "address",
          "name": "owner",
          "type": "address"
        },
        {
          "internalType": "address",
          "name": "operator",
          "type": "address"
        }
      ],
      "name": "isApprovedForAll",
      "outputs": [
        {
          "internalType": "bool",
          "name": "",
          "type": "bool"
        }
      ],
      "stateMutability": "view",
      "type": "function"
    },
    {
      "inputs": [
        {
          "internalType": "uint256",
          "name": "",
          "type": "uint256"
        }
      ],
      "name": "mintPositions",
      "outputs": [
        {
          "internalType": "uint256",
          "name": "maturityTs",
          "type": "uint256"
        },
        {
          "internalType": "uint256",
          "name": "term",
          "type": "uint256"
        },
        {
          "internalType": "uint256",
          "name": "count",
          "type": "uint256"
        },
        {
          "internalType": "uint256",
          "name": "rank",
          "type": "uint256"
        },
        {
          "internalType": "uint256",
          "name": "amplifier",
          "type": "uint256"
        },
        {
          "internalType": "address",
          "name": "minter",
          "type": "address"
        }
      ],
      "stateMutability": "view",
      "type": "function"
    },
    {
      "inputs": [],
      "name": "name",
      "outputs": [
        {
          "internalType": "string",
          "name": "",
          "type": "string"
        }
      ],
      "stateMutability": "view",
      "type": "function"
    },
    {
      "inputs": [],
      "name": "owner",
      "outputs": [
        {
          "internalType": "address",
          "name": "",
          "type": "address"
        }
      ],
      "stateMutability": "view",
      "type": "function"
    },
    {
      "inputs": [
        {
          "internalType": "uint256",
          "name": "tokenId",
          "type": "uint256"
        }
      ],
      "name": "ownerOf",
      "outputs": [
        {
          "internalType": "address",
          "name": "",
          "type": "address"
        }
      ],
      "stateMutability": "view",
      "type": "function"
    },
    {
      "inputs": [
        {
          "internalType": "address",
          "name": "tokenAddress",
          "type": "address"
        },
        {
          "internalType": "uint256",
          "name": "amount",
          "type": "uint256"
        }
      ],
      "name": "recoverTokens",
      "outputs": [],
      "stateMutability": "nonpayable",
      "type": "function"
    },
    {
      "inputs": [],
      "name": "renounceOwnership",
      "outputs": [],
      "stateMutability": "nonpayable",
      "type": "function"
    },
    {
      "inputs": [
        {
          "internalType": "address",
          "name": "from",
          "type": "address"
        },
        {
          "internalType": "address",
          "name": "to",
          "type": "address"
        },
        {
          "internalType": "uint256",
          "name": "tokenId",
          "type": "uint256"
        }
      ],
      "name": "safeTransferFrom",
      "outputs": [],
      "stateMutability": "nonpayable",
      "type": "function"
    },
    {
      "inputs": [
        {
          "internalType": "address",
          "name": "from",
          "type": "address"
        },
        {
          "internalType": "address",
          "name": "to",
          "type": "address"
        },
        {
          "internalType": "uint256",
          "name": "tokenId",
          "type": "uint256"
        },
        {
          "internalType": "bytes",
          "name": "data",
          "type": "bytes"
        }
      ],
      "name": "safeTransferFrom",
      "outputs": [],
      "stateMutability": "nonpayable",
      "type": "function"
    },
    {
      "inputs": [
        {
          "internalType": "address",
          "name": "operator",
          "type": "address"
        },
        {
          "internalType": "bool",
          "name": "approved",
          "type": "bool"
        }
      ],
      "name": "setApprovalForAll",
      "outputs": [],
      "stateMutability": "nonpayable",
      "type": "function"
    },
    {
      "inputs": [
        {
          "internalType": "uint256",
          "name": "tokenId",
          "type": "uint256"
        },
        {
          "internalType": "uint256",
          "name": "newMaturityTs",
          "type": "uint256"
        }
      ],
      "name": "setMaturity",
      "outputs": [],
      "stateMutability": "nonpayable",
      "type": "function"
    },
    {
      "inputs": [
        {
          "internalType": "address",
          "name": "_stakingRewardsAddress",
          "type": "address"
        }
      ],
      "name": "setStakingRewardsAddress",
      "outputs": [],
      "stateMutability": "nonpayable",
      "type": "function"
    },
    {
      "inputs": [],
      "name": "sleepToken",
      "outputs": [
        {
          "internalType": "contract ISleepCoin",
          "name": "",
          "type": "address"
        }
      ],
      "stateMutability": "view",
      "type": "function"
    },
    {
      "inputs": [],
      "name": "stakingRewardsAddress",
      "outputs": [
        {
          "internalType": "address",
          "name": "",
          "type": "address"
        }
      ],
      "stateMutability": "view",
      "type": "function"
    },
    {
      "inputs": [
        {
          "internalType": "bytes4",
          "name": "interfaceId",
          "type": "bytes4"
        }
      ],
      "name": "supportsInterface",
      "outputs": [
        {
          "internalType": "bool",
          "name": "",
          "type": "bool"
        }
      ],
      "stateMutability": "view",
      "type": "function"
    },
    {
      "inputs": [],
      "name": "symbol",
      "outputs": [
        {
          "internalType": "string",
          "name": "",
          "type": "string"
        }
      ],
      "stateMutability": "view",
      "type": "function"
    },
    {
      "inputs": [
        {
          "internalType": "uint256",
          "name": "index",
          "type": "uint256"
        }
      ],
      "name": "tokenByIndex",
      "outputs": [
        {
          "internalType": "uint256",
          "name": "",
          "type": "uint256"
        }
      ],
      "stateMutability": "view",
      "type": "function"
    },
    {
      "inputs": [
        {
          "internalType": "address",
          "name": "owner",
          "type": "address"
        },
        {
          "internalType": "uint256",
          "name": "index",
          "type": "uint256"
        }
      ],
      "name": "tokenOfOwnerByIndex",
      "outputs": [
        {
          "internalType": "uint256",
          "name": "",
          "type": "uint256"
        }
      ],
      "stateMutability": "view",
      "type": "function"
    },
    {
      "inputs": [
        {
          "internalType": "uint256",
          "name": "tokenId",
          "type": "uint256"
        }
      ],
      "name": "tokenURI",
      "outputs": [
        {
          "internalType": "string",
          "name": "",
          "type": "string"
        }
      ],
      "stateMutability": "view",
      "type": "function"
    },
    {
      "inputs": [],
      "name": "totalSupply",
      "outputs": [
        {
          "internalType": "uint256",
          "name": "",
          "type": "uint256"
        }
      ],
      "stateMutability": "view",
      "type": "function"
    },
    {
      "inputs": [
        {
          "internalType": "address",
          "name": "from",
          "type": "address"
        },
        {
          "internalType": "address",
          "name": "to",
          "type": "address"
        },
        {
          "internalType": "uint256",
          "name": "tokenId",
          "type": "uint256"
        }
      ],
      "name": "transferFrom",
      "outputs": [],
      "stateMutability": "nonpayable",
      "type": "function"
    },
    {
      "inputs": [
        {
          "internalType": "address",
          "name": "newOwner",
          "type": "address"
        }
      ],
      "name": "transferOwnership",
      "outputs": [],
      "stateMutability": "nonpayable",
      "type": "function"
    },
    {
      "inputs": [],
      "name": "treasuryDistributor",
      "outputs": [
        {
          "internalType": "address",
          "name": "",
          "type": "address"
        }
      ],
      "stateMutability": "view",
      "type": "function"
    }
  ],
  "bytecode": "0x60a0604052620186a0600f553480156200001857600080fd5b5060405162002d0738038062002d078339810160408190526200003b9162000222565b604080518082018252601681527f536c656570204d696e74696e6720506f736974696f6e000000000000000000006020808301918252835180850190945260088452670534c4545502d4d560c41b908401528151919291620000a0916000916200015f565b508051620000b69060019060208401906200015f565b505050620000d3620000cd6200010960201b60201c565b6200010d565b42608052600b80546001600160a01b039384166001600160a01b031991821617909155600c805492909316911617905562000297565b3390565b600a80546001600160a01b038381166001600160a01b0319831681179093556040519116919082907f8be0079c531659141344cd1fd0a4f28419497f9722a3daafe3b4186f6b6457e090600090a35050565b8280546200016d906200025a565b90600052602060002090601f016020900481019282620001915760008555620001dc565b82601f10620001ac57805160ff1916838001178555620001dc565b82800160010185558215620001dc579182015b82811115620001dc578251825591602001919060010190620001bf565b50620001ea929150620001ee565b5090565b5b80821115620001ea5760008155600101620001ef565b80516001600160a01b03811681146200021d57600080fd5b919050565b600080604083850312156200023657600080fd5b620002418362000205565b9150620002516020840162000205565b90509250929050565b600181811c908216806200026f57607f821691505b602082108114156200029157634e487b7160e01b600052602260045260246000fd5b50919050565b608051612a46620002c16000396000818161062e015281816119e30152611b600152612a466000f3fe6080604052600436106102045760003560e01c806370a0823111610118578063c56f0bab116100a0578063e3af6d0a1161006f578063e3af6d0a1461061c578063e985e9c514610650578063f2fde38b14610699578063f3efc260146106b9578063f91564af146106cc57600080fd5b8063c56f0bab146105ac578063c87b56dd146105c1578063d7bf81a3146105e1578063dae0247b146105fc57600080fd5b806381749a8a116100e757806381749a8a146105195780638da5cb5b1461053957806395d89b4114610557578063a22cb4651461056c578063b88d4fde1461058c57600080fd5b806370a082311461043557806370a333e014610455578063715018a6146104e4578063788bff68146104f957600080fd5b80631c2440821161019b5780634f6ccce71161016a5780634f6ccce7146103a857806361a52a36146103c85780636352211e146103df578063698787c4146103ff5780636e4991f61461041f57600080fd5b80631c2440821461033257806323b872dd146103485780632f745c591461036857806342842e0e1461038857600080fd5b8063081812fc116101d7578063081812fc146102ba578063095ea7b3146102da5780630f2e1228146102fa57806318160ddd1461031d57600080fd5b806301ffc9a714610209578063069c9fae1461023e57806306fdde031461026057806307ed500314610282575b600080fd5b34801561021557600080fd5b506102296102243660046124a8565b6106ec565b60405190151581526020015b60405180910390f35b34801561024a57600080fd5b5061025e6102593660046124e1565b6106fd565b005b34801561026c57600080fd5b5061027561079c565b6040516102359190612563565b34801561028e57600080fd5b50600b546102a2906001600160a01b031681565b6040516001600160a01b039091168152602001610235565b3480156102c657600080fd5b506102a26102d5366004612576565b61082e565b3480156102e657600080fd5b5061025e6102f53660046124e1565b610855565b34801561030657600080fd5b5061030f606381565b604051908152602001610235565b34801561032957600080fd5b5060085461030f565b34801561033e57600080fd5b5061030f600e5481565b34801561035457600080fd5b5061025e61036336600461258f565b61096b565b34801561037457600080fd5b5061030f6103833660046124e1565b61099c565b34801561039457600080fd5b5061025e6103a336600461258f565b610a32565b3480156103b457600080fd5b5061030f6103c3366004612576565b610a4d565b3480156103d457600080fd5b5061030f6201518081565b3480156103eb57600080fd5b506102a26103fa366004612576565b610ae0565b34801561040b57600080fd5b5061025e61041a366004612576565b610b40565b34801561042b57600080fd5b5061030f600f5481565b34801561044157600080fd5b5061030f6104503660046125cb565b610dbe565b34801561046157600080fd5b506104ae610470366004612576565b60116020526000908152604090208054600182015460028301546003840154600485015460059095015493949293919290916001600160a01b031686565b60408051968752602087019590955293850192909252606084015260808301526001600160a01b031660a082015260c001610235565b3480156104f057600080fd5b5061025e610e44565b34801561050557600080fd5b50600d546102a2906001600160a01b031681565b34801561052557600080fd5b50600c546102a2906001600160a01b031681565b34801561054557600080fd5b50600a546001600160a01b03166102a2565b34801561056357600080fd5b50610275610e58565b34801561057857600080fd5b5061025e6105873660046125f4565b610e67565b34801561059857600080fd5b5061025e6105a7366004612641565b610e76565b3480156105b857600080fd5b5061030f600a81565b3480156105cd57600080fd5b506102756105dc366004612576565b610eae565b3480156105ed57600080fd5b5061030f662386f26fc1000081565b34801561060857600080fd5b5061025e61061736600461271d565b610f22565b34801561062857600080fd5b5061030f7f000000000000000000000000000000000000000000000000000000000000000081565b34801561065c57600080fd5b5061022961066b36600461273f565b6001600160a01b03918216600090815260056020908152604080832093909416825291909152205460ff1690565b3480156106a557600080fd5b5061025e6106b43660046125cb565b610f3c565b61025e6106c736600461271d565b610fb5565b3480156106d857600080fd5b5061025e6106e73660046125cb565b611253565b60006106f78261127d565b92915050565b6107056112a2565b816001600160a01b031663a9059cbb610726600a546001600160a01b031690565b6040516001600160e01b031960e084901b1681526001600160a01b039091166004820152602481018490526044016020604051808303816000875af1158015610773573d6000803e3d6000fd5b505050506040513d601f19601f820116820180604052508101906107979190612772565b505050565b6060600080546107ab9061278f565b80601f01602080910402602001604051908101604052809291908181526020018280546107d79061278f565b80156108245780601f106107f957610100808354040283529160200191610824565b820191906000526020600020905b81548152906001019060200180831161080757829003601f168201915b5050505050905090565b6000610839826112fc565b506000908152600460205260409020546001600160a01b031690565b600061086082610ae0565b9050806001600160a01b0316836001600160a01b031614156108d35760405162461bcd60e51b815260206004820152602160248201527f4552433732313a20617070726f76616c20746f2063757272656e74206f776e656044820152603960f91b60648201526084015b60405180910390fd5b336001600160a01b03821614806108ef57506108ef813361066b565b6109615760405162461bcd60e51b815260206004820152603d60248201527f4552433732313a20617070726f76652063616c6c6572206973206e6f7420746f60448201527f6b656e206f776e6572206f7220617070726f76656420666f7220616c6c00000060648201526084016108ca565b610797838361135b565b61097533826113c9565b6109915760405162461bcd60e51b81526004016108ca906127ca565b610797838383611448565b60006109a783610dbe565b8210610a095760405162461bcd60e51b815260206004820152602b60248201527f455243373231456e756d657261626c653a206f776e657220696e646578206f7560448201526a74206f6620626f756e647360a81b60648201526084016108ca565b506001600160a01b03919091166000908152600660209081526040808320938352929052205490565b61079783838360405180602001604052806000815250610e76565b6000610a5860085490565b8210610abb5760405162461bcd60e51b815260206004820152602c60248201527f455243373231456e756d657261626c653a20676c6f62616c20696e646578206f60448201526b7574206f6620626f756e647360a01b60648201526084016108ca565b60088281548110610ace57610ace612817565b90600052602060002001549050919050565b6000818152600260205260408120546001600160a01b0316806106f75760405162461bcd60e51b8152602060048201526018602482015277115490cdcc8c4e881a5b9d985b1a59081d1bdad95b88125160421b60448201526064016108ca565b610b4a33826113c9565b610ba85760405162461bcd60e51b815260206004820152602960248201527f534c4545502d4d503a2043616c6c6572206973206e6f74206f776e6572206f7260448201526808185c1c1c9bdd995960ba1b60648201526084016108ca565b60008181526011602052604090208054421015610c155760405162461bcd60e51b815260206004820152602560248201527f534c4545502d4d503a204d696e74696e67207465726d206e6f7420796574206d604482015264617475726560d81b60648201526084016108ca565b6000610c3382600101548360030154846004015485600201546115b9565b90506000610c4483600001546116a0565b905060006064610c548382612843565b610c5e908561285a565b610c68919061288f565b90508115610d0b576000610c7c8285612843565b905060006064610c8d83600661285a565b610c97919061288f565b90508015610d0857600b54600d546040516340c10f1960e01b81526001600160a01b039182166004820152602481018490529116906340c10f1990604401600060405180830381600087803b158015610cef57600080fd5b505af1158015610d03573d6000803e3d6000fd5b505050505b50505b6000858152601160205260408120818155600181018290556002810182905560038101829055600481019190915560050180546001600160a01b0319169055610d5385611743565b600b546040516340c10f1960e01b8152336004820152602481018390526001600160a01b03909116906340c10f1990604401600060405180830381600087803b158015610d9f57600080fd5b505af1158015610db3573d6000803e3d6000fd5b505050505050505050565b60006001600160a01b038216610e285760405162461bcd60e51b815260206004820152602960248201527f4552433732313a2061646472657373207a65726f206973206e6f7420612076616044820152683634b21037bbb732b960b91b60648201526084016108ca565b506001600160a01b031660009081526003602052604090205490565b610e4c6112a2565b610e5660006117e6565b565b6060600180546107ab9061278f565b610e72338383611838565b5050565b610e8033836113c9565b610e9c5760405162461bcd60e51b81526004016108ca906127ca565b610ea884848484611907565b50505050565b6060610eb9826112fc565b6000610ed060408051602081019091526000815290565b90506000815111610ef05760405180602001604052806000815250610f1b565b80610efa8461193a565b604051602001610f0b9291906128b1565b6040516020818303038152906040525b9392505050565b610f2a6112a2565b60009182526011602052604090912055565b610f446112a2565b6001600160a01b038116610fa95760405162461bcd60e51b815260206004820152602660248201527f4f776e61626c653a206e6577206f776e657220697320746865207a65726f206160448201526564647265737360d01b60648201526084016108ca565b610fb2816117e6565b50565b600081118015610fc6575060648111155b6110245760405162461bcd60e51b815260206004820152602960248201527f534c4545502d4d503a20436f756e74206d757374206265206265747765656e2060448201526803120616e64203130360bc1b60648201526084016108ca565b61102c6119d7565b82111561108a5760405162461bcd60e51b815260206004820152602660248201527f534c4545502d4d503a205465726d2065786365656473206d6178696d756d20616044820152651b1b1bddd95960d21b60648201526084016108ca565b600061109d82662386f26fc1000061285a565b90508034146110f85760405162461bcd60e51b815260206004820152602160248201527f534c4545502d4d503a20496e636f7272656374206d696e7420666565207061696044820152601960fa1b60648201526084016108ca565b6000600e54600161110991906128e0565b905082600e600082825461111d91906128e0565b9091555050601080546001019055600061113660105490565b90506040518060c00160405280864261114f91906128e0565b815260200186815260200185815260200183815260200161116e611a3e565b8152336020918201819052600084815260118352604090819020845181559284015160018401558301516002830155606083015160038301556080830151600483015560a090920151600590910180546001600160a01b0319166001600160a01b039092169190911790556111e39082611aa5565b600c60009054906101000a90046001600160a01b03166001600160a01b031663bb57ad20346040518263ffffffff1660e01b81526004016000604051808303818588803b15801561123357600080fd5b505af1158015611247573d6000803e3d6000fd5b50505050505050505050565b61125b6112a2565b600d80546001600160a01b0319166001600160a01b0392909216919091179055565b60006001600160e01b0319821663780e9d6360e01b14806106f757506106f782611abf565b600a546001600160a01b03163314610e565760405162461bcd60e51b815260206004820181905260248201527f4f776e61626c653a2063616c6c6572206973206e6f7420746865206f776e657260448201526064016108ca565b6000818152600260205260409020546001600160a01b0316610fb25760405162461bcd60e51b8152602060048201526018602482015277115490cdcc8c4e881a5b9d985b1a59081d1bdad95b88125160421b60448201526064016108ca565b600081815260046020526040902080546001600160a01b0319166001600160a01b038416908117909155819061139082610ae0565b6001600160a01b03167f8c5be1e5ebec7d5bd14f71427d1e84f3dd0314c0f7b2291e5b200ac8c7c3b92560405160405180910390a45050565b6000806113d583610ae0565b9050806001600160a01b0316846001600160a01b0316148061141c57506001600160a01b0380821660009081526005602090815260408083209388168352929052205460ff165b806114405750836001600160a01b03166114358461082e565b6001600160a01b0316145b949350505050565b826001600160a01b031661145b82610ae0565b6001600160a01b0316146114815760405162461bcd60e51b81526004016108ca906128f8565b6001600160a01b0382166114e35760405162461bcd60e51b8152602060048201526024808201527f4552433732313a207472616e7366657220746f20746865207a65726f206164646044820152637265737360e01b60648201526084016108ca565b6114f08383836001611b0f565b826001600160a01b031661150382610ae0565b6001600160a01b0316146115295760405162461bcd60e51b81526004016108ca906128f8565b600081815260046020908152604080832080546001600160a01b03199081169091556001600160a01b0387811680865260038552838620805460001901905590871680865283862080546001019055868652600290945282852080549092168417909155905184937fddf252ad1be2c89b69c2b068fc378daa952ba7f163c4a11628f55a4df523b3ef91a4505050565b600080805b838110156116645760006115d282886128e0565b9050600081600e54116115e65760006115f4565b81600e546115f49190612843565b90506002811015611603575060025b600061160e82611b1b565b9050620f4240600f548b8a84611624919061285a565b61162e919061285a565b611638919061285a565b611642919061288f565b61164c90866128e0565b9450505050808061165c9061293d565b9150506115be565b50600061166f611b54565b9050600061169461168c8361168386611bcd565b600f0b90611be6565b600f0b611c1d565b98975050505050505050565b6000806116ad8342612843565b905060006116be620151808361288f565b9050600281116116d2575060009392505050565b600581116116f0576116e5600282612843565b61144090600561285a565b600a811161173957600f6000611707600584612843565b61171290600f61285a565b61171c90836128e0565b90506063811161172c578061172f565b60635b9695505050505050565b5060639392505050565b600061174e82610ae0565b905061175e816000846001611b0f565b61176782610ae0565b600083815260046020908152604080832080546001600160a01b03199081169091556001600160a01b0385168085526003845282852080546000190190558785526002909352818420805490911690555192935084927fddf252ad1be2c89b69c2b068fc378daa952ba7f163c4a11628f55a4df523b3ef908390a45050565b600a80546001600160a01b038381166001600160a01b0319831681179093556040519116919082907f8be0079c531659141344cd1fd0a4f28419497f9722a3daafe3b4186f6b6457e090600090a35050565b816001600160a01b0316836001600160a01b0316141561189a5760405162461bcd60e51b815260206004820152601960248201527f4552433732313a20617070726f766520746f2063616c6c65720000000000000060448201526064016108ca565b6001600160a01b03838116600081815260056020908152604080832094871680845294825291829020805460ff191686151590811790915591519182527f17307eab39ab6107e8899845ad3d59bd9653f200f220920489ca2b5937696c31910160405180910390a3505050565b611912848484611448565b61191e84848484611c39565b610ea85760405162461bcd60e51b81526004016108ca90612958565b6060600061194783611d34565b600101905060008167ffffffffffffffff8111156119675761196761262b565b6040519080825280601f01601f191660200182016040528015611991576020820181803683370190505b5090508181016020015b600019016f181899199a1a9b1b9c1cb0b131b232b360811b600a86061a8153600a85049450846119ca576119cf565b61199b565b509392505050565b60008062015180611a087f000000000000000000000000000000000000000000000000000000000000000042612843565b611a12919061288f565b905062015180611a2360038361288f565b611a2e90602d6128e0565b611a38919061285a565b91505090565b600080620186a0600e54611a52919061288f565b9050606460005b82811015611a8c576064611a6e83606261285a565b611a78919061288f565b915080611a848161293d565b915050611a59565b5060018111611a9c576001611a9e565b805b9250505090565b610e72828260405180602001604052806000815250611e0c565b60006001600160e01b031982166380ac58cd60e01b1480611af057506001600160e01b03198216635b5e139f60e01b145b806106f757506301ffc9a760e01b6001600160e01b03198316146106f7565b610ea884848484611e3f565b600081611b2a57506000919050565b6000825b8015611b495760011c81611b418161293d565b925050611b2e565b611440600183612843565b60008062015180611b857f000000000000000000000000000000000000000000000000000000000000000042612843565b611b8f919061288f565b90506000611bbf82600f0b611bb662989680611bad61946f19611f73565b600f0b90611f9a565b600f0b90611fe4565b9050611a9e81600f0b612014565b60006001603f1b8210611bdf57600080fd5b5060401b90565b6000600f83810b9083900b0260401d60016001607f1b03198112801590611c14575060016001607f1b038113155b610f1b57600080fd5b60008082600f0b1215611c2f57600080fd5b50600f0b60401d90565b60006001600160a01b0384163b15611d2c57604051630a85bd0160e11b81526001600160a01b0385169063150b7a0290611c7d9033908990889088906004016129aa565b6020604051808303816000875af1925050508015611cb8575060408051601f3d908101601f19168201909252611cb5918101906129dd565b60015b611d12573d808015611ce6576040519150601f19603f3d011682016040523d82523d6000602084013e611ceb565b606091505b508051611d0a5760405162461bcd60e51b81526004016108ca90612958565b805181602001fd5b6001600160e01b031916630a85bd0160e11b149050611440565b506001611440565b60008072184f03e93ff9f4daa797ed6e38ed64bf6a1f0160401b8310611d735772184f03e93ff9f4daa797ed6e38ed64bf6a1f0160401b830492506040015b6d04ee2d6d415b85acef81000000008310611d9f576d04ee2d6d415b85acef8100000000830492506020015b662386f26fc100008310611dbd57662386f26fc10000830492506010015b6305f5e1008310611dd5576305f5e100830492506008015b6127108310611de957612710830492506004015b60648310611dfb576064830492506002015b600a83106106f75760010192915050565b611e1683836120c7565b611e236000848484611c39565b6107975760405162461bcd60e51b81526004016108ca90612958565b6001811115611eae5760405162461bcd60e51b815260206004820152603560248201527f455243373231456e756d657261626c653a20636f6e7365637574697665207472604482015274185b9cd9995c9cc81b9bdd081cdd5c1c1bdc9d1959605a1b60648201526084016108ca565b816001600160a01b038516611f0a57611f0581600880546000838152600960205260408120829055600182018355919091527ff3f7a9fe364faab93b216da50a3214154f22a0a2b415b23a84c8169e8b636ee30155565b611f2d565b836001600160a01b0316856001600160a01b031614611f2d57611f2d8582612260565b6001600160a01b038416611f4957611f44816122fd565b611f6c565b846001600160a01b0316846001600160a01b031614611f6c57611f6c84826123ac565b5050505050565b6000677fffffffffffffff198212158015611f9157506001603f1b82125b611bdf57600080fd5b600081611fa657600080fd5b60008284600f0b81611fba57611fba612879565b05905060016001607f1b03198112801590611c14575060016001607f1b03811315610f1b57600080fd5b6000600f83900b820260016001607f1b03198112801590611c14575060016001607f1b03811315610f1b57600080fd5b600060016001607f1b0382600f0b1261202c57600080fd5b6803ffffffffffffffff1982600f0b121561204957506000919050565b60006120556001611bcd565b90508260006120646001611bcd565b905060025b6000612074846123f0565b600f0b13156120bd57612087848461240f565b93506120938387611be6565b92506120a7826120a283611bcd565b611be6565b91506001016120b68383612442565b9250612069565b5091949350505050565b6001600160a01b03821661211d5760405162461bcd60e51b815260206004820181905260248201527f4552433732313a206d696e7420746f20746865207a65726f206164647265737360448201526064016108ca565b6000818152600260205260409020546001600160a01b0316156121825760405162461bcd60e51b815260206004820152601c60248201527f4552433732313a20746f6b656e20616c7265616479206d696e7465640000000060448201526064016108ca565b612190600083836001611b0f565b6000818152600260205260409020546001600160a01b0316156121f55760405162461bcd60e51b815260206004820152601c60248201527f4552433732313a20746f6b656e20616c7265616479206d696e7465640000000060448201526064016108ca565b6001600160a01b038216600081815260036020908152604080832080546001019055848352600290915280822080546001600160a01b0319168417905551839291907fddf252ad1be2c89b69c2b068fc378daa952ba7f163c4a11628f55a4df523b3ef908290a45050565b6000600161226d84610dbe565b6122779190612843565b6000838152600760205260409020549091508082146122ca576001600160a01b03841660009081526006602090815260408083208584528252808320548484528184208190558352600790915290208190555b5060009182526007602090815260408084208490556001600160a01b039094168352600681528383209183525290812055565b60085460009061230f90600190612843565b6000838152600960205260408120546008805493945090928490811061233757612337612817565b90600052602060002001549050806008838154811061235857612358612817565b6000918252602080832090910192909255828152600990915260408082208490558582528120556008805480612390576123906129fa565b6001900381819060005260206000200160009055905550505050565b60006123b783610dbe565b6001600160a01b039093166000908152600660209081526040808320868452825280832085905593825260079052919091209190915550565b60008082600f0b121561240b5761240682612470565b6106f7565b5090565b6000600f83810b9083900b0160016001607f1b03198112801590611c14575060016001607f1b03811315610f1b57600080fd5b600081600f0b6000141561245557600080fd5b600082600f0b604085600f0b901b81611fba57611fba612879565b6000600f82900b60016001607f1b0319141561248b57600080fd5b5060000390565b6001600160e01b031981168114610fb257600080fd5b6000602082840312156124ba57600080fd5b8135610f1b81612492565b80356001600160a01b03811681146124dc57600080fd5b919050565b600080604083850312156124f457600080fd5b6124fd836124c5565b946020939093013593505050565b60005b8381101561252657818101518382015260200161250e565b83811115610ea85750506000910152565b6000815180845261254f81602086016020860161250b565b601f01601f19169290920160200192915050565b602081526000610f1b6020830184612537565b60006020828403121561258857600080fd5b5035919050565b6000806000606084860312156125a457600080fd5b6125ad846124c5565b92506125bb602085016124c5565b9150604084013590509250925092565b6000602082840312156125dd57600080fd5b610f1b826124c5565b8015158114610fb257600080fd5b6000806040838503121561260757600080fd5b612610836124c5565b91506020830135612620816125e6565b809150509250929050565b634e487b7160e01b600052604160045260246000fd5b6000806000806080858703121561265757600080fd5b612660856124c5565b935061266e602086016124c5565b925060408501359150606085013567ffffffffffffffff8082111561269257600080fd5b818701915087601f8301126126a657600080fd5b8135818111156126b8576126b861262b565b604051601f8201601f19908116603f011681019083821181831017156126e0576126e061262b565b816040528281528a60208487010111156126f957600080fd5b82602086016020830137600060208483010152809550505050505092959194509250565b6000806040838503121561273057600080fd5b50508035926020909101359150565b6000806040838503121561275257600080fd5b61275b836124c5565b9150612769602084016124c5565b90509250929050565b60006020828403121561278457600080fd5b8151610f1b816125e6565b600181811c908216806127a357607f821691505b602082108114156127c457634e487b7160e01b600052602260045260246000fd5b50919050565b6020808252602d908201527f4552433732313a2063616c6c6572206973206e6f7420746f6b656e206f776e6560408201526c1c881bdc88185c1c1c9bdd9959609a1b606082015260800190565b634e487b7160e01b600052603260045260246000fd5b634e487b7160e01b600052601160045260246000fd5b6000828210156128555761285561282d565b500390565b60008160001904831182151516156128745761287461282d565b500290565b634e487b7160e01b600052601260045260246000fd5b6000826128ac57634e487b7160e01b600052601260045260246000fd5b500490565b600083516128c381846020880161250b565b8351908301906128d781836020880161250b565b01949350505050565b600082198211156128f3576128f361282d565b500190565b60208082526025908201527f4552433732313a207472616e736665722066726f6d20696e636f72726563742060408201526437bbb732b960d91b606082015260800190565b60006000198214156129515761295161282d565b5060010190565b60208082526032908201527f4552433732313a207472616e7366657220746f206e6f6e20455243373231526560408201527131b2b4bb32b91034b6b83632b6b2b73a32b960711b606082015260800190565b6001600160a01b038581168252841660208201526040810183905260806060820181905260009061172f90830184612537565b6000602082840312156129ef57600080fd5b8151610f1b81612492565b634e487b7160e01b600052603160045260246000fdfea2646970667358221220eba03daf23c946aac2d07b7efc4ecb2429957ea19074cebfc53c6315a18fb58f64736f6c634300080a0033",
  "linkReferences": {},
  "deployedLinkReferences": {}
}