{
  "_format": "hh-sol-artifact-1",
  "contractName": "SleepCoin",
  "sourceName": "contracts/SleepCoin.sol",
  "abi": [
    {
      "inputs": [
        {
          "internalType": "address",
          "name": "_routerAddress",
          "type": "address"
        }
      ],
      "stateMutability": "nonpayable",
      "type": "constructor"
    },
    {
      "anonymous": false,
      "inputs": [
        {
          "indexed": true,
          "internalType": "address",
          "name": "owner",
          "type": "address"
        },
        {
          "indexed": true,
          "internalType": "address",
          "name": "spender",
          "type": "address"
        },
        {
          "indexed": false,
          "internalType": "uint256",
          "name": "value",
          "type": "uint256"
        }
      ],
      "name": "Approval",
      "type": "event"
    },
    {
      "anonymous": false,
      "inputs": [
        {
          "indexed": true,
          "internalType": "address",
          "name": "previousOwner",
          "type": "address"
        },
        {
          "indexed": true,
          "internalType": "address",
          "name": "newOwner",
          "type": "address"
        }
      ],
      "name": "OwnershipTransferred",
      "type": "event"
    },
    {
      "anonymous": false,
      "inputs": [
        {
          "indexed": true,
          "internalType": "address",
          "name": "from",
          "type": "address"
        },
        {
          "indexed": true,
          "internalType": "address",
          "name": "to",
          "type": "address"
        },
        {
          "indexed": false,
          "internalType": "uint256",
          "name": "value",
          "type": "uint256"
        }
      ],
      "name": "Transfer",
      "type": "event"
    },
    {
      "inputs": [],
      "name": "TOTAL_SUPPLY_CAP",
      "outputs": [
        {
          "internalType": "uint256",
          "name": "",
          "type": "uint256"
        }
      ],
      "stateMutability": "view",
      "type": "function"
    },
    {
      "inputs": [
        {
          "internalType": "address",
          "name": "owner",
          "type": "address"
        },
        {
          "internalType": "address",
          "name": "spender",
          "type": "address"
        }
      ],
      "name": "allowance",
      "outputs": [
        {
          "internalType": "uint256",
          "name": "",
          "type": "uint256"
        }
      ],
      "stateMutability": "view",
      "type": "function"
    },
    {
      "inputs": [
        {
          "internalType": "address",
          "name": "spender",
          "type": "address"
        },
        {
          "internalType": "uint256",
          "name": "amount",
          "type": "uint256"
        }
      ],
      "name": "approve",
      "outputs": [
        {
          "internalType": "bool",
          "name": "",
          "type": "bool"
        }
      ],
      "stateMutability": "nonpayable",
      "type": "function"
    },
    {
      "inputs": [
        {
          "internalType": "address",
          "name": "account",
          "type": "address"
        }
      ],
      "name": "balanceOf",
      "outputs": [
        {
          "internalType": "uint256",
          "name": "",
          "type": "uint256"
        }
      ],
      "stateMutability": "view",
      "type": "function"
    },
    {
      "inputs": [],
      "name": "buyTaxPhase1",
      "outputs": [
        {
          "internalType": "uint8",
          "name": "",
          "type": "uint8"
        }
      ],
      "stateMutability": "view",
      "type": "function"
    },
    {
      "inputs": [],
      "name": "buyTaxPhase2",
      "outputs": [
        {
          "internalType": "uint8",
          "name": "",
          "type": "uint8"
        }
      ],
      "stateMutability": "view",
      "type": "function"
    },
    {
      "inputs": [],
      "name": "decimals",
      "outputs": [
        {
          "internalType": "uint8",
          "name": "",
          "type": "uint8"
        }
      ],
      "stateMutability": "view",
      "type": "function"
    },
    {
      "inputs": [
        {
          "internalType": "address",
          "name": "spender",
          "type": "address"
        },
        {
          "internalType": "uint256",
          "name": "subtractedValue",
          "type": "uint256"
        }
      ],
      "name": "decreaseAllowance",
      "outputs": [
        {
          "internalType": "bool",
          "name": "",
          "type": "bool"
        }
      ],
      "stateMutability": "nonpayable",
      "type": "function"
    },
    {
      "inputs": [
        {
          "internalType": "address",
          "name": "account",
          "type": "address"
        }
      ],
      "name": "excludeFromFee",
      "outputs": [],
      "stateMutability": "nonpayable",
      "type": "function"
    },
    {
      "inputs": [
        {
          "internalType": "address",
          "name": "account",
          "type": "address"
        }
      ],
      "name": "includeInFee",
      "outputs": [],
      "stateMutability": "nonpayable",
      "type": "function"
    },
    {
      "inputs": [
        {
          "internalType": "address",
          "name": "spender",
          "type": "address"
        },
        {
          "internalType": "uint256",
          "name": "addedValue",
          "type": "uint256"
        }
      ],
      "name": "increaseAllowance",
      "outputs": [
        {
          "internalType": "bool",
          "name": "",
          "type": "bool"
        }
      ],
      "stateMutability": "nonpayable",
      "type": "function"
    },
    {
      "inputs": [
        {
          "internalType": "address",
          "name": "",
          "type": "address"
        }
      ],
      "name": "isDexPair",
      "outputs": [
        {
          "internalType": "bool",
          "name": "",
          "type": "bool"
        }
      ],
      "stateMutability": "view",
      "type": "function"
    },
    {
      "inputs": [
        {
          "internalType": "address",
          "name": "",
          "type": "address"
        }
      ],
      "name": "isExcludedFromFee",
      "outputs": [
        {
          "internalType": "bool",
          "name": "",
          "type": "bool"
        }
      ],
      "stateMutability": "view",
      "type": "function"
    },
    {
      "inputs": [
        {
          "internalType": "address",
          "name": "to",
          "type": "address"
        },
        {
          "internalType": "uint256",
          "name": "amount",
          "type": "uint256"
        }
      ],
      "name": "mint",
      "outputs": [],
      "stateMutability": "nonpayable",
      "type": "function"
    },
    {
      "inputs": [],
      "name": "minterContract",
      "outputs": [
        {
          "internalType": "address",
          "name": "",
          "type": "address"
        }
      ],
      "stateMutability": "view",
      "type": "function"
    },
    {
      "inputs": [],
      "name": "name",
      "outputs": [
        {
          "internalType": "string",
          "name": "",
          "type": "string"
        }
      ],
      "stateMutability": "view",
      "type": "function"
    },
    {
      "inputs": [],
      "name": "owner",
      "outputs": [
        {
          "internalType": "address",
          "name": "",
          "type": "address"
        }
      ],
      "stateMutability": "view",
      "type": "function"
    },
    {
      "inputs": [
        {
          "internalType": "address",
          "name": "to",
          "type": "address"
        },
        {
          "internalType": "uint256",
          "name": "amount",
          "type": "uint256"
        }
      ],
      "name": "ownerMint",
      "outputs": [],
      "stateMutability": "nonpayable",
      "type": "function"
    },
    {
      "inputs": [
        {
          "internalType": "address",
          "name": "tokenAddress",
          "type": "address"
        },
        {
          "internalType": "uint256",
          "name": "amount",
          "type": "uint256"
        }
      ],
      "name": "recoverTokens",
      "outputs": [],
      "stateMutability": "nonpayable",
      "type": "function"
    },
    {
      "inputs": [],
      "name": "renounceOwnership",
      "outputs": [],
      "stateMutability": "nonpayable",
      "type": "function"
    },
    {
      "inputs": [],
      "name": "sellTaxPhase1",
      "outputs": [
        {
          "internalType": "uint8",
          "name": "",
          "type": "uint8"
        }
      ],
      "stateMutability": "view",
      "type": "function"
    },
    {
      "inputs": [],
      "name": "sellTaxPhase2",
      "outputs": [
        {
          "internalType": "uint8",
          "name": "",
          "type": "uint8"
        }
      ],
      "stateMutability": "view",
      "type": "function"
    },
    {
      "inputs": [
        {
          "internalType": "address",
          "name": "pair",
          "type": "address"
        },
        {
          "internalType": "bool",
          "name": "enabled",
          "type": "bool"
        }
      ],
      "name": "setDexPair",
      "outputs": [],
      "stateMutability": "nonpayable",
      "type": "function"
    },
    {
      "inputs": [
        {
          "internalType": "address",
          "name": "_minterAddress",
          "type": "address"
        }
      ],
      "name": "setMinterContract",
      "outputs": [],
      "stateMutability": "nonpayable",
      "type": "function"
    },
    {
      "inputs": [
        {
          "internalType": "uint256",
          "name": "_timestamp",
          "type": "uint256"
        }
      ],
      "name": "setTaxPhaseSwitchTimestamp",
      "outputs": [],
      "stateMutability": "nonpayable",
      "type": "function"
    },
    {
      "inputs": [
        {
          "internalType": "address",
          "name": "_treasuryAddress",
          "type": "address"
        }
      ],
      "name": "setTreasuryDistributor",
      "outputs": [],
      "stateMutability": "nonpayable",
      "type": "function"
    },
    {
      "inputs": [
        {
          "internalType": "address",
          "name": "_tokenAddress",
          "type": "address"
        }
      ],
      "name": "setWrappedNativeToken",
      "outputs": [],
      "stateMutability": "nonpayable",
      "type": "function"
    },
    {
      "inputs": [],
      "name": "symbol",
      "outputs": [
        {
          "internalType": "string",
          "name": "",
          "type": "string"
        }
      ],
      "stateMutability": "view",
      "type": "function"
    },
    {
      "inputs": [],
      "name": "taxPhaseSwitchTimestamp",
      "outputs": [
        {
          "internalType": "uint256",
          "name": "",
          "type": "uint256"
        }
      ],
      "stateMutability": "view",
      "type": "function"
    },
    {
      "inputs": [],
      "name": "totalSupply",
      "outputs": [
        {
          "internalType": "uint256",
          "name": "",
          "type": "uint256"
        }
      ],
      "stateMutability": "view",
      "type": "function"
    },
    {
      "inputs": [
        {
          "internalType": "address",
          "name": "to",
          "type": "address"
        },
        {
          "internalType": "uint256",
          "name": "amount",
          "type": "uint256"
        }
      ],
      "name": "transfer",
      "outputs": [
        {
          "internalType": "bool",
          "name": "",
          "type": "bool"
        }
      ],
      "stateMutability": "nonpayable",
      "type": "function"
    },
    {
      "inputs": [
        {
          "internalType": "address",
          "name": "from",
          "type": "address"
        },
        {
          "internalType": "address",
          "name": "to",
          "type": "address"
        },
        {
          "internalType": "uint256",
          "name": "amount",
          "type": "uint256"
        }
      ],
      "name": "transferFrom",
      "outputs": [
        {
          "internalType": "bool",
          "name": "",
          "type": "bool"
        }
      ],
      "stateMutability": "nonpayable",
      "type": "function"
    },
    {
      "inputs": [
        {
          "internalType": "address",
          "name": "newOwner",
          "type": "address"
        }
      ],
      "name": "transferOwnership",
      "outputs": [],
      "stateMutability": "nonpayable",
      "type": "function"
    },
    {
      "inputs": [],
      "name": "treasuryDistributor",
      "outputs": [
        {
          "internalType": "address",
          "name": "",
          "type": "address"
        }
      ],
      "stateMutability": "view",
      "type": "function"
    },
    {
      "inputs": [],
      "name": "uniswapV2Router",
      "outputs": [
        {
          "internalType": "address",
          "name": "",
          "type": "address"
        }
      ],
      "stateMutability": "view",
      "type": "function"
    },
    {
      "inputs": [],
      "name": "wrappedNativeToken",
      "outputs": [
        {
          "internalType": "address",
          "name": "",
          "type": "address"
        }
      ],
      "stateMutability": "view",
      "type": "function"
    }
  ],
  "bytecode": "0x60806040526005805463ffffffff60a01b19166280020160a11b1790553480156200002957600080fd5b5060405162001793380380620017938339810160408190526200004c916200025b565b604080518082018252600a81526929b632b2b81021b7b4b760b11b602080830191825283518085019094526008845267534c454550494e4760c01b9084015281519192916200009e91600391620001b5565b508051620000b4906004906020840190620001b5565b505050620000d1620000cb6200015f60201b60201c565b62000163565b600780546001600160a01b0319166001600160a01b038316179055620000fc426301e133806200028d565b6006556001600c6000620001186005546001600160a01b031690565b6001600160a01b0316815260208082019290925260409081016000908120805494151560ff19958616179055308152600c90925290208054909116600117905550620002f1565b3390565b600580546001600160a01b038381166001600160a01b0319831681179093556040519116919082907f8be0079c531659141344cd1fd0a4f28419497f9722a3daafe3b4186f6b6457e090600090a35050565b828054620001c390620002b4565b90600052602060002090601f016020900481019282620001e7576000855562000232565b82601f106200020257805160ff191683800117855562000232565b8280016001018555821562000232579182015b828111156200023257825182559160200191906001019062000215565b506200024092915062000244565b5090565b5b8082111562000240576000815560010162000245565b6000602082840312156200026e57600080fd5b81516001600160a01b03811681146200028657600080fd5b9392505050565b60008219821115620002af57634e487b7160e01b600052601160045260246000fd5b500190565b600181811c90821680620002c957607f821691505b60208210811415620002eb57634e487b7160e01b600052602260045260246000fd5b50919050565b61149280620003016000396000f3fe608060405234801561001057600080fd5b506004361061021c5760003560e01c806365d1490311610125578063a4cb4101116100ad578063dd62ed3e1161007c578063dd62ed3e146104c0578063e50daa4f146104d3578063e55648f4146104e7578063ea2f0b37146104fa578063f2fde38b1461050d57600080fd5b8063a4cb410114610472578063a9059cbb14610486578063bcb42b9614610499578063da058ae3146104ad57600080fd5b806381749a8a116100f457806381749a8a146104205780638da5cb5b1461043357806392f002331461044457806395d89b4114610457578063a457c2d71461045f57600080fd5b806365d14903146103d357806370a08231146103dc578063715018a614610405578063791b233c1461040d57600080fd5b8063313ce567116101a857806340c10f191161017757806340c10f1914610363578063437823ec14610376578063484b973c14610389578063489313521461039c5780635342acb4146103b057600080fd5b8063313ce5671461031357806338478ae71461031a578063395093511461032d578063400099271461034057600080fd5b806317fcb39b116101ef57806317fcb39b146102a257806318160ddd146102b5578063187648c3146102c75780631ec6996c146102ed57806323b872dd1461030057600080fd5b8063069c9fae1461022157806306fdde0314610236578063095ea7b3146102545780631694505e14610277575b600080fd5b61023461022f366004611210565b610520565b005b61023e610635565b60405161024b919061123a565b60405180910390f35b610267610262366004611210565b6106c7565b604051901515815260200161024b565b60075461028a906001600160a01b031681565b6040516001600160a01b03909116815260200161024b565b600a5461028a906001600160a01b031681565b6002545b60405190815260200161024b565b6005546102db90600160a01b900460ff1681565b60405160ff909116815260200161024b565b6102346102fb36600461128f565b6106e1565b61026761030e3660046112a8565b6106ee565b60126102db565b6102346103283660046112e4565b610712565b61026761033b366004611210565b610754565b61026761034e3660046112e4565b600b6020526000908152604090205460ff1681565b610234610371366004611210565b610776565b6102346103843660046112e4565b61085f565b610234610397366004611210565b61088b565b6102b96c7e37be2022c0914b268000000081565b6102676103be3660046112e4565b600c6020526000908152604090205460ff1681565b6102b960065481565b6102b96103ea3660046112e4565b6001600160a01b031660009081526020819052604090205490565b610234610916565b61023461041b3660046112e4565b61092a565b60085461028a906001600160a01b031681565b6005546001600160a01b031661028a565b60095461028a906001600160a01b031681565b61023e61096c565b61026761046d366004611210565b61097b565b6005546102db90600160a81b900460ff1681565b610267610494366004611210565b6109f6565b6005546102db90600160b01b900460ff1681565b6102346104bb3660046112e4565b610a04565b6102b96104ce366004611306565b610a2e565b6005546102db90600160b81b900460ff1681565b6102346104f5366004611347565b610a59565b6102346105083660046112e4565b610a8c565b61023461051b3660046112e4565b610ab5565b610528610b2e565b6001600160a01b03821630141561059e5760405162461bcd60e51b815260206004820152602f60248201527f534c4545503a2043616e6e6f74207265636f7665722074686520636f6e74726160448201526e31ba13b99037bbb7103a37b5b2b71760891b60648201526084015b60405180910390fd5b816001600160a01b031663a9059cbb6105bf6005546001600160a01b031690565b6040516001600160e01b031960e084901b1681526001600160a01b039091166004820152602481018490526044016020604051808303816000875af115801561060c573d6000803e3d6000fd5b505050506040513d601f19601f82011682018060405250810190610630919061137e565b505050565b6060600380546106449061139b565b80601f01602080910402602001604051908101604052809291908181526020018280546106709061139b565b80156106bd5780601f10610692576101008083540402835291602001916106bd565b820191906000526020600020905b8154815290600101906020018083116106a057829003601f168201915b5050505050905090565b6000336106d5818585610b88565b60019150505b92915050565b6106e9610b2e565b600655565b6000336106fc858285610cac565b610707858585610d26565b506001949350505050565b61071a610b2e565b600980546001600160a01b039092166001600160a01b0319909216821790556000908152600c60205260409020805460ff19166001179055565b6000336106d58185856107678383610a2e565b61077191906113ec565b610b88565b6009546001600160a01b031633146107e15760405162461bcd60e51b815260206004820152602860248201527f534c4545503a2043616c6c6572206973206e6f7420746865206d696e7465722060448201526718dbdb9d1c9858dd60c21b6064820152608401610595565b6c7e37be2022c0914b2680000000816107f960025490565b61080391906113ec565b11156108515760405162461bcd60e51b815260206004820181905260248201527f534c4545503a20546f74616c20737570706c79206361702065786365656465646044820152606401610595565b61085b8282610e04565b5050565b610867610b2e565b6001600160a01b03166000908152600c60205260409020805460ff19166001179055565b610893610b2e565b6c7e37be2022c0914b2680000000816108ab60025490565b6108b591906113ec565b11156108515760405162461bcd60e51b815260206004820152602a60248201527f534c4545503a20546f74616c20737570706c792063617020666f72206f776e656044820152691c88195e18d95959195960b21b6064820152608401610595565b61091e610b2e565b6109286000610ec3565b565b610932610b2e565b600880546001600160a01b039092166001600160a01b0319909216821790556000908152600c60205260409020805460ff19166001179055565b6060600480546106449061139b565b600033816109898286610a2e565b9050838110156109e95760405162461bcd60e51b815260206004820152602560248201527f45524332303a2064656372656173656420616c6c6f77616e63652062656c6f77604482015264207a65726f60d81b6064820152608401610595565b6107078286868403610b88565b6000336106d5818585610d26565b610a0c610b2e565b600a80546001600160a01b0319166001600160a01b0392909216919091179055565b6001600160a01b03918216600090815260016020908152604080832093909416825291909152205490565b610a61610b2e565b6001600160a01b03919091166000908152600b60205260409020805460ff1916911515919091179055565b610a94610b2e565b6001600160a01b03166000908152600c60205260409020805460ff19169055565b610abd610b2e565b6001600160a01b038116610b225760405162461bcd60e51b815260206004820152602660248201527f4f776e61626c653a206e6577206f776e657220697320746865207a65726f206160448201526564647265737360d01b6064820152608401610595565b610b2b81610ec3565b50565b6005546001600160a01b031633146109285760405162461bcd60e51b815260206004820181905260248201527f4f776e61626c653a2063616c6c6572206973206e6f7420746865206f776e65726044820152606401610595565b6001600160a01b038316610bea5760405162461bcd60e51b8152602060048201526024808201527f45524332303a20617070726f76652066726f6d20746865207a65726f206164646044820152637265737360e01b6064820152608401610595565b6001600160a01b038216610c4b5760405162461bcd60e51b815260206004820152602260248201527f45524332303a20617070726f766520746f20746865207a65726f206164647265604482015261737360f01b6064820152608401610595565b6001600160a01b0383811660008181526001602090815260408083209487168084529482529182902085905590518481527f8c5be1e5ebec7d5bd14f71427d1e84f3dd0314c0f7b2291e5b200ac8c7c3b925910160405180910390a3505050565b6000610cb88484610a2e565b90506000198114610d205781811015610d135760405162461bcd60e51b815260206004820152601d60248201527f45524332303a20696e73756666696369656e7420616c6c6f77616e63650000006044820152606401610595565b610d208484848403610b88565b50505050565b600d5460ff1680610d4f57506001600160a01b0383166000908152600c602052604090205460ff165b80610d7257506001600160a01b0382166000908152600c602052604090205460ff165b15610d8257610630838383610f15565b6001600160a01b0382166000908152600b602052604090205460ff1680610dc157506001600160a01b0383166000908152600b602052604090205460ff165b15610df9576000610dd284846110b9565b905060ff811615610dee57610de98484848461113f565b610d20565b610d20848484610f15565b610630838383610f15565b6001600160a01b038216610e5a5760405162461bcd60e51b815260206004820152601f60248201527f45524332303a206d696e7420746f20746865207a65726f2061646472657373006044820152606401610595565b8060026000828254610e6c91906113ec565b90915550506001600160a01b038216600081815260208181526040808320805486019055518481527fddf252ad1be2c89b69c2b068fc378daa952ba7f163c4a11628f55a4df523b3ef910160405180910390a35050565b600580546001600160a01b038381166001600160a01b0319831681179093556040519116919082907f8be0079c531659141344cd1fd0a4f28419497f9722a3daafe3b4186f6b6457e090600090a35050565b6001600160a01b038316610f795760405162461bcd60e51b815260206004820152602560248201527f45524332303a207472616e736665722066726f6d20746865207a65726f206164604482015264647265737360d81b6064820152608401610595565b6001600160a01b038216610fdb5760405162461bcd60e51b815260206004820152602360248201527f45524332303a207472616e7366657220746f20746865207a65726f206164647260448201526265737360e81b6064820152608401610595565b6001600160a01b038316600090815260208190526040902054818110156110535760405162461bcd60e51b815260206004820152602660248201527f45524332303a207472616e7366657220616d6f756e7420657863656564732062604482015265616c616e636560d01b6064820152608401610595565b6001600160a01b03848116600081815260208181526040808320878703905593871680835291849020805487019055925185815290927fddf252ad1be2c89b69c2b068fc378daa952ba7f163c4a11628f55a4df523b3ef910160405180910390a3610d20565b6001600160a01b0382166000908152600b602052604081205460065460ff909116904210801561111157816110fa57600554600160a81b900460ff16611108565b600554600160a01b900460ff165b925050506106db565b8161112857600554600160b81b900460ff16611136565b600554600160b01b900460ff165b95945050505050565b6000606461115060ff841685611404565b61115a9190611423565b905060006111688285611445565b6008549091506111839087906001600160a01b031684610f15565b6008546040516391c05b0b60e01b8152600481018490526001600160a01b03909116906391c05b0b90602401600060405180830381600087803b1580156111c957600080fd5b505af11580156111dd573d6000803e3d6000fd5b505050506111ec868683610f15565b505050505050565b80356001600160a01b038116811461120b57600080fd5b919050565b6000806040838503121561122357600080fd5b61122c836111f4565b946020939093013593505050565b600060208083528351808285015260005b818110156112675785810183015185820160400152820161124b565b81811115611279576000604083870101525b50601f01601f1916929092016040019392505050565b6000602082840312156112a157600080fd5b5035919050565b6000806000606084860312156112bd57600080fd5b6112c6846111f4565b92506112d4602085016111f4565b9150604084013590509250925092565b6000602082840312156112f657600080fd5b6112ff826111f4565b9392505050565b6000806040838503121561131957600080fd5b611322836111f4565b9150611330602084016111f4565b90509250929050565b8015158114610b2b57600080fd5b6000806040838503121561135a57600080fd5b611363836111f4565b9150602083013561137381611339565b809150509250929050565b60006020828403121561139057600080fd5b81516112ff81611339565b600181811c908216806113af57607f821691505b602082108114156113d057634e487b7160e01b600052602260045260246000fd5b50919050565b634e487b7160e01b600052601160045260246000fd5b600082198211156113ff576113ff6113d6565b500190565b600081600019048311821515161561141e5761141e6113d6565b500290565b60008261144057634e487b7160e01b600052601260045260246000fd5b500490565b600082821015611457576114576113d6565b50039056fea2646970667358221220f6172ba3140359fc4ae28341428c0a61ad91a03ef355106f84a1d31a41b2909964736f6c634300080a0033",
  "linkReferences": {},
  "deployedLinkReferences": {}
}