{
  "_format": "hh-sol-artifact-1",
  "contractName": "StakingRewards",
  "sourceName": "contracts/StakingRewards.sol",
  "abi": [
    {
      "inputs": [
        {
          "internalType": "address",
          "name": "_sleepTokenAddress",
          "type": "address"
        }
      ],
      "stateMutability": "nonpayable",
      "type": "constructor"
    },
    {
      "anonymous": false,
      "inputs": [
        {
          "indexed": true,
          "internalType": "address",
          "name": "previousOwner",
          "type": "address"
        },
        {
          "indexed": true,
          "internalType": "address",
          "name": "newOwner",
          "type": "address"
        }
      ],
      "name": "OwnershipTransferred",
      "type": "event"
    },
    {
      "anonymous": false,
      "inputs": [
        {
          "indexed": true,
          "internalType": "address",
          "name": "user",
          "type": "address"
        },
        {
          "indexed": false,
          "internalType": "uint256",
          "name": "amount",
          "type": "uint256"
        }
      ],
      "name": "RewardClaimed",
      "type": "event"
    },
    {
      "anonymous": false,
      "inputs": [
        {
          "indexed": true,
          "internalType": "address",
          "name": "from",
          "type": "address"
        },
        {
          "indexed": false,
          "internalType": "uint256",
          "name": "amount",
          "type": "uint256"
        }
      ],
      "name": "RewardDeposited",
      "type": "event"
    },
    {
      "anonymous": false,
      "inputs": [
        {
          "indexed": false,
          "internalType": "uint256",
          "name": "totalAmount",
          "type": "uint256"
        }
      ],
      "name": "RewardsDistributed",
      "type": "event"
    },
    {
      "anonymous": false,
      "inputs": [
        {
          "indexed": true,
          "internalType": "address",
          "name": "user",
          "type": "address"
        },
        {
          "indexed": false,
          "internalType": "uint256",
          "name": "amount",
          "type": "uint256"
        }
      ],
      "name": "SleepRewardClaimed",
      "type": "event"
    },
    {
      "anonymous": false,
      "inputs": [
        {
          "indexed": false,
          "internalType": "uint256",
          "name": "totalAmount",
          "type": "uint256"
        }
      ],
      "name": "SleepRewardsDistributed",
      "type": "event"
    },
    {
      "anonymous": false,
      "inputs": [
        {
          "indexed": true,
          "internalType": "address",
          "name": "user",
          "type": "address"
        },
        {
          "indexed": false,
          "internalType": "uint256",
          "name": "amount",
          "type": "uint256"
        }
      ],
      "name": "Staked",
      "type": "event"
    },
    {
      "anonymous": false,
      "inputs": [
        {
          "indexed": true,
          "internalType": "address",
          "name": "user",
          "type": "address"
        },
        {
          "indexed": false,
          "internalType": "uint256",
          "name": "amount",
          "type": "uint256"
        }
      ],
      "name": "Unstaked",
      "type": "event"
    },
    {
      "inputs": [],
      "name": "VETERAN_STATUS_SECONDS",
      "outputs": [
        {
          "internalType": "uint256",
          "name": "",
          "type": "uint256"
        }
      ],
      "stateMutability": "view",
      "type": "function"
    },
    {
      "inputs": [
        {
          "internalType": "uint256",
          "name": "fromIndex",
          "type": "uint256"
        },
        {
          "internalType": "uint256",
          "name": "toIndex",
          "type": "uint256"
        }
      ],
      "name": "calculateBonusPoolBatch",
      "outputs": [],
      "stateMutability": "nonpayable",
      "type": "function"
    },
    {
      "inputs": [],
      "name": "claimReward",
      "outputs": [],
      "stateMutability": "nonpayable",
      "type": "function"
    },
    {
      "inputs": [],
      "name": "claimSleepReward",
      "outputs": [],
      "stateMutability": "nonpayable",
      "type": "function"
    },
    {
      "inputs": [],
      "name": "currentDistributionId",
      "outputs": [
        {
          "internalType": "uint256",
          "name": "",
          "type": "uint256"
        }
      ],
      "stateMutability": "view",
      "type": "function"
    },
    {
      "inputs": [],
      "name": "depositReward",
      "outputs": [],
      "stateMutability": "payable",
      "type": "function"
    },
    {
      "inputs": [
        {
          "internalType": "uint256",
          "name": "fromIndex",
          "type": "uint256"
        },
        {
          "internalType": "uint256",
          "name": "toIndex",
          "type": "uint256"
        }
      ],
      "name": "distributeRewards",
      "outputs": [],
      "stateMutability": "nonpayable",
      "type": "function"
    },
    {
      "inputs": [
        {
          "internalType": "uint256",
          "name": "fromIndex",
          "type": "uint256"
        },
        {
          "internalType": "uint256",
          "name": "toIndex",
          "type": "uint256"
        }
      ],
      "name": "distributeSleepRewards",
      "outputs": [],
      "stateMutability": "nonpayable",
      "type": "function"
    },
    {
      "inputs": [
        {
          "internalType": "uint256",
          "name": "",
          "type": "uint256"
        }
      ],
      "name": "distributions",
      "outputs": [
        {
          "internalType": "uint256",
          "name": "okbPool",
          "type": "uint256"
        },
        {
          "internalType": "uint256",
          "name": "bonusPool",
          "type": "uint256"
        },
        {
          "internalType": "uint256",
          "name": "veteranTotalStake",
          "type": "uint256"
        },
        {
          "internalType": "bool",
          "name": "calculationFinalized",
          "type": "bool"
        }
      ],
      "stateMutability": "view",
      "type": "function"
    },
    {
      "inputs": [],
      "name": "finalizeCalculation",
      "outputs": [],
      "stateMutability": "nonpayable",
      "type": "function"
    },
    {
      "inputs": [
        {
          "internalType": "address",
          "name": "",
          "type": "address"
        }
      ],
      "name": "isStaker",
      "outputs": [
        {
          "internalType": "bool",
          "name": "",
          "type": "bool"
        }
      ],
      "stateMutability": "view",
      "type": "function"
    },
    {
      "inputs": [],
      "name": "overlordsVault",
      "outputs": [
        {
          "internalType": "uint256",
          "name": "",
          "type": "uint256"
        }
      ],
      "stateMutability": "view",
      "type": "function"
    },
    {
      "inputs": [],
      "name": "owner",
      "outputs": [
        {
          "internalType": "address",
          "name": "",
          "type": "address"
        }
      ],
      "stateMutability": "view",
      "type": "function"
    },
    {
      "inputs": [
        {
          "internalType": "address",
          "name": "tokenAddress",
          "type": "address"
        },
        {
          "internalType": "uint256",
          "name": "amount",
          "type": "uint256"
        }
      ],
      "name": "recoverTokens",
      "outputs": [],
      "stateMutability": "nonpayable",
      "type": "function"
    },
    {
      "inputs": [],
      "name": "renounceOwnership",
      "outputs": [],
      "stateMutability": "nonpayable",
      "type": "function"
    },
    {
      "inputs": [],
      "name": "rewardPool",
      "outputs": [
        {
          "internalType": "uint256",
          "name": "",
          "type": "uint256"
        }
      ],
      "stateMutability": "view",
      "type": "function"
    },
    {
      "inputs": [
        {
          "internalType": "address",
          "name": "user",
          "type": "address"
        },
        {
          "internalType": "uint256",
          "name": "newSinceTimestamp",
          "type": "uint256"
        }
      ],
      "name": "setSinceTimestamp",
      "outputs": [],
      "stateMutability": "nonpayable",
      "type": "function"
    },
    {
      "inputs": [],
      "name": "sleepToken",
      "outputs": [
        {
          "internalType": "contract IERC20",
          "name": "",
          "type": "address"
        }
      ],
      "stateMutability": "view",
      "type": "function"
    },
    {
      "inputs": [
        {
          "internalType": "uint256",
          "name": "amount",
          "type": "uint256"
        }
      ],
      "name": "stake",
      "outputs": [],
      "stateMutability": "nonpayable",
      "type": "function"
    },
    {
      "inputs": [
        {
          "internalType": "uint256",
          "name": "",
          "type": "uint256"
        }
      ],
      "name": "stakers",
      "outputs": [
        {
          "internalType": "address",
          "name": "",
          "type": "address"
        }
      ],
      "stateMutability": "view",
      "type": "function"
    },
    {
      "inputs": [],
      "name": "startNewDistribution",
      "outputs": [],
      "stateMutability": "nonpayable",
      "type": "function"
    },
    {
      "inputs": [],
      "name": "totalStaked",
      "outputs": [
        {
          "internalType": "uint256",
          "name": "",
          "type": "uint256"
        }
      ],
      "stateMutability": "view",
      "type": "function"
    },
    {
      "inputs": [
        {
          "internalType": "address",
          "name": "newOwner",
          "type": "address"
        }
      ],
      "name": "transferOwnership",
      "outputs": [],
      "stateMutability": "nonpayable",
      "type": "function"
    },
    {
      "inputs": [],
      "name": "unstake",
      "outputs": [],
      "stateMutability": "nonpayable",
      "type": "function"
    },
    {
      "inputs": [
        {
          "internalType": "address",
          "name": "",
          "type": "address"
        }
      ],
      "name": "userRewards",
      "outputs": [
        {
          "internalType": "uint256",
          "name": "",
          "type": "uint256"
        }
      ],
      "stateMutability": "view",
      "type": "function"
    },
    {
      "inputs": [
        {
          "internalType": "address",
          "name": "",
          "type": "address"
        }
      ],
      "name": "userSleepRewards",
      "outputs": [
        {
          "internalType": "uint256",
          "name": "",
          "type": "uint256"
        }
      ],
      "stateMutability": "view",
      "type": "function"
    },
    {
      "inputs": [
        {
          "internalType": "address",
          "name": "",
          "type": "address"
        }
      ],
      "name": "userStakes",
      "outputs": [
        {
          "internalType": "uint256",
          "name": "amount",
          "type": "uint256"
        },
        {
          "internalType": "uint256",
          "name": "sinceTimestamp",
          "type": "uint256"
        }
      ],
      "stateMutability": "view",
      "type": "function"
    },
    {
      "stateMutability": "payable",
      "type": "receive"
    }
  ],
  "bytecode": "0x608060405234801561001057600080fd5b5060405162001a4f38038062001a4f83398101604081905261003191610120565b61003a336100d0565b600180556001600160a01b0381166100ab5760405162461bcd60e51b815260206004820152602a60248201527f5374616b696e673a20536c656570546f6b656e20616464726573732063616e6e6044820152696f74206265207a65726f60b01b606482015260840160405180910390fd5b600280546001600160a01b0319166001600160a01b0392909216919091179055610150565b600080546001600160a01b038381166001600160a01b0319831681178455604051919092169283917f8be0079c531659141344cd1fd0a4f28419497f9722a3daafe3b4186f6b6457e09190a35050565b60006020828403121561013257600080fd5b81516001600160a01b038116811461014957600080fd5b9392505050565b6118ef80620001606000396000f3fe6080604052600436106101a05760003560e01c8063715018a6116100ec578063b88a802f1161008a578063e180b75811610064578063e180b758146104c9578063f2fde38b146104e9578063f575b97d14610509578063fd5e6dd11461053657600080fd5b8063b88a802f14610474578063b8ab01ba14610489578063df6c39fb146104a957600080fd5b80638da5cb5b116100c65780638da5cb5b146103d85780638da7ad23146103f65780639b77b62f1461043f578063a694fc3a1461045457600080fd5b8063715018a614610397578063780069e0146103ac578063817b1cd2146103c257600080fd5b80634487d3df116101595780635e24b6cf116101335780635e24b6cf146103225780635ec2dc8d1461033957806366666aa9146103415780636f1e85331461035757600080fd5b80634487d3df1461028657806347fe9343146102ed5780634d2d80951461030257600080fd5b80630660f1e8146101ac578063069c9fae146101ec57806307ed50031461020e5780630a339dc11461024657806322d4d9901461025c5780632def66201461027157600080fd5b366101a757005b600080fd5b3480156101b857600080fd5b506101d96101c73660046116ae565b60096020526000908152604090205481565b6040519081526020015b60405180910390f35b3480156101f857600080fd5b5061020c6102073660046116d0565b610556565b005b34801561021a57600080fd5b5060025461022e906001600160a01b031681565b6040516001600160a01b0390911681526020016101e3565b34801561025257600080fd5b506101d960085481565b34801561026857600080fd5b5061020c61066b565b34801561027d57600080fd5b5061020c610694565b34801561029257600080fd5b506102cb6102a13660046116fa565b600c6020526000908152604090208054600182015460028301546003909301549192909160ff1684565b60408051948552602085019390935291830152151560608201526080016101e3565b3480156102f957600080fd5b5061020c6107eb565b34801561030e57600080fd5b5061020c61031d366004611713565b610880565b34801561032e57600080fd5b506101d962278d0081565b61020c610a7a565b34801561034d57600080fd5b506101d960075481565b34801561036357600080fd5b506103876103723660046116ae565b60056020526000908152604090205460ff1681565b60405190151581526020016101e3565b3480156103a357600080fd5b5061020c610b18565b3480156103b857600080fd5b506101d9600b5481565b3480156103ce57600080fd5b506101d960065481565b3480156103e457600080fd5b506000546001600160a01b031661022e565b34801561040257600080fd5b5061042a6104113660046116ae565b6003602052600090815260409020805460019091015482565b604080519283526020830191909152016101e3565b34801561044b57600080fd5b5061020c610b2a565b34801561046057600080fd5b5061020c61046f3660046116fa565b610c5e565b34801561048057600080fd5b5061020c610e47565b34801561049557600080fd5b5061020c6104a43660046116d0565b610fa1565b3480156104b557600080fd5b5061020c6104c4366004611713565b61103b565b3480156104d557600080fd5b5061020c6104e4366004611713565b6112d0565b3480156104f557600080fd5b5061020c6105043660046116ae565b6114ee565b34801561051557600080fd5b506101d96105243660046116ae565b600a6020526000908152604090205481565b34801561054257600080fd5b5061022e6105513660046116fa565b611564565b61055e61158e565b6002546001600160a01b03838116911614156105d45760405162461bcd60e51b815260206004820152602a60248201527f5374616b696e673a2043616e6e6f74207265636f76657220746865207374616b60448201526934b733903a37b5b2b71760b11b60648201526084015b60405180910390fd5b816001600160a01b031663a9059cbb6105f56000546001600160a01b031690565b6040516001600160e01b031960e084901b1681526001600160a01b039091166004820152602481018490526044016020604051808303816000875af1158015610642573d6000803e3d6000fd5b505050506040513d601f19601f820116820180604052508101906106669190611735565b505050565b61067361158e565b600b546000908152600c60205260409020600301805460ff19166001179055565b61069c6115e8565b33600090815260036020526040902054806107045760405162461bcd60e51b815260206004820152602260248201527f5374616b696e673a20596f752068617665206e6f20746f6b656e73207374616b604482015261195960f21b60648201526084016105cb565b3360009081526003602052604081208181556001018190556006805483929061072e90849061176d565b909155505060025460405163a9059cbb60e01b8152336004820152602481018390526001600160a01b039091169063a9059cbb906044016020604051808303816000875af1158015610784573d6000803e3d6000fd5b505050506040513d601f19601f820116820180604052508101906107a89190611735565b5060405181815233907f0f5bb82176feb1b5e747e28471aa92156a04d9f3ab9f45f28e2d704232b93f75906020015b60405180910390a2506107e960018055565b565b6107f361158e565b6107fb6115e8565b6007548061084b5760405162461bcd60e51b815260206004820152601d60248201527f5374616b696e673a2052657761726420706f6f6c20697320656d70747900000060448201526064016105cb565b60006007819055600b80549161086083611784565b9091555050600b546000908152600c60205260409020556107e960018055565b61088861158e565b6108906115e8565b6006546002546040516370a0823160e01b8152306004820152600092916001600160a01b0316906370a0823190602401602060405180830381865afa1580156108dd573d6000803e3d6000fd5b505050506040513d601f19601f82011682018060405250810190610901919061179f565b61090b919061176d565b90506000811161096d5760405162461bcd60e51b815260206004820152602760248201527f5374616b696e673a204e6f20534c454550207265776172647320746f206469736044820152667472696275746560c81b60648201526084016105cb565b8183111561098d5760405162461bcd60e51b81526004016105cb906117b8565b60045482106109ae5760405162461bcd60e51b81526004016105cb90611809565b6006546109bb5750610a6d565b825b828111610a6a576000600482815481106109d9576109d961184a565b60009182526020808320909101546001600160a01b031680835260039091526040909120549091508015610a5557600654600090610a178387611860565b610a21919061187f565b6001600160a01b0384166000908152600a6020526040812080549293508392909190610a4e9084906118a1565b9091555050505b50508080610a6290611784565b9150506109bd565b50505b610a7660018055565b5050565b60003411610aca5760405162461bcd60e51b815260206004820181905260248201527f5374616b696e673a2043616e6e6f74206465706f73697420302072657761726460448201526064016105cb565b3460076000828254610adc91906118a1565b909155505060405134815233907f7dbc080e4530c8bcf265eb5c9a35ae096ca1eb607b7e802b96581ef4c5e1a7039060200160405180910390a2565b610b2061158e565b6107e96000611642565b610b326115e8565b336000908152600a602052604090205480610ba35760405162461bcd60e51b815260206004820152602b60248201527f5374616b696e673a20596f752068617665206e6f20534c45455020726577617260448201526a647320746f20636c61696d60a81b60648201526084016105cb565b336000818152600a602052604080822091909155600254905163a9059cbb60e01b81526004810192909252602482018390526001600160a01b03169063a9059cbb906044016020604051808303816000875af1158015610c07573d6000803e3d6000fd5b505050506040513d601f19601f82011682018060405250810190610c2b9190611735565b5060405181815233907fb82fa250d997a8f39fe231936e1c033d90f35c7d84651960da35da81b208c34b906020016107d7565b610c666115e8565b60008111610cb65760405162461bcd60e51b815260206004820152601760248201527f5374616b696e673a2043616e6e6f74207374616b65203000000000000000000060448201526064016105cb565b33600090815260036020526040902054610d4d5733600090815260036020908152604080832042600190910155600590915290205460ff16610d4d576004805460018181019092557f8a35acfbc15ff81a39ae7d344fd709f28e8600b4aa8c65c6b64bfe7fe36bd19b0180546001600160a01b031916339081179091556000908152600560205260409020805460ff191690911790555b3360009081526003602052604081208054839290610d6c9084906118a1565b925050819055508060066000828254610d8591906118a1565b90915550506002546040516323b872dd60e01b8152336004820152306024820152604481018390526001600160a01b03909116906323b872dd906064016020604051808303816000875af1158015610de1573d6000803e3d6000fd5b505050506040513d601f19601f82011682018060405250810190610e059190611735565b5060405181815233907f9e71bc8eea02a63969f509818f2dafb9254532904319f9dbda79b67bd34a5f3d9060200160405180910390a2610e4460018055565b50565b610e4f6115e8565b3360009081526009602052604090205480610eba5760405162461bcd60e51b815260206004820152602560248201527f5374616b696e673a20596f752068617665206e6f207265776172647320746f20604482015264636c61696d60d81b60648201526084016105cb565b336000818152600960205260408082208290555190919083908381818185875af1925050503d8060008114610f0b576040519150601f19603f3d011682016040523d82523d6000602084013e610f10565b606091505b5050905080610f615760405162461bcd60e51b815260206004820152601f60248201527f5374616b696e673a20526577617264207472616e73666572206661696c65640060448201526064016105cb565b60405182815233907f106f923f993c2149d49b4255ff723acafa1f2d94393f561d3eda32ae348f72419060200160405180910390a250506107e960018055565b610fa961158e565b6001600160a01b03821660009081526003602052604090205461101c5760405162461bcd60e51b815260206004820152602560248201527f5374616b696e673a205573657220686173206e6f207374616b6520746f206d6f6044820152643234b33c9760d91b60648201526084016105cb565b6001600160a01b03909116600090815260036020526040902060010155565b61104361158e565b61104b6115e8565b600b546000908152600c60205260409020600381015460ff166110d65760405162461bcd60e51b815260206004820152603860248201527f5374616b696e673a2043616c63756c6174696f6e206e6f742066696e616c697a60448201527f656420666f72207468697320646973747269627574696f6e000000000000000060648201526084016105cb565b818311156110f65760405162461bcd60e51b81526004016105cb906117b8565b60045482106111175760405162461bcd60e51b81526004016105cb90611809565b6006546111245750610a6d565b825b828111610a6a576000600482815481106111425761114261184a565b60009182526020808320909101546001600160a01b0316808352600390915260409091205490915080156112bb5760006006548286600001546111859190611860565b61118f919061187f565b6001600160a01b03841660009081526003602052604090206001015490915062278d00906111bd904261176d565b10611265576001600160a01b038316600090815260096020526040812080548392906111ea9084906118a1565b9091555050600185015415801590611206575060008560020154115b1561126057600085600201548387600101546112229190611860565b61122c919061187f565b6001600160a01b0385166000908152600960205260408120805492935083929091906112599084906118a1565b9091555050505b6112b9565b60006064611274836014611860565b61127e919061187f565b905061128a818361176d565b6001600160a01b038516600090815260096020526040812080549091906112b29084906118a1565b9091555050505b505b505080806112c890611784565b915050611126565b6112d861158e565b6112e06115e8565b600b546000908152600c60205260409020805461133f5760405162461bcd60e51b815260206004820152601f60248201527f5374616b696e673a204e6f2061637469766520646973747269627574696f6e0060448201526064016105cb565b600381015460ff16156113a35760405162461bcd60e51b815260206004820152602660248201527f5374616b696e673a2043616c63756c6174696f6e20616c72656164792066696e604482015265185b1a5e995960d21b60648201526084016105cb565b818311156113c35760405162461bcd60e51b81526004016105cb906117b8565b60045482106113e45760405162461bcd60e51b81526004016105cb90611809565b825b828111610a6a576000600482815481106114025761140261184a565b60009182526020808320909101546001600160a01b0316808352600390915260409091205490915080156114d95760006006548286600001546114459190611860565b61144f919061187f565b6001600160a01b03841660009081526003602052604090206001015490915062278d009061147d904261176d565b106114a1578185600201600082825461149691906118a1565b909155506114d79050565b600060646114b0836014611860565b6114ba919061187f565b9050808660010160008282546114d091906118a1565b9091555050505b505b505080806114e690611784565b9150506113e6565b6114f661158e565b6001600160a01b03811661155b5760405162461bcd60e51b815260206004820152602660248201527f4f776e61626c653a206e6577206f776e657220697320746865207a65726f206160448201526564647265737360d01b60648201526084016105cb565b610e4481611642565b6004818154811061157457600080fd5b6000918252602090912001546001600160a01b0316905081565b6000546001600160a01b031633146107e95760405162461bcd60e51b815260206004820181905260248201527f4f776e61626c653a2063616c6c6572206973206e6f7420746865206f776e657260448201526064016105cb565b6002600154141561163b5760405162461bcd60e51b815260206004820152601f60248201527f5265656e7472616e637947756172643a207265656e7472616e742063616c6c0060448201526064016105cb565b6002600155565b600080546001600160a01b038381166001600160a01b0319831681178455604051919092169283917f8be0079c531659141344cd1fd0a4f28419497f9722a3daafe3b4186f6b6457e09190a35050565b80356001600160a01b03811681146116a957600080fd5b919050565b6000602082840312156116c057600080fd5b6116c982611692565b9392505050565b600080604083850312156116e357600080fd5b6116ec83611692565b946020939093013593505050565b60006020828403121561170c57600080fd5b5035919050565b6000806040838503121561172657600080fd5b50508035926020909101359150565b60006020828403121561174757600080fd5b815180151581146116c957600080fd5b634e487b7160e01b600052601160045260246000fd5b60008282101561177f5761177f611757565b500390565b600060001982141561179857611798611757565b5060010190565b6000602082840312156117b157600080fd5b5051919050565b60208082526031908201527f5374616b696e673a2066726f6d496e6465782063616e6e6f74206265206772656040820152700c2e8cae440e8d0c2dc40e8de92dcc8caf607b1b606082015260800190565b60208082526021908201527f5374616b696e673a20746f496e646578206973206f7574206f6620626f756e646040820152607360f81b606082015260800190565b634e487b7160e01b600052603260045260246000fd5b600081600019048311821515161561187a5761187a611757565b500290565b60008261189c57634e487b7160e01b600052601260045260246000fd5b500490565b600082198211156118b4576118b4611757565b50019056fea2646970667358221220a259f405169e247adfe455d79867ae0f539dfcbf06d94bfc7be71fa448319e0c64736f6c634300080a0033",
  "linkReferences": {},
  "deployedLinkReferences": {}
}