{
  "_format": "hh-sol-artifact-1",
  "contractName": "TokenMinter",
  "sourceName": "contracts/TokenMinter.sol",
  "abi": [
    {
      "inputs": [
        {
          "internalType": "address",
          "name": "_sleepTokenAddress",
          "type": "address"
        },
        {
          "internalType": "address",
          "name": "_treasuryAddress",
          "type": "address"
        }
      ],
      "stateMutability": "nonpayable",
      "type": "constructor"
    },
    {
      "anonymous": false,
      "inputs": [
        {
          "indexed": true,
          "internalType": "address",
          "name": "owner",
          "type": "address"
        },
        {
          "indexed": true,
          "internalType": "address",
          "name": "approved",
          "type": "address"
        },
        {
          "indexed": true,
          "internalType": "uint256",
          "name": "tokenId",
          "type": "uint256"
        }
      ],
      "name": "Approval",
      "type": "event"
    },
    {
      "anonymous": false,
      "inputs": [
        {
          "indexed": true,
          "internalType": "address",
          "name": "owner",
          "type": "address"
        },
        {
          "indexed": true,
          "internalType": "address",
          "name": "operator",
          "type": "address"
        },
        {
          "indexed": false,
          "internalType": "bool",
          "name": "approved",
          "type": "bool"
        }
      ],
      "name": "ApprovalForAll",
      "type": "event"
    },
    {
      "anonymous": false,
      "inputs": [
        {
          "indexed": true,
          "internalType": "uint256",
          "name": "tokenId",
          "type": "uint256"
        },
        {
          "indexed": false,
          "internalType": "uint256",
          "name": "newMaturityTs",
          "type": "uint256"
        }
      ],
      "name": "MaturityUpdated",
      "type": "event"
    },
    {
      "anonymous": false,
      "inputs": [
        {
          "indexed": true,
          "internalType": "address",
          "name": "previousOwner",
          "type": "address"
        },
        {
          "indexed": true,
          "internalType": "address",
          "name": "newOwner",
          "type": "address"
        }
      ],
      "name": "OwnershipTransferred",
      "type": "event"
    },
    {
      "anonymous": false,
      "inputs": [
        {
          "indexed": true,
          "internalType": "address",
          "name": "minter",
          "type": "address"
        },
        {
          "indexed": false,
          "internalType": "uint256",
          "name": "term",
          "type": "uint256"
        },
        {
          "indexed": false,
          "internalType": "uint256",
          "name": "count",
          "type": "uint256"
        },
        {
          "indexed": false,
          "internalType": "uint256",
          "name": "feePaid",
          "type": "uint256"
        },
        {
          "indexed": false,
          "internalType": "uint256",
          "name": "expectedFee",
          "type": "uint256"
        }
      ],
      "name": "RankClaimed",
      "type": "event"
    },
    {
      "anonymous": false,
      "inputs": [
        {
          "indexed": true,
          "internalType": "uint256",
          "name": "tokenId",
          "type": "uint256"
        },
        {
          "indexed": true,
          "internalType": "address",
          "name": "claimer",
          "type": "address"
        },
        {
          "indexed": false,
          "internalType": "bool",
          "name": "liquidated",
          "type": "bool"
        },
        {
          "indexed": false,
          "internalType": "uint256",
          "name": "rewardAmount",
          "type": "uint256"
        },
        {
          "indexed": false,
          "internalType": "uint256",
          "name": "penaltyAmount",
          "type": "uint256"
        }
      ],
      "name": "RewardClaimed",
      "type": "event"
    },
    {
      "anonymous": false,
      "inputs": [
        {
          "indexed": true,
          "internalType": "address",
          "name": "from",
          "type": "address"
        },
        {
          "indexed": true,
          "internalType": "address",
          "name": "to",
          "type": "address"
        },
        {
          "indexed": true,
          "internalType": "uint256",
          "name": "tokenId",
          "type": "uint256"
        }
      ],
      "name": "Transfer",
      "type": "event"
    },
    {
      "inputs": [],
      "name": "EAA",
      "outputs": [
        {
          "internalType": "uint256",
          "name": "",
          "type": "uint256"
        }
      ],
      "stateMutability": "view",
      "type": "function"
    },
    {
      "inputs": [],
      "name": "MAX_AMPLIFIER_DAYS",
      "outputs": [
        {
          "internalType": "uint256",
          "name": "",
          "type": "uint256"
        }
      ],
      "stateMutability": "view",
      "type": "function"
    },
    {
      "inputs": [],
      "name": "MAX_PENALTY_PCT",
      "outputs": [
        {
          "internalType": "uint256",
          "name": "",
          "type": "uint256"
        }
      ],
      "stateMutability": "view",
      "type": "function"
    },
    {
      "inputs": [],
      "name": "MAX_TERM_DAYS",
      "outputs": [
        {
          "internalType": "uint256",
          "name": "",
          "type": "uint256"
        }
      ],
      "stateMutability": "view",
      "type": "function"
    },
    {
      "inputs": [],
      "name": "MINT_FEE",
      "outputs": [
        {
          "internalType": "uint256",
          "name": "",
          "type": "uint256"
        }
      ],
      "stateMutability": "view",
      "type": "function"
    },
    {
      "inputs": [],
      "name": "MIN_DECAY_FACTOR_SCALED",
      "outputs": [
        {
          "internalType": "uint256",
          "name": "",
          "type": "uint256"
        }
      ],
      "stateMutability": "view",
      "type": "function"
    },
    {
      "inputs": [],
      "name": "SECONDS_IN_DAY",
      "outputs": [
        {
          "internalType": "uint256",
          "name": "",
          "type": "uint256"
        }
      ],
      "stateMutability": "view",
      "type": "function"
    },
    {
      "inputs": [],
      "name": "WITHDRAWAL_WINDOW_DAYS",
      "outputs": [
        {
          "internalType": "uint256",
          "name": "",
          "type": "uint256"
        }
      ],
      "stateMutability": "view",
      "type": "function"
    },
    {
      "inputs": [
        {
          "internalType": "address",
          "name": "to",
          "type": "address"
        },
        {
          "internalType": "uint256",
          "name": "tokenId",
          "type": "uint256"
        }
      ],
      "name": "approve",
      "outputs": [],
      "stateMutability": "nonpayable",
      "type": "function"
    },
    {
      "inputs": [
        {
          "internalType": "address",
          "name": "owner",
          "type": "address"
        }
      ],
      "name": "balanceOf",
      "outputs": [
        {
          "internalType": "uint256",
          "name": "",
          "type": "uint256"
        }
      ],
      "stateMutability": "view",
      "type": "function"
    },
    {
      "inputs": [
        {
          "internalType": "uint256",
          "name": "tokenId",
          "type": "uint256"
        }
      ],
      "name": "claimFor",
      "outputs": [],
      "stateMutability": "nonpayable",
      "type": "function"
    },
    {
      "inputs": [
        {
          "internalType": "uint256",
          "name": "tokenId",
          "type": "uint256"
        }
      ],
      "name": "claimMintReward",
      "outputs": [],
      "stateMutability": "nonpayable",
      "type": "function"
    },
    {
      "inputs": [
        {
          "internalType": "uint256",
          "name": "term",
          "type": "uint256"
        },
        {
          "internalType": "uint256",
          "name": "count",
          "type": "uint256"
        }
      ],
      "name": "claimRank",
      "outputs": [],
      "stateMutability": "payable",
      "type": "function"
    },
    {
      "inputs": [],
      "name": "devWallet",
      "outputs": [
        {
          "internalType": "address",
          "name": "",
          "type": "address"
        }
      ],
      "stateMutability": "view",
      "type": "function"
    },
    {
      "inputs": [],
      "name": "genesisTs",
      "outputs": [
        {
          "internalType": "uint256",
          "name": "",
          "type": "uint256"
        }
      ],
      "stateMutability": "view",
      "type": "function"
    },
    {
      "inputs": [
        {
          "internalType": "uint256",
          "name": "tokenId",
          "type": "uint256"
        }
      ],
      "name": "getApproved",
      "outputs": [
        {
          "internalType": "address",
          "name": "",
          "type": "address"
        }
      ],
      "stateMutability": "view",
      "type": "function"
    },
    {
      "inputs": [],
      "name": "globalRank",
      "outputs": [
        {
          "internalType": "uint256",
          "name": "",
          "type": "uint256"
        }
      ],
      "stateMutability": "view",
      "type": "function"
    },
    {
      "inputs": [
        {
          "internalType": "address",
          "name": "owner",
          "type": "address"
        },
        {
          "internalType": "address",
          "name": "operator",
          "type": "address"
        }
      ],
      "name": "isApprovedForAll",
      "outputs": [
        {
          "internalType": "bool",
          "name": "",
          "type": "bool"
        }
      ],
      "stateMutability": "view",
      "type": "function"
    },
    {
      "inputs": [
        {
          "internalType": "uint256",
          "name": "",
          "type": "uint256"
        }
      ],
      "name": "mintPositions",
      "outputs": [
        {
          "internalType": "uint256",
          "name": "maturityTs",
          "type": "uint256"
        },
        {
          "internalType": "uint256",
          "name": "term",
          "type": "uint256"
        },
        {
          "internalType": "uint256",
          "name": "count",
          "type": "uint256"
        },
        {
          "internalType": "uint256",
          "name": "rank",
          "type": "uint256"
        },
        {
          "internalType": "uint256",
          "name": "amplifier",
          "type": "uint256"
        },
        {
          "internalType": "address",
          "name": "minter",
          "type": "address"
        }
      ],
      "stateMutability": "view",
      "type": "function"
    },
    {
      "inputs": [],
      "name": "name",
      "outputs": [
        {
          "internalType": "string",
          "name": "",
          "type": "string"
        }
      ],
      "stateMutability": "view",
      "type": "function"
    },
    {
      "inputs": [],
      "name": "owner",
      "outputs": [
        {
          "internalType": "address",
          "name": "",
          "type": "address"
        }
      ],
      "stateMutability": "view",
      "type": "function"
    },
    {
      "inputs": [
        {
          "internalType": "uint256",
          "name": "tokenId",
          "type": "uint256"
        }
      ],
      "name": "ownerOf",
      "outputs": [
        {
          "internalType": "address",
          "name": "",
          "type": "address"
        }
      ],
      "stateMutability": "view",
      "type": "function"
    },
    {
      "inputs": [
        {
          "internalType": "address",
          "name": "tokenAddress",
          "type": "address"
        },
        {
          "internalType": "uint256",
          "name": "amount",
          "type": "uint256"
        }
      ],
      "name": "recoverTokens",
      "outputs": [],
      "stateMutability": "nonpayable",
      "type": "function"
    },
    {
      "inputs": [],
      "name": "renounceOwnership",
      "outputs": [],
      "stateMutability": "nonpayable",
      "type": "function"
    },
    {
      "inputs": [
        {
          "internalType": "address",
          "name": "from",
          "type": "address"
        },
        {
          "internalType": "address",
          "name": "to",
          "type": "address"
        },
        {
          "internalType": "uint256",
          "name": "tokenId",
          "type": "uint256"
        }
      ],
      "name": "safeTransferFrom",
      "outputs": [],
      "stateMutability": "nonpayable",
      "type": "function"
    },
    {
      "inputs": [
        {
          "internalType": "address",
          "name": "from",
          "type": "address"
        },
        {
          "internalType": "address",
          "name": "to",
          "type": "address"
        },
        {
          "internalType": "uint256",
          "name": "tokenId",
          "type": "uint256"
        },
        {
          "internalType": "bytes",
          "name": "data",
          "type": "bytes"
        }
      ],
      "name": "safeTransferFrom",
      "outputs": [],
      "stateMutability": "nonpayable",
      "type": "function"
    },
    {
      "inputs": [
        {
          "internalType": "address",
          "name": "operator",
          "type": "address"
        },
        {
          "internalType": "bool",
          "name": "approved",
          "type": "bool"
        }
      ],
      "name": "setApprovalForAll",
      "outputs": [],
      "stateMutability": "nonpayable",
      "type": "function"
    },
    {
      "inputs": [
        {
          "internalType": "uint256",
          "name": "newGenesisTs",
          "type": "uint256"
        }
      ],
      "name": "setGenesisTs",
      "outputs": [],
      "stateMutability": "nonpayable",
      "type": "function"
    },
    {
      "inputs": [
        {
          "internalType": "uint256",
          "name": "tokenId",
          "type": "uint256"
        },
        {
          "internalType": "uint256",
          "name": "newMaturityTs",
          "type": "uint256"
        }
      ],
      "name": "setMaturity",
      "outputs": [],
      "stateMutability": "nonpayable",
      "type": "function"
    },
    {
      "inputs": [
        {
          "internalType": "address",
          "name": "_stakingRewardsAddress",
          "type": "address"
        }
      ],
      "name": "setStakingRewardsAddress",
      "outputs": [],
      "stateMutability": "nonpayable",
      "type": "function"
    },
    {
      "inputs": [],
      "name": "sleepToken",
      "outputs": [
        {
          "internalType": "contract ISleepCoin",
          "name": "",
          "type": "address"
        }
      ],
      "stateMutability": "view",
      "type": "function"
    },
    {
      "inputs": [],
      "name": "stakingRewardsAddress",
      "outputs": [
        {
          "internalType": "address",
          "name": "",
          "type": "address"
        }
      ],
      "stateMutability": "view",
      "type": "function"
    },
    {
      "inputs": [
        {
          "internalType": "bytes4",
          "name": "interfaceId",
          "type": "bytes4"
        }
      ],
      "name": "supportsInterface",
      "outputs": [
        {
          "internalType": "bool",
          "name": "",
          "type": "bool"
        }
      ],
      "stateMutability": "view",
      "type": "function"
    },
    {
      "inputs": [],
      "name": "symbol",
      "outputs": [
        {
          "internalType": "string",
          "name": "",
          "type": "string"
        }
      ],
      "stateMutability": "view",
      "type": "function"
    },
    {
      "inputs": [
        {
          "internalType": "uint256",
          "name": "index",
          "type": "uint256"
        }
      ],
      "name": "tokenByIndex",
      "outputs": [
        {
          "internalType": "uint256",
          "name": "",
          "type": "uint256"
        }
      ],
      "stateMutability": "view",
      "type": "function"
    },
    {
      "inputs": [
        {
          "internalType": "address",
          "name": "owner",
          "type": "address"
        },
        {
          "internalType": "uint256",
          "name": "index",
          "type": "uint256"
        }
      ],
      "name": "tokenOfOwnerByIndex",
      "outputs": [
        {
          "internalType": "uint256",
          "name": "",
          "type": "uint256"
        }
      ],
      "stateMutability": "view",
      "type": "function"
    },
    {
      "inputs": [
        {
          "internalType": "uint256",
          "name": "tokenId",
          "type": "uint256"
        }
      ],
      "name": "tokenURI",
      "outputs": [
        {
          "internalType": "string",
          "name": "",
          "type": "string"
        }
      ],
      "stateMutability": "view",
      "type": "function"
    },
    {
      "inputs": [],
      "name": "totalSupply",
      "outputs": [
        {
          "internalType": "uint256",
          "name": "",
          "type": "uint256"
        }
      ],
      "stateMutability": "view",
      "type": "function"
    },
    {
      "inputs": [
        {
          "internalType": "address",
          "name": "from",
          "type": "address"
        },
        {
          "internalType": "address",
          "name": "to",
          "type": "address"
        },
        {
          "internalType": "uint256",
          "name": "tokenId",
          "type": "uint256"
        }
      ],
      "name": "transferFrom",
      "outputs": [],
      "stateMutability": "nonpayable",
      "type": "function"
    },
    {
      "inputs": [
        {
          "internalType": "address",
          "name": "newOwner",
          "type": "address"
        }
      ],
      "name": "transferOwnership",
      "outputs": [],
      "stateMutability": "nonpayable",
      "type": "function"
    },
    {
      "inputs": [],
      "name": "treasuryDistributor",
      "outputs": [
        {
          "internalType": "address",
          "name": "",
          "type": "address"
        }
      ],
      "stateMutability": "view",
      "type": "function"
    }
  ],
  "bytecode": "0x60806040523462000247576200500660408138039182620000208162000292565b93849283398101031262000241576200003981620002b8565b90620000496020809201620002b8565b9062000054620002d5565b7f536c656570204d696e74696e6720506f736974696f6e000000000000000000008282015262000083620002e6565b670534c4545502d4d560c41b83820152815190926001600160401b03821162000231575b600092620000c183620000bb8654620002f7565b62000336565b81601f8411600114620001985750928262000104936200014896936200016a999684926200018c575b50508160011b916000199060031b1c1916179055620003ea565b6200010f33620004ec565b6200011c620186a0601155565b6200012642600f55565b600b80546001600160a01b0319166001600160a01b0392909216919091179055565b600c80546001600160a01b0319166001600160a01b0392909216919091179055565b600e80546001600160a01b03191633179055604051614acd9081620005398239f35b015190503880620000ea565b600080529190601f1984167f290decd9548b62a8d60345a988386fc84ba6bc95484008f6362f93160ef3e5639386905b82821062000218575050936200014896936200016a99969360019383620001049810620001fe575b505050811b019055620003ea565b015160001960f88460031b161c19169055388080620001f0565b80600186978294978701518155019601940190620001c8565b6200023b6200024c565b620000a7565b50600080fd5b600080fd5b50634e487b7160e01b600052604160045260246000fd5b60408051919082016001600160401b038111838210176200028357604052565b6200028d6200024c565b604052565b6040519190601f01601f191682016001600160401b038111838210176200028357604052565b51906001600160a01b038216821415620002ce57565b5050600080fd5b620002df62000263565b9060168252565b620002f062000263565b9060088252565b90600182811c921680156200032b575b60208310146200031357565b5050634e487b7160e01b600052602260045260246000fd5b91607f169162000307565b601f811162000343575050565b60009081805260208220906020601f850160051c8301941062000383575b601f0160051c01915b8281106200037757505050565b8181556001016200036a565b909250829062000361565b90601f82116200039c575050565b60019160009083825260208220906020601f850160051c83019410620003df575b601f0160051c01915b828110620003d45750505050565b8181558301620003c6565b9092508290620003bd565b80519091906001600160401b038111620004dc575b6001906200041981620004138454620002f7565b6200038e565b602080601f8311600114620004575750819293946000926200044b575b5050600019600383901b1c191690821b179055565b01519050388062000436565b6001600052601f198316959091907fb10e2d527612073b26eecdfd717e6a320cf44b4afac2b0732d9fcbe2b7fa0cf6926000905b888210620004c45750508385969710620004aa575b505050811b019055565b015160001960f88460031b161c19169055388080620004a0565b8087859682949686015181550195019301906200048b565b620004e66200024c565b620003ff565b600a80546001600160a01b038381166001600160a01b03198316179092556040519116907f8be0079c531659141344cd1fd0a4f28419497f9722a3daafe3b4186f6b6457e090600090a356fe6040608081526004361015610015575b50600080fd5b600090813560e01c806301ffc9a714610790578063069c9fae1461077857806306fdde031461075c57806307ed50031461072c578063081812fc14610710578063095ea7b3146106f85780630f2e1228146106dd57806318160ddd146106b75780631c2440821461069157806323b872dd146106795780632f745c591461065c57806342842e0e14610644578063462167391461062d5780634810fcfb146106115780634f6ccce7146105f557806361a52a36146105d85780636352211e146105a3578063698787c41461058c5780636e4991f61461056657806370a082311461053b57806370a333e0146104b2578063715018a61461049b578063788bff681461046b57806381749a8a1461043b578063867c1d951461041f5780638da5cb5b146103ef5780638ea5220f146103bf57806395d89b41146103a3578063a22cb4651461038b578063b88d4fde14610370578063bd2fb91d14610359578063c56f0bab1461033e578063c87b56dd14610317578063d7bf81a3146102f6578063dae0247b146102de578063e3af6d0a146102b8578063e985e9c514610250578063f29957911461022c578063f2fde38b14610215578063f3efc260146102025763f91564af146101e5575061000f565b346101fe576101fb6101f636610938565b611ae5565b51f35b5080fd5b506101fb61020f36610b02565b90611f68565b50346101fe576101fb61022736610938565b610bf1565b50903461024b575061023d36610863565b5160a68152602090f35b0390f35b809150fd5b50346101fe5761024791506102a76102a061028861026d36610b18565b91906001600160a01b03166000526005602052604060002090565b906001600160a01b0316600052602052604060002090565b5460ff1690565b905190151581529081906020820190565b50346101fe5761024791506102cc36610863565b600f5490519081529081906020820190565b50346101fe576101fb6102f036610b02565b9061196f565b50903461024b575061030736610863565b51662386f26fc100008152602090f35b50346101fe57610247915061033361032e366108e7565b613336565b9051918291826108d6565b50903461024b575061034f36610863565b51600a8152602090f35b50346101fe576101fb61036b366108e7565b6128ca565b50346101fe576101fb61038236610a6b565b92919091611279565b50346101fe576101fb61039d36610966565b906110df565b50346101fe5761024791506103b736610863565b610333610e9f565b50346101fe5761024791506103d336610863565b600e5490516001600160a01b0390911681529081906020820190565b50346101fe57610247915061040336610863565b600a5490516001600160a01b0390911681529081906020820190565b50903461024b575061043036610863565b51610e428152602090f35b50346101fe57610247915061044f36610863565b600c5490516001600160a01b0390911681529081906020820190565b50346101fe57610247915061047f36610863565b600d5490516001600160a01b0390911681529081906020820190565b50346101fe576104aa36610863565b6101fb610b4b565b50346101fe5761024791506105026104c9366108e7565b60005260136020526040600020908154916001810154916002820154916003810154916001600160a01b03600560048401549301541690565b955194855260208501939093526040840191909152606083015260808201526001600160a01b0390911660a082015290819060c0820190565b50346101fe57610247915061055761055236610938565b610cb5565b90519081529081906020820190565b50346101fe57610247915061057a36610863565b60115490519081529081906020820190565b50346101fe576101fb61059e366108e7565b6124a7565b50346101fe5761024791506105bf6105ba366108e7565b610d8d565b90516001600160a01b0390911681529081906020820190565b50903461024b57506105e936610863565b51620151808152602090f35b50346101fe57610247915061055761060c366108e7565b6118c1565b50903461024b575061062236610863565b51610b688152602090f35b50346101fe576101fb61063f366108e7565b611962565b50346101fe576101fb610656366108f9565b91611261565b50346101fe5761024791506105576106733661083c565b90611807565b50346101fe576101fb61068b366108f9565b91611212565b50346101fe5761024791506106a536610863565b60105490519081529081906020820190565b50346101fe5761024791506106cb36610863565b60085490519081529081906020820190565b50903461024b57506106ee36610863565b5160638152602090f35b50346101fe576101fb61070a3661083c565b90610f5c565b50346101fe5761024791506105bf610727366108e7565b61109d565b50346101fe57610247915061074036610863565b600b5490516001600160a01b0390911681529081906020820190565b50346101fe57610247915061077036610863565b610333610daf565b50346101fe576101fb61078a3661083c565b90611a3b565b5050346107be5750607f196107b96107af6107aa366107ec565b6131da565b151560805260a090565b016080f35b80fd5b7fffffffff000000000000000000000000000000000000000000000000000000008116141561000f57565b602090600319011261000f57600435610804816107c1565b90565b600435906001600160a01b03821682141561081e57565b5050600080fd5b602435906001600160a01b03821682141561081e57565b604090600319011261000f576004356001600160a01b03811681141561081e579060243590565b600090600319011261000f57565b600091031261000f57565b918091926000905b82821061089c575011610895575050565b6000910152565b91508060209183015181860152018291610884565b906020916108ca8151809281855285808601910161087c565b601f01601f1916010190565b9060206108049281815201906108b1565b602090600319011261000f5760043590565b606090600319011261000f576001600160a01b03906004358281168114156109305791602435908116811415610930579060443590565b505050600080fd5b602090600319011261000f576004356001600160a01b03811681141561081e5790565b801515141561000f57565b604090600319011261000f576004356001600160a01b03811681141561081e57906024356108048161095b565b50634e487b7160e01b600052604160045260246000fd5b6020810190811067ffffffffffffffff8211176109c657604052565b6109ce610993565b604052565b6040810190811067ffffffffffffffff8211176109c657604052565b90601f8019910116810190811067ffffffffffffffff8211176109c657604052565b6040519060c0820182811067ffffffffffffffff8211176109c657604052565b60405190610a3e826109d3565b565b60209067ffffffffffffffff8111610a5e575b601f01601f19160190565b610a66610993565b610a53565b90608060031983011261081e57610a80610807565b91610a89610825565b916044359160643567ffffffffffffffff8111610af75781602382011215610af757806004013590610aba82610a40565b92610ac860405194856109ef565b82845260248383010111610aeb5781600092602460209301838601378301015290565b50505050505050600080fd5b505050505050600080fd5b604090600319011261000f576004359060243590565b604090600319011261000f576001600160a01b039060043582811681141561093057916024359081168114156109305790565b610b53610b97565b60006001600160a01b03600a546001600160a01b03198116600a55167f8be0079c531659141344cd1fd0a4f28419497f9722a3daafe3b4186f6b6457e082604051a3565b6001600160a01b03600a5416331415610bac57565b50606460405162461bcd60e51b815260206004820152602060248201527f4f776e61626c653a2063616c6c6572206973206e6f7420746865206f776e65726044820152fd5b610bf9610b97565b6001600160a01b038082168015610c4757600a54906001600160a01b0319821617600a55167f8be0079c531659141344cd1fd0a4f28419497f9722a3daafe3b4186f6b6457e06000604051a3565b50505050608460405162461bcd60e51b815260206004820152602660248201527f4f776e61626c653a206e6577206f776e657220697320746865207a65726f206160448201527f64647265737300000000000000000000000000000000000000000000000000006064820152fd5b6001600160a01b03168015610cd557600052600360205260406000205490565b5050608460405162461bcd60e51b815260206004820152602960248201527f4552433732313a2061646472657373207a65726f206973206e6f74206120766160448201527f6c6964206f776e657200000000000000000000000000000000000000000000006064820152fd5b15610d4857565b50606460405162461bcd60e51b815260206004820152601860248201527f4552433732313a20696e76616c696420746f6b656e20494400000000000000006044820152fd5b60005260026020526001600160a01b0360406000205416610804811515610d41565b604051906000805490600182811c92818116918215610e95575b6020918286108414610e7957858852879493602086019392918115610e615750600114610e00575b505050610a3e925003836109ef565b925093610e2e600080527f290decd9548b62a8d60345a988386fc84ba6bc95484008f6362f93160ef3e56390565b946000935b828510610e4b57505050610a3e935001388080610df1565b8654858501529586019588955093810193610e33565b60ff1916845250610a3e955050019050388080610df1565b5050634e487b7160e01b83525050602260045260249350915050fd5b93607f1693610dc9565b60405190600060019081549182811c92818116918215610f52575b6020918286108414610e7957858852879493602086019392918115610e615750600114610ef057505050610a3e925003836109ef565b925093610f1f60016000527fb10e2d527612073b26eecdfd717e6a320cf44b4afac2b0732d9fcbe2b7fa0cf690565b946000935b828510610f3c57505050610a3e935001388080610df1565b8654858501529586019588955093810193610f24565b93607f1693610eba565b90610f6681610d8d565b6001600160a01b03808216809185161461102e573314908115611000575b5015610f9357610a3e91611597565b505050608460405162461bcd60e51b815260206004820152603d60248201527f4552433732313a20617070726f76652063616c6c6572206973206e6f7420746f60448201527f6b656e206f776e6572206f7220617070726f76656420666f7220616c6c0000006064820152fd5b60ff91506110269061028833916001600160a01b03166000526005602052604060002090565b541638610f84565b5050505050608460405162461bcd60e51b815260206004820152602160248201527f4552433732313a20617070726f76616c20746f2063757272656e74206f776e6560448201527f72000000000000000000000000000000000000000000000000000000000000006064820152fd5b6110c56110c08260005260026020526001600160a01b0360406000205416151590565b610d41565b60005260046020526001600160a01b036040600020541690565b906001600160a01b03821633146111595733600052600560205261111a826040600020906001600160a01b0316600052602052604060002090565b9015159060ff1981541660ff83161790556040519081527f17307eab39ab6107e8899845ad3d59bd9653f200f220920489ca2b5937696c3160203392a3565b505050606460405162461bcd60e51b815260206004820152601960248201527f4552433732313a20617070726f766520746f2063616c6c6572000000000000006044820152fd5b156111a757565b50608460405162461bcd60e51b815260206004820152602d60248201527f4552433732313a2063616c6c6572206973206e6f7420746f6b656e206f776e6560448201527f72206f7220617070726f766564000000000000000000000000000000000000006064820152fd5b90610a3e929161122a6112258433611313565b6111a0565b611406565b604051906020820182811067ffffffffffffffff821117611254575b60405260008252565b61125c610993565b61124b565b9091610a3e9260405192611274846109aa565b600084525b91610a3e93916112a0936112906112258433611313565b61129b838383611406565b6117c3565b156112a757565b5060405162461bcd60e51b815260206004820152603260248201527f4552433732313a207472616e7366657220746f206e6f6e20455243373231526560448201527f63656976657220696d706c656d656e74657200000000000000000000000000006064820152608490fd5b6001600160a01b038061132584610d8d565b16928183169284841494851561135b575b50508315611345575b50505090565b6113519192935061109d565b161438808061133f565b60ff9295509061138a9160005260056020526040600020906001600160a01b0316600052602052604060002090565b5416923880611336565b1561139b57565b50608460405162461bcd60e51b815260206004820152602560248201527f4552433732313a207472616e736665722066726f6d20696e636f72726563742060448201527f6f776e65720000000000000000000000000000000000000000000000000000006064820152fd5b61142961141284610d8d565b6001600160a01b0383811692909182168314611394565b8316156115295761145d9061143f858585612e9d565b61145761144b86610d8d565b6001600160a01b031690565b14611394565b611484611474846000526004602052604060002090565b6001600160a01b03198154169055565b6114a1816001600160a01b03166000526003602052604060002090565b60001981540190556114c6826001600160a01b03166000526003602052604060002090565b60018154019055611500826114e5856000526002602052604060002090565b906001600160a01b03166001600160a01b0319825416179055565b7fddf252ad1be2c89b69c2b068fc378daa952ba7f163c4a11628f55a4df523b3ef6000604051a4565b5050505050608460405162461bcd60e51b8152602060048201526024808201527f4552433732313a207472616e7366657220746f20746865207a65726f2061646460448201527f72657373000000000000000000000000000000000000000000000000000000006064820152fd5b8160005260046020526115c4816040600020906001600160a01b03166001600160a01b0319825416179055565b6115cd82610d8d565b7f8c5be1e5ebec7d5bd14f71427d1e84f3dd0314c0f7b2291e5b200ac8c7c3b9256000604051a4565b9081602091031261081e5751610804816107c1565b61080493926001600160a01b0360809316825260006020830152604082015281606082015201906108b1565b909261080494936080936001600160a01b038092168452166020830152604082015281606082015201906108b1565b506040513d6000823e3d90fd5b3d1561169e573d9061168482610a40565b9161169260405193846109ef565b82523d6000602084013e565b606090565b909190803b156117bb576116dd6020916001600160a01b03936000604051958680958194630a85bd0160e11b9a8b8452336004850161160b565b0393165af16000918161179b575b50611775575050506116fb611673565b8051908161177057505060405162461bcd60e51b815260206004820152603260248201527f4552433732313a207472616e7366657220746f206e6f6e20455243373231526560448201527f63656976657220696d706c656d656e74657200000000000000000000000000006064820152608490fd5b602001fd5b7fffffffff00000000000000000000000000000000000000000000000000000000161490565b6117b49192506117ab3d826109ef565b3d8101906115f6565b90386116eb565b505050600190565b92909190823b156117fe576116dd9260209260006001600160a01b03604051809781968295630a85bd0160e11b9b8c85523360048601611637565b50505050600190565b61181081610cb5565b82101561183d576001600160a01b0316600052600660205260406000209060005260205260406000205490565b505050608460405162461bcd60e51b815260206004820152602b60248201527f455243373231456e756d657261626c653a206f776e657220696e646578206f7560448201527f74206f6620626f756e64730000000000000000000000000000000000000000006064820152fd5b50634e487b7160e01b600052603260045260246000fd5b6008548110156118f65760086000527ff3f7a9fe364faab93b216da50a3214154f22a0a2b415b23a84c8169e8b636ee3015490565b5050608460405162461bcd60e51b815260206004820152602c60248201527f455243373231456e756d657261626c653a20676c6f62616c20696e646578206f60448201527f7574206f6620626f756e647300000000000000000000000000000000000000006064820152fd5b61196a610b97565b600f55565b90611978610b97565b6001600160a01b03600e54163314156119ce576020817fc86274fad1040bd8f2436d665e2e1e862d74f952ee061dfa02b95550666bc858926119c4856000526013602052604060002090565b55604051908152a2565b505050608460405162461bcd60e51b815260206004820152602560248201527f534c4545502d4d503a2043616c6c6572206973206e6f7420746865206465766560448201527f6c6f7065720000000000000000000000000000000000000000000000000000006064820152fd5b611aa591602091611a4a610b97565b6001600160a01b03600081600a5416916040518097819682957fa9059cbb00000000000000000000000000000000000000000000000000000000845260048401602090939291936001600160a01b0360408201951681520152565b0393165af18015611ad8575b611ab85750565b611ac23d826109ef565b6020813d8101031261081e57610a3e905161095b565b611ae0611666565b611ab1565b6001600160a01b0390611af6610b97565b166001600160a01b0319600d541617600d55565b15611b1157565b50608460405162461bcd60e51b815260206004820152602960248201527f534c4545502d4d503a20436f756e74206d757374206265206265747765656e2060448201527f3120616e642031303000000000000000000000000000000000000000000000006064820152fd5b15611b8357565b50608460405162461bcd60e51b815260206004820152602660248201527f534c4545502d4d503a205465726d2065786365656473206d6178696d756d206160448201527f6c6c6f77656400000000000000000000000000000000000000000000000000006064820152fd5b50634e487b7160e01b600052601160045260246000fd5b790734aca5f6226f0ada6175f343cc4d4d9dfb8b60d6e93f84291e8111600116611c36575b662386f26fc100000290565b611c3e611bee565b611c2a565b6006908060001904821181151516611c59570290565b611c61611bee565b0290565b6063908060001904821181151516611c59570290565b600f908060001904821181151516611c59570290565b610380908060001904821181151516611c59570290565b6101c0908060001904821181151516611c59570290565b60e0908060001904821181151516611c59570290565b6070908060001904821181151516611c59570290565b6038908060001904821181151516611c59570290565b601c908060001904821181151516611c59570290565b600e908060001904821181151516611c59570290565b6007908060001904821181151516611c59570290565b62015180908060001904821181151516611c59570290565b7f3fffffffffffffffffffffffffffffffffffffffffffffffffffffffffffffff8111600116611d8c575b60021b90565b611d94611bee565b611d86565b8060001904821181151516611c59570290565b15611db357565b50608460405162461bcd60e51b815260206004820152602160248201527f534c4545502d4d503a20496e636f7272656374206d696e74206665652070616960448201527f64000000000000000000000000000000000000000000000000000000000000006064820152fd5b6001906001198111611e2e570190565b611e36611bee565b0190565b8019600f11611e4a575b600f0190565b611e52611bee565b611e44565b8019603111611e67575b60310190565b611e6f611bee565b611e61565b6002906002198111611e2e570190565b620d2f0090620d2f00198111611e2e570190565b8019609311611ea8575b60930190565b611eb0611bee565b611ea2565b61015781198111611e2e570190565b6102df81198111611e2e570190565b6105ef81198111611e2e570190565b610c0f81198111611e2e570190565b61184f81198111611e2e570190565b81198111611e2e570190565b60056001600160a01b0360a0610a3e9480518555602081015160018601556040810151600286015560608101516003860155608081015160048601550151169101906001600160a01b03166001600160a01b0319825416179055565b61202a61203092801515806120b4575b611f8190611b0a565b611f94611f8c612b52565b841115611b7c565b611fa7611fa082611c05565b3414611dac565b60105492611fc6611fc183611fbb87611e1e565b96611f00565b601055565b611fd4600160125401601255565b60125493611fe28242611f00565b92611feb612cfd565b92611ff4610a11565b94855260208501526040840152606083015260808201523360a0820152612025836000526013602052604060002090565b611f0c565b336120bf565b61204861144b61144b600c546001600160a01b031690565b803b1561081e576000600491604051928380927f6f72b95600000000000000000000000000000000000000000000000000000000825234905af180156120a7575b6120905750565b610a3e9061209e3d826109ef565b3d810190610871565b6120af611666565b612089565b506064811115611f78565b6040516120cb816109aa565b600081526001600160a01b038216156121b057826112a09261211561211061210c610a3e9760005260026020526001600160a01b0360406000205416151590565b1590565b6121f8565b61211f8282612f04565b61214561211061210c8460005260026020526001600160a01b0360406000205416151590565b612162816001600160a01b03166000526003602052604060002090565b60018154019055612181816114e5846000526002602052604060002090565b818160007fddf252ad1be2c89b69c2b068fc378daa952ba7f163c4a11628f55a4df523b3ef81604051a46116a3565b50505050606460405162461bcd60e51b815260206004820152602060248201527f4552433732313a206d696e7420746f20746865207a65726f20616464726573736044820152fd5b156121ff57565b50606460405162461bcd60e51b815260206004820152601c60248201527f4552433732313a20746f6b656e20616c7265616479206d696e746564000000006044820152fd5b1561224b57565b50608460405162461bcd60e51b815260206004820152602960248201527f534c4545502d4d503a2043616c6c6572206973206e6f74206f776e6572206f7260448201527f20617070726f76656400000000000000000000000000000000000000000000006064820152fd5b156122bd57565b50608460405162461bcd60e51b815260206004820152602160248201527f534c4545502d4d503a205374616b696e672061646472657373206e6f7420736560448201527f74000000000000000000000000000000000000000000000000000000000000006064820152fd5b1561232f57565b50608460405162461bcd60e51b815260206004820152602560248201527f534c4545502d4d503a204d696e74696e67207465726d206e6f7420796574206d60448201527f61747572650000000000000000000000000000000000000000000000000000006064820152fd5b600481106123aa575b6003190190565b6123b2611bee565b6123a3565b6109fb81106123c9575b6109fa190190565b6123d1611bee565b6123c1565b61088e81106123e8575b61088d190190565b6123f0611bee565b6123e0565b6107218110612407575b610720190190565b61240f611bee565b6123ff565b6105b48110612426575b6105b3190190565b61242e611bee565b61241e565b6104478110612445575b610446190190565b61244d611bee565b61243d565b6102da8110612464575b6102d9190190565b61246c611bee565b61245c565b61016d8110612483575b61016c190190565b61248b611bee565b61247b565b81811061249b570390565b6124a3611bee565b0390565b6124b96124b48233611313565b612244565b600d546001600160a01b0316906124d18215156122b6565b6124e5816000526013602052604060002090565b9161251c6125168454946124fb86421015612328565b60018101549060038101546002600483015492015492612d49565b93612ad4565b9081156127125761254d6125396125476125406125398689611d99565b6064900490565b8097612490565b95611c43565b9081612690575b50505b61259261256e836000526013602052604060002090565b60056000918281558260018201558260028201558260038201558260048201550155565b61259b82612718565b826125e3575b6040805160008152602081019490945283015233917f27c6c486f2e1868db50fb260dea9c3babcbd6519191f09ec99538657619f12b19080606081015b0390a3565b6125f861144b600b546001600160a01b031690565b803b15612686576040516340c10f1960e01b8152336004820152602481018590527f27c6c486f2e1868db50fb260dea9c3babcbd6519191f09ec99538657619f12b1926125de929091906000908290604490829084905af18015612679575b612665575b509150506125a1565b6126739061209e3d826109ef565b3861265c565b612681611666565b612657565b5050505050600080fd5b6126a561144b600b546001600160a01b031690565b91823b15610aeb576040516340c10f1960e01b81526001600160a01b039290921660048301526024820152906000908290604490829084905af18015612705575b6126f1575b80612554565b6126ff9061209e3d826109ef565b386126eb565b61270d611666565b6126e6565b50612557565b61272181610d8d565b816001600160a01b0382166127d85761273a9150612f64565b612743816130bf565b600061274e82610d8d565b612762836000526004602052604060002090565b6001600160a01b03199081815416905561278f826001600160a01b03166000526003602052604060002090565b831981540190556127aa846000526002602052604060002090565b9081541690557fddf252ad1be2c89b69c2b068fc378daa952ba7f163c4a11628f55a4df523b3ef82604051a4565b6127e191612fdd565b61273a565b156127ed57565b50608460405162461bcd60e51b815260206004820152603060248201527f534c4545502d4d503a204e465420646f6573206e6f74206578697374206f722060448201527f686173206265656e20636c61696d6564000000000000000000000000000000006064820152fd5b1561285f57565b50608460405162461bcd60e51b815260206004820152603560248201527f534c4545502d4d503a204e4654206e6f742079657420656c696769626c65206660448201527f6f72207075626c6963206c69717569646174696f6e00000000000000000000006064820152fd5b600d546001600160a01b0316906128e28215156122b6565b6129196128f9826000526013602052604060002090565b6124fb612911825461290c8115156127e6565b611e84565b421015612858565b61292f61292861253983611c65565b8092612490565b9261293c61253983611c43565b9081612a52575b5050826129af575b6125de7f27c6c486f2e1868db50fb260dea9c3babcbd6519191f09ec99538657619f12b19161298761256e856000526013602052604060002090565b61299084612718565b6040805160018152602081019690965285015233939081906060820190565b6129c461144b600b546001600160a01b031690565b803b15612686576040516340c10f1960e01b8152336004820152602481018590527f27c6c486f2e1868db50fb260dea9c3babcbd6519191f09ec99538657619f12b1926125de929091906000908290604490829084905af18015612a45575b612a31575b5091505061294b565b612a3f9061209e3d826109ef565b38612a28565b612a4d611666565b612a23565b612a6761144b600b546001600160a01b031690565b91823b15610aeb576040516340c10f1960e01b81526001600160a01b039290921660048301526024820152906000908290604490829084905af18015612ac7575b612ab3575b80612943565b612ac19061209e3d826109ef565b38612aad565b612acf611666565b612aa8565b804210612b4c57620151809042030460028110612b4c576004811115612b1c576008811115612b035750606390565b612b17612b126108049261239a565b611c7b565b611e3a565b80600160059210612b3f575b600019809101809104821181151516611c59570290565b612b47611bee565b612b28565b50600090565b612b6a612b61600f5442612490565b62015180900490565b60319061016d811015612ba95761080491612b8a6031612b909304611d2d565b90611f00565b610e42808211612ba1575b50611d43565b905038612b9b565b6102da811015612be25761080491612b8a612bd8612bd3612bcc612bdd95612471565b6031900490565b611d17565b611e57565b612b90565b610447811015612c0f5761080491612b8a612c0a612c05612bcc612bdd95612452565b611d01565b611e98565b6105b4811015612c3c5761080491612b8a612c37612c32612bcc612bdd95612433565b611ceb565b611eb5565b610721811015612c695761080491612b8a612c64612c5f612bcc612bdd95612414565b611cd5565b611ec4565b61088e811015612c965761080491612b8a612c91612c8c612bcc612bdd956123f5565b611cbf565b611ed3565b6109fb811015612cc35761080491612b8a612cbe612cb9612bcc612bdd956123d6565b611ca8565b611ee2565b610b68811015612cf05761080491612b8a612ceb612ce6612bcc612bdd956123b7565b611c91565b611ef1565b5050610804613100612b90565b62015180600f54804210612d2c575b420304610b6880821015612d255781811061249b570390565b5050600190565b612d34611bee565b612d0c565b6001906000198114611e2e570190565b92906000938493601054601154935b858710612e10575050505050505062015180600f54804210612e03575b420304600f0b6668db8bac710cb119026f7fffffffffffffffffffffffffffffff1981121580612de9575b156109305761080491612dd7612dbb612ddc93600f0b614901565b666cca2db61bb05f8082600f0b13600014612de157509161488b565b6148b5565b6148a4565b90509161488b565b506f7fffffffffffffffffffffffffffffff811315612da0565b612e0b611bee565b612d75565b90919293949596612e70612e7691620f4240612e6989612e648a612e648f612e648c612e3d8f938e611f00565b60009181811115612e965781925010612e89575b8d035b6002808210612e81575b50614a47565b611d99565b0490611f00565b97612d39565b959493929190612d58565b905038612e5e565b612e91611bee565b612e51565b5050612e54565b9091906001600160a01b038082169182612ee15750612ebb83612f64565b831680612ece575050610a3e91506130bf565b1415612ed8575050565b610a3e91612f2b565b83828616841415612ef4575b5050612ebb565b612efd91612fdd565b3883612eed565b90612f0e81612f64565b6001600160a01b038216612f2657610a3e91506130bf565b610a3e915b604090612f3781610cb5565b926001600160a01b0360009216825260066020528282208483526020528083832055815260076020522055565b6008548160005260096020528060406000205568010000000000000000811015612fd0575b6001810180600855811015612fc3575b60086000527ff3f7a9fe364faab93b216da50a3214154f22a0a2b415b23a84c8169e8b636ee30155565b612fcb6118aa565b612f99565b612fd8610993565b612f89565b9061304261302892612fee81610cb5565b600181106130b2575b60001901926000948186928352600760205260408320548681141561304f575b506000526007602052604060002090565b556001600160a01b03166000526006602052604060002090565b9082526020526040812055565b6001600160a01b03851684526006602052604084208785526020526130ab604085205461308f876001600160a01b03166000526006602052604060002090565b8387526020528060408720556000526007602052604060002090565b5538613017565b6130ba611bee565b612ff7565b60088054600181106131cd575b60009083825260096020528161316e604082205495600019968488810110156131c0575b86845261315d7ff3f7a9fe364faab93b216da50a3214154f22a0a2b415b23a84c8169e8b636ee29586810154908310156131b3575b88865280837ff3f7a9fe364faab93b216da50a3214154f22a0a2b415b23a84c8169e8b636ee301556000526009602052604060002090565b556000526009602052604060002090565b558254938415613199578401938085101561318c575b838352015555565b6131946118aa565b613184565b5050634e487b7160e01b8152603160045260249350915050fd5b6131bb6118aa565b613125565b6131c86118aa565b6130f0565b6131d5611bee565b6130cc565b7fffffffff00000000000000000000000000000000000000000000000000000000167f780e9d6300000000000000000000000000000000000000000000000000000000811490811561322a575090565b7f80ac58cd00000000000000000000000000000000000000000000000000000000811491508115613287575b8115613260575090565b7f01ffc9a70000000000000000000000000000000000000000000000000000000091501490565b7f5b5e139f0000000000000000000000000000000000000000000000000000000081149150613256565b156132b857565b50608460405162461bcd60e51b815260206004820152602f60248201527f4552433732314d657461646174613a2055524920717565727920666f72206e6f60448201527f6e6578697374656e7420746f6b656e00000000000000000000000000000000006064820152fd5b90611e366020928281519485920161087c565b6133568160005260026020526001600160a01b0360406000205416151590565b61335f906132b1565b613373816000526013602052604060002090565b9061337d81613add565b61338682613f24565b916133909061390f565b9161339a90613828565b9260038101546133a99061390f565b9060018101546133bc9062015180900490565b6133c59061390f565b90600201546133d39061390f565b6040517f7b000000000000000000000000000000000000000000000000000000000000006020820152958695919391602187017f226e616d65223a2022536c656570204e46542023000000000000000000000000815260140161343591613323565b61088b60f21b81526002017f226465736372697074696f6e223a2022412066756c6c79206f6e2d636861696e81527f204e46542066726f6d2074686520536c6565702050726f746f636f6c2c20776960208201527f74682069747320617070656172616e636520616e64207374617465206465746560408201527f726d696e656420627920697473206f6e2d636861696e20646174612e222c00006060820152607e017f22696d616765223a2022646174613a696d6167652f7376672b786d6c3b62617381527f6536342c00000000000000000000000000000000000000000000000000000000602082015260240161352d91613323565b61088b60f21b81526002017f2261747472696275746573223a205b00000000000000000000000000000000008152600f017f7b202274726169745f74797065223a202252616e6b222c202276616c7565223a8152600160fd1b602082015260210161359791613323565b62081f4b60ea1b81526003017f7b202274726169745f74797065223a20225465726d222c202276616c7565223a8152600160fd1b60208201526021016135dc91613323565b62081f4b60ea1b81526003017f7b202274726169745f74797065223a2022556e697473222c202276616c75652281527f3a20000000000000000000000000000000000000000000000000000000000000602082015260220161363d91613323565b62081f4b60ea1b81526003017f7b202274726169745f74797065223a2022537461747573222c202276616c756581527f223a202200000000000000000000000000000000000000000000000000000000602082015260240161369e91613323565b7f22207d000000000000000000000000000000000000000000000000000000000081526003017f5d0000000000000000000000000000000000000000000000000000000000000081526001017f7d0000000000000000000000000000000000000000000000000000000000000081526001010390601f1991828101825261372590826109ef565b61372e90613828565b6040517f646174613a6170706c69636174696f6e2f6a736f6e3b6261736536342c000000602082015291908290603d820161376891613323565b03908101825261080490826109ef565b604051906060820182811067ffffffffffffffff8211176137e9575b604052604082527f6768696a6b6c6d6e6f707172737475767778797a303132333435363738392b2f6040837f4142434445464748494a4b4c4d4e4f505152535455565758595a61626364656660208201520152565b6137f1610993565b613794565b9061380082610a40565b61380d60405191826109ef565b828152809261381e601f1991610a40565b0190602036910137565b80511561390657613837613778565b61385b61385661385161384a8551611e74565b6003900490565b611d5b565b6137f6565b91602083019181825183016020810191825193600084525b8282106138b457505050525160039006600181146138a157600214613896575090565b603d90600019015390565b50603d9081600019820153600119015390565b9091956004906003809401938451600190603f9082828260121c16880101518553828282600c1c16880101518386015382828260061c1688010151600286015316850101519082015301959190613873565b5061080461122f565b806000917a184f03e93ff9f4daa797ed6e38ed64bf6a1f01000000000000000080821015613a51575b506d04ee2d6d415b85acef810000000080831015613a42575b50662386f26fc1000080831015613a33575b506305f5e10080831015613a24575b5061271080831015613a15575b506064821015613a05575b600a809210156139fb575b6001908160216139a68287016137f6565b95860101905b6139b8575b5050505090565b600019019083907f30313233343536373839616263646566000000000000000000000000000000008282061a8353049182156139f6579190826139ac565b6139b1565b9160010191613995565b919060646002910491019161398a565b6004919392049101913861397f565b60089193920491019138613972565b60109193920491019138613963565b60209193920491019138613951565b604093508104915038613938565b60405190613a6c826109d3565b600a82527f6c697175696461746564000000000000000000000000000000000000000000006020830152565b60405190613aa5826109d3565b600782526670656e616c747960c81b6020830152565b60405190613ac8826109d3565b60068252656d617475726560d01b6020830152565b60005260136020526040600020548015613b2e57804210613b4457620d2f00198111613b37575b620d2f008101421015613b2e57613b1a90612ad4565b613b2657610804613abb565b610804613a98565b50610804613a5f565b613b3f611bee565b613b04565b50604051613b51816109d3565b600681526561637469766560d01b602082015290565b604090815191613b76836109d3565b8260005b828110613b8657505050565b606082820152602001613b7a565b60405190613ba1826109d3565b600782527f23454634343434000000000000000000000000000000000000000000000000006020830152565b60405190613bda826109d3565b600782527f23444332363236000000000000000000000000000000000000000000000000006020830152565b60405190613c13826109d3565b600a82527f4c495155494441544544000000000000000000000000000000000000000000006020830152565b60405190613c4c826109d3565b600782527f23464543414341000000000000000000000000000000000000000000000000006020830152565b60405190613c85826109d3565b600782527f23463539453042000000000000000000000000000000000000000000000000006020830152565b60405190613cbe826109d3565b600782527f23463937333136000000000000000000000000000000000000000000000000006020830152565b60405190613cf7826109d3565b600782527f50454e414c5459000000000000000000000000000000000000000000000000006020830152565b60405190613d30826109d3565b600782527f23464445363841000000000000000000000000000000000000000000000000006020830152565b60405190613d69826109d3565b600782527f23313042393831000000000000000000000000000000000000000000000000006020830152565b60405190613da2826109d3565b600782527f23313442384136000000000000000000000000000000000000000000000000006020830152565b60405190613ddb826109d3565b600682527f4d415455524500000000000000000000000000000000000000000000000000006020830152565b60405190613e14826109d3565b600782527f23413746334430000000000000000000000000000000000000000000000000006020830152565b60405190613e4d826109d3565b600782527f23334238324636000000000000000000000000000000000000000000000000006020830152565b60405190613e86826109d3565b600782527f23363336364631000000000000000000000000000000000000000000000000006020830152565b60405190613ebf826109d3565b600682527f41435449564500000000000000000000000000000000000000000000000000006020830152565b60405190613ef8826109d3565b600782527f23393343354644000000000000000000000000000000000000000000000000006020830152565b613f38816000526013602052604060002090565b613f4182613add565b6000613f4b613b67565b5050604080519260209283850185613f638284613323565b0395613f77601f19978881018352826109ef565b51902083516561637469766560d01b86820190815290613fa281600684015b038981018352826109ef565b519020141561475c5750613fb4610a31565b613fbc613e40565b8152613fc6613e79565b8482015294613fd3613eb2565b90613fdc613eeb565b905b85885198015190613fee9061390f565b9060018501546140019062015180900490565b61400a9061390f565b94600201546140189061390f565b95517f3c7376672077696474683d2232353622206865696768743d22333834222076699781019788527f6577426f783d223020302032353620333834222066696c6c3d226e6f6e65222060208901527f786d6c6e733d22687474703a2f2f7777772e77332e6f72672f323030302f737660408901527f67223e000000000000000000000000000000000000000000000000000000000060608901529889976063017f3c646566733e000000000000000000000000000000000000000000000000000081526006017f3c6c696e6561724772616469656e742069643d226261636b67726f756e64222081527f78313d2230222079313d2230222078323d22323536222079323d22333834223e60208201526040017f3c73746f70206f66667365743d223025222073746f702d636f6c6f723d2200008152601e0161415a91613323565b631110179f60e11b81526004017f3c73746f70206f66667365743d2231303025222073746f702d636f6c6f723d22815260200161419691613323565b631110179f60e11b81526004017f3c2f6c696e6561724772616469656e743e00000000000000000000000000000081526011017f3c7374796c653e0000000000000000000000000000000000000000000000000081526007017f2e7469746c65207b20666f6e743a20626f6c6420323470782073616e732d736581527f7269663b2066696c6c3a2077686974653b207d0000000000000000000000000060208201526033017f2e7375627469746c65207b20666f6e743a206e6f726d616c203134707820736181527f6e732d73657269663b2066696c6c3a2077686974653b206f7061636974793a2060208201527f302e383b207d000000000000000000000000000000000000000000000000000060408201526046017f2e6c6162656c207b20666f6e743a206e6f726d616c20313270782073616e732d81527f73657269663b2066696c6c3a2077686974653b206f7061636974793a20302e3860208201527f3b207d000000000000000000000000000000000000000000000000000000000060408201526043017f2e76616c7565207b20666f6e743a20626f6c6420313870782073616e732d736581527f7269663b2066696c6c3a2077686974653b207d0000000000000000000000000060208201526033017f2e7374617475732d6261646765207b20666f6e743a20626f6c6420313070782081527f73616e732d73657269663b2066696c6c3a20233146323933373b207d000000006020820152603c017f3c2f7374796c653e00000000000000000000000000000000000000000000000081526008017f3c2f646566733e0000000000000000000000000000000000000000000000000081526007017f3c726563742077696474683d2232353622206865696768743d2233383422207281527f783d223136222066696c6c3d2275726c28236261636b67726f756e642922202f6020820152601f60f91b60408201526041017f3c67207472616e73666f726d3d227472616e736c6174652831362c20323429228152601f60f91b60208201526021017f3c7465787420636c6173733d227469746c65223e4e465420230000000000000081526019016144b891613323565b661e17ba32bc3a1f60c91b81526007017f3c7465787420793d2232302220636c6173733d227375627469746c65223e534c81527f4545502050524f544f434f4c3c2f746578743e000000000000000000000000006020820152603301631e17b39f60e11b81526004017f3c7265637420783d223135302220793d223234222077696474683d223930222081527f6865696768743d223234222072783d223132222066696c6c3d220000000000006020820152603a0161457691613323565b631110179f60e11b81526004017f3c7465787420783d223139352220793d2234312220746578742d616e63686f7281527f3d226d6964646c652220636c6173733d227374617475732d6261646765223e006020820152603f016145d891613323565b661e17ba32bc3a1f60c91b81526007017f3c67207472616e73666f726d3d227472616e736c6174652831362c203330302981527f223e00000000000000000000000000000000000000000000000000000000000060208201526022017f3c7465787420636c6173733d226c6162656c223e5465726d3c2f746578743e008152601f017f3c7465787420793d2232302220636c6173733d2276616c7565223e00000000008152601b0161468991613323565b7f20446179733c2f746578743e00000000000000000000000000000000000000008152600c017f3c7465787420793d2235302220636c6173733d226c6162656c223e556e6974738152661e17ba32bc3a1f60c91b60208201526027017f3c7465787420793d2237302220636c6173733d2276616c7565223e00000000008152601b0161471491613323565b661e17ba32bc3a1f60c91b8152600701631e17b39f60e11b81526004017f3c2f7376673e00000000000000000000000000000000000000000000000000008152600601613768565b82518481019061477c816147708486613323565b038881018352826109ef565b5190208351656d617475726560d01b8682019081529061479f8160068401613f96565b51902014156147df57506147b1610a31565b6147b9613d5c565b81526147c3613d95565b84820152946147d0613dce565b906147d9613e07565b90613fde565b82516147fe816147f28782018095613323565b038781018352826109ef565b51902082516670656e616c747960c81b858201908152906148228160078401614770565b519020141561485b57614833610a31565b61483b613c78565b8152614845613cb1565b8482015294614852613cea565b906147d9613d23565b614863610a31565b61486b613b94565b8152614875613bcd565b8482015294614882613c06565b906147d9613c3f565b67800000000000000081101561081e5760401b600f0b90565b600f0b6000811261081e5760401d90565b90600f0b90600f0b0260401d6f7fffffffffffffffffffffffffffffff19811215806148e7575b1561081e57600f0b90565b506f7fffffffffffffffffffffffffffffff8113156148dc565b90600f9082820b6f7fffffffffffffffffffffffffffffff8112156149d9576803ffffffffffffffff19136149d15768010000000000000000916002918490845b600083850b8181126149a35750506000835b850b131561499a576149866149768861497086614991956149e2565b956148b5565b966149808761488b565b906148b5565b600181960196614a10565b91949394614942565b95509350505050565b6f7fffffffffffffffffffffffffffffff19146149c6578360009103850b614954565b965050505050505080fd5b915050600090565b50505050600080fd5b90600f0b90600f0b016f7fffffffffffffffffffffffffffffff19811215806148e7571561081e57600f0b90565b90600f0b9081156109305760401b60170b056f7fffffffffffffffffffffffffffffff19811215806148e7571561081e57600f0b90565b8015612b4c57600090805b614a74575060018110614a67575b6000190190565b614a6f611bee565b614a60565b60011c908190614a8390612d39565b91614a5256fea36469706673582212205a525e07515440d143fed7c2cf1eeb1512847ff07c281d34d7e5a235341dd12d6c6578706572696d656e74616cf564736f6c634300080a0041",
  "linkReferences": {},
  "deployedLinkReferences": {}
}