{
  "_format": "hh-sol-artifact-1",
  "contractName": "TokenCore",
  "sourceName": "contracts/TokenCore.sol",
  "abi": [
    {
      "inputs": [],
      "stateMutability": "nonpayable",
      "type": "constructor"
    },
    {
      "anonymous": false,
      "inputs": [
        {
          "indexed": true,
          "internalType": "address",
          "name": "owner",
          "type": "address"
        },
        {
          "indexed": true,
          "internalType": "address",
          "name": "spender",
          "type": "address"
        },
        {
          "indexed": false,
          "internalType": "uint256",
          "name": "value",
          "type": "uint256"
        }
      ],
      "name": "Approval",
      "type": "event"
    },
    {
      "anonymous": false,
      "inputs": [
        {
          "indexed": true,
          "internalType": "address",
          "name": "previousOwner",
          "type": "address"
        },
        {
          "indexed": true,
          "internalType": "address",
          "name": "newOwner",
          "type": "address"
        }
      ],
      "name": "OwnershipTransferred",
      "type": "event"
    },
    {
      "anonymous": false,
      "inputs": [
        {
          "indexed": true,
          "internalType": "address",
          "name": "from",
          "type": "address"
        },
        {
          "indexed": true,
          "internalType": "address",
          "name": "to",
          "type": "address"
        },
        {
          "indexed": false,
          "internalType": "uint256",
          "name": "value",
          "type": "uint256"
        }
      ],
      "name": "Transfer",
      "type": "event"
    },
    {
      "inputs": [
        {
          "internalType": "address",
          "name": "owner",
          "type": "address"
        },
        {
          "internalType": "address",
          "name": "spender",
          "type": "address"
        }
      ],
      "name": "allowance",
      "outputs": [
        {
          "internalType": "uint256",
          "name": "",
          "type": "uint256"
        }
      ],
      "stateMutability": "view",
      "type": "function"
    },
    {
      "inputs": [
        {
          "internalType": "address",
          "name": "spender",
          "type": "address"
        },
        {
          "internalType": "uint256",
          "name": "amount",
          "type": "uint256"
        }
      ],
      "name": "approve",
      "outputs": [
        {
          "internalType": "bool",
          "name": "",
          "type": "bool"
        }
      ],
      "stateMutability": "nonpayable",
      "type": "function"
    },
    {
      "inputs": [
        {
          "internalType": "address",
          "name": "account",
          "type": "address"
        }
      ],
      "name": "balanceOf",
      "outputs": [
        {
          "internalType": "uint256",
          "name": "",
          "type": "uint256"
        }
      ],
      "stateMutability": "view",
      "type": "function"
    },
    {
      "inputs": [],
      "name": "decimals",
      "outputs": [
        {
          "internalType": "uint8",
          "name": "",
          "type": "uint8"
        }
      ],
      "stateMutability": "view",
      "type": "function"
    },
    {
      "inputs": [
        {
          "internalType": "address",
          "name": "spender",
          "type": "address"
        },
        {
          "internalType": "uint256",
          "name": "subtractedValue",
          "type": "uint256"
        }
      ],
      "name": "decreaseAllowance",
      "outputs": [
        {
          "internalType": "bool",
          "name": "",
          "type": "bool"
        }
      ],
      "stateMutability": "nonpayable",
      "type": "function"
    },
    {
      "inputs": [
        {
          "internalType": "address",
          "name": "spender",
          "type": "address"
        },
        {
          "internalType": "uint256",
          "name": "addedValue",
          "type": "uint256"
        }
      ],
      "name": "increaseAllowance",
      "outputs": [
        {
          "internalType": "bool",
          "name": "",
          "type": "bool"
        }
      ],
      "stateMutability": "nonpayable",
      "type": "function"
    },
    {
      "inputs": [
        {
          "internalType": "address",
          "name": "to",
          "type": "address"
        },
        {
          "internalType": "uint256",
          "name": "amount",
          "type": "uint256"
        }
      ],
      "name": "mint",
      "outputs": [],
      "stateMutability": "nonpayable",
      "type": "function"
    },
    {
      "inputs": [],
      "name": "minterContract",
      "outputs": [
        {
          "internalType": "address",
          "name": "",
          "type": "address"
        }
      ],
      "stateMutability": "view",
      "type": "function"
    },
    {
      "inputs": [],
      "name": "name",
      "outputs": [
        {
          "internalType": "string",
          "name": "",
          "type": "string"
        }
      ],
      "stateMutability": "view",
      "type": "function"
    },
    {
      "inputs": [],
      "name": "owner",
      "outputs": [
        {
          "internalType": "address",
          "name": "",
          "type": "address"
        }
      ],
      "stateMutability": "view",
      "type": "function"
    },
    {
      "inputs": [
        {
          "internalType": "address",
          "name": "to",
          "type": "address"
        },
        {
          "internalType": "uint256",
          "name": "amount",
          "type": "uint256"
        }
      ],
      "name": "ownerMint",
      "outputs": [],
      "stateMutability": "nonpayable",
      "type": "function"
    },
    {
      "inputs": [
        {
          "internalType": "address",
          "name": "tokenAddress",
          "type": "address"
        },
        {
          "internalType": "uint256",
          "name": "amount",
          "type": "uint256"
        }
      ],
      "name": "recoverTokens",
      "outputs": [],
      "stateMutability": "nonpayable",
      "type": "function"
    },
    {
      "inputs": [],
      "name": "renounceOwnership",
      "outputs": [],
      "stateMutability": "nonpayable",
      "type": "function"
    },
    {
      "inputs": [
        {
          "internalType": "address",
          "name": "_minterAddress",
          "type": "address"
        }
      ],
      "name": "setMinterContract",
      "outputs": [],
      "stateMutability": "nonpayable",
      "type": "function"
    },
    {
      "inputs": [],
      "name": "symbol",
      "outputs": [
        {
          "internalType": "string",
          "name": "",
          "type": "string"
        }
      ],
      "stateMutability": "view",
      "type": "function"
    },
    {
      "inputs": [],
      "name": "totalSupply",
      "outputs": [
        {
          "internalType": "uint256",
          "name": "",
          "type": "uint256"
        }
      ],
      "stateMutability": "view",
      "type": "function"
    },
    {
      "inputs": [
        {
          "internalType": "address",
          "name": "to",
          "type": "address"
        },
        {
          "internalType": "uint256",
          "name": "amount",
          "type": "uint256"
        }
      ],
      "name": "transfer",
      "outputs": [
        {
          "internalType": "bool",
          "name": "",
          "type": "bool"
        }
      ],
      "stateMutability": "nonpayable",
      "type": "function"
    },
    {
      "inputs": [
        {
          "internalType": "address",
          "name": "from",
          "type": "address"
        },
        {
          "internalType": "address",
          "name": "to",
          "type": "address"
        },
        {
          "internalType": "uint256",
          "name": "amount",
          "type": "uint256"
        }
      ],
      "name": "transferFrom",
      "outputs": [
        {
          "internalType": "bool",
          "name": "",
          "type": "bool"
        }
      ],
      "stateMutability": "nonpayable",
      "type": "function"
    },
    {
      "inputs": [
        {
          "internalType": "address",
          "name": "newOwner",
          "type": "address"
        }
      ],
      "name": "transferOwnership",
      "outputs": [],
      "stateMutability": "nonpayable",
      "type": "function"
    }
  ],
  "bytecode": "0x6080604052346200016f57620000146200018b565b60206929b632b2b81021b7b4b760b11b8183015262000032620001c0565b67534c454550494e4760c01b82820152825190916001600160401b0382116200015f575b6200006e8262000068600354620001f5565b62000234565b80601f8311600114620000ce57508190620000a794600092620000c2575b50508160011b916000199060031b1c191617600355620002e6565b620000b233620003ea565b6040516110a09081620004378239f35b0151905038806200008c565b60036000529193601f1985167fc2575a0e9e593c00f959f8c92f12db2869c3395a3b0502d05e2516446f71f85b936000905b82821062000146575050916001939186620000a79794106200012c575b505050811b01600355620002e6565b015160001960f88460031b161c191690553880806200011d565b8060018697829497870151815501960194019062000100565b6200016962000174565b62000056565b600080fd5b50634e487b7160e01b600052604160045260246000fd5b60408051919082016001600160401b03811183821017620001b0575b604052600a8252565b620001ba62000174565b620001a7565b60408051919082016001600160401b03811183821017620001e5575b60405260088252565b620001ef62000174565b620001dc565b90600182811c9216801562000229575b60208310146200021157565b5050634e487b7160e01b600052602260045260246000fd5b91607f169162000205565b601f811162000241575050565b6000906003825260208220906020601f850160051c8301941062000282575b601f0160051c01915b8281106200027657505050565b81815560010162000269565b909250829062000260565b601f81116200029a575050565b6000906004825260208220906020601f850160051c83019410620002db575b601f0160051c01915b828110620002cf57505050565b818155600101620002c2565b9092508290620002b9565b80519091906001600160401b038111620003da575b62000313816200030d600454620001f5565b6200028d565b602080601f831160011462000352575081929360009262000346575b50508160011b916000199060031b1c191617600455565b0151905038806200032f565b6004600052601f198316949091907f8a35acfbc15ff81a39ae7d344fd709f28e8600b4aa8c65c6b64bfe7fe36bd19b926000905b878210620003c1575050836001959610620003a7575b505050811b01600455565b015160001960f88460031b161c191690553880806200039c565b8060018596829496860151815501950193019062000386565b620003e462000174565b620002fb565b600580546001600160a01b038381166001600160a01b03198316179092556040519116907f8be0079c531659141344cd1fd0a4f28419497f9722a3daafe3b4186f6b6457e090600090a356fe6040608081526004361015610015575b50600080fd5b600090813560e01c8063069c9fae1461039a57806306fdde031461037e578063095ea7b31461036157806318160ddd1461033b57806323b872dd1461031e578063313ce567146102fe57806338478ae7146102e757806339509351146102ca57806340c10f19146102b2578063484b973c1461029a57806370a082311461025a578063715018a6146102435780638da5cb5b1461021357806392f00233146101e357806395d89b41146101bc578063a457c2d71461019f578063a9059cbb14610171578063dd62ed3e146101105763f2fde38b146100f3575061000f565b3461010c5761010961010436610484565b61058d565b51f35b5080fd5b503461010c5761016d915061015d61014561012a366104a7565b91906001600160a01b03166000526001602052604060002090565b906001600160a01b0316600052602052604060002090565b5490519081529081906020820190565b0390f35b503461010c5761016d915061018e610188366103b2565b90610849565b905190151581529081906020820190565b503461010c5761016d915061018e6101b6366103b2565b90610978565b503461010c5761016d91506101d0366103e0565b6101d861078c565b9051918291826103ee565b503461010c5761016d91506101f7366103e0565b60065490516001600160a01b0390911681529081906020820190565b503461010c5761016d9150610227366103e0565b60055490516001600160a01b0390911681529081906020820190565b503461010c57610252366103e0565b6101096104da565b503461010c5761016d915061028b61027136610484565b6001600160a01b0316600052600060205260406000205490565b90519081529081906020820190565b503461010c576101096102ac366103b2565b90610ecd565b503461010c576101096102c4366103b2565b90610d8b565b503461010c5761016d915061018e6102e1366103b2565b9061093a565b503461010c576101096102f936610484565b61102a565b509034610319575061030f366103e0565b5160128152602090f35b809150fd5b503461010c5761016d915061018e61033536610445565b91610864565b503461010c5761016d915061034f366103e0565b60025490519081529081906020820190565b503461010c5761016d915061018e610378366103b2565b90610859565b503461010c5761016d9150610392366103e0565b6101d8610698565b503461010c576101096103ac366103b2565b90610edf565b604090600319011261000f576004356001600160a01b0381168114156103d9579060243590565b5050600080fd5b600090600319011261000f57565b919091602080825283519081818401526000945b82861061042f575050806040939411610422575b601f01601f1916010190565b6000838284010152610416565b8581018201518487016040015294810194610402565b606090600319011261000f576001600160a01b039060043582811681141561047c579160243590811681141561047c579060443590565b505050600080fd5b602090600319011261000f576004356001600160a01b0381168114156103d95790565b604090600319011261000f576001600160a01b039060043582811681141561047c579160243590811681141561047c5790565b6104e2610533565b60006001600160a01b0360055473ffffffffffffffffffffffffffffffffffffffff198116600555167f8be0079c531659141344cd1fd0a4f28419497f9722a3daafe3b4186f6b6457e082604051a3565b6001600160a01b036005541633141561054857565b50606460405162461bcd60e51b815260206004820152602060248201527f4f776e61626c653a2063616c6c6572206973206e6f7420746865206f776e65726044820152fd5b610595610533565b6001600160a01b0380821680156105f0576005549073ffffffffffffffffffffffffffffffffffffffff19821617600555167f8be0079c531659141344cd1fd0a4f28419497f9722a3daafe3b4186f6b6457e06000604051a3565b50505050608460405162461bcd60e51b815260206004820152602660248201527f4f776e61626c653a206e6577206f776e657220697320746865207a65726f206160448201527f64647265737300000000000000000000000000000000000000000000000000006064820152fd5b90601f8019910116810190811067ffffffffffffffff82111761068057604052565b5050634e487b7160e01b600052604160045260246000fd5b60405190600060035490600182811c92818116918215610782575b60209182861084146107665785885287949360208601939291811561074e57506001146106ec575b5050506106ea9250038361065e565b565b92509361071b60036000527fc2575a0e9e593c00f959f8c92f12db2869c3395a3b0502d05e2516446f71f85b90565b946000935b828510610738575050506106ea9350013880806106db565b8654858501529586019588955093810193610720565b60ff19168452506106ea9550500190503880806106db565b5050634e487b7160e01b83525050602260045260249350915050fd5b93607f16936106b3565b60405190600060045490600182811c9281811691821561083f575b60209182861084146107665785885287949360208601939291811561074e57506001146107dd575050506106ea9250038361065e565b92509361080c60046000527f8a35acfbc15ff81a39ae7d344fd709f28e8600b4aa8c65c6b64bfe7fe36bd19b90565b946000935b828510610829575050506106ea9350013880806106db565b8654858501529586019588955093810193610811565b93607f16936107a7565b906108549133610b09565b600190565b906108549133610c3e565b91906001600160a01b0383166000526001602052610899336040600020906001600160a01b0316600052602052604060002090565b54926000198414156108b0575b6108549350610b09565b8284106108cc576108c78361085495033383610c3e565b6108a6565b5050505050606460405162461bcd60e51b815260206004820152601d60248201527f45524332303a20696e73756666696369656e7420616c6c6f77616e63650000006044820152fd5b81198111610921570190565b505050634e487b7160e01b600052601160045260246000fd5b6109716108549233600052600160205261096b836040600020906001600160a01b0316600052602052604060002090565b54610915565b9033610c3e565b3360005260016020526109a2816040600020906001600160a01b0316600052602052604060002090565b54918083106109b75761085492039033610c3e565b50505050608460405162461bcd60e51b815260206004820152602560248201527f45524332303a2064656372656173656420616c6c6f77616e63652062656c6f7760448201527f207a65726f0000000000000000000000000000000000000000000000000000006064820152fd5b15610a2c57565b50608460405162461bcd60e51b815260206004820152602360248201527f45524332303a207472616e7366657220746f20746865207a65726f206164647260448201527f65737300000000000000000000000000000000000000000000000000000000006064820152fd5b15610a9e57565b50608460405162461bcd60e51b815260206004820152602660248201527f45524332303a207472616e7366657220616d6f756e742065786365656473206260448201527f616c616e636500000000000000000000000000000000000000000000000000006064820152fd5b90916001600160a01b0380831615610bcf577fddf252ad1be2c89b69c2b068fc378daa952ba7f163c4a11628f55a4df523b3ef91610b4d610bca9286161515610a25565b80610b6b856001600160a01b03166000526000602052604060002090565b54610b7882821015610a97565b03610b96856001600160a01b03166000526000602052604060002090565b55610bb4856001600160a01b03166000526000602052604060002090565b8054820190556040519081529081906020820190565b0390a3565b5050505050608460405162461bcd60e51b815260206004820152602560248201527f45524332303a207472616e736665722066726f6d20746865207a65726f20616460448201527f64726573730000000000000000000000000000000000000000000000000000006064820152fd5b90916001600160a01b0380831615610d1d57831615610caf57610bca817f8c5be1e5ebec7d5bd14f71427d1e84f3dd0314c0f7b2291e5b200ac8c7c3b92592610c9e86610145876001600160a01b03166000526001602052604060002090565b556040519081529081906020820190565b50505050608460405162461bcd60e51b815260206004820152602260248201527f45524332303a20617070726f766520746f20746865207a65726f20616464726560448201527f73730000000000000000000000000000000000000000000000000000000000006064820152fd5b5050505050608460405162461bcd60e51b8152602060048201526024808201527f45524332303a20617070726f76652066726f6d20746865207a65726f2061646460448201527f72657373000000000000000000000000000000000000000000000000000000006064820152fd5b906001600160a01b0360065416331415610da8576106ea91610e15565b505050608460405162461bcd60e51b815260206004820152602860248201527f534c4545503a2043616c6c6572206973206e6f7420746865206d696e7465722060448201527f636f6e74726163740000000000000000000000000000000000000000000000006064820152fd5b906001600160a01b03821615610e86577fddf252ad1be2c89b69c2b068fc378daa952ba7f163c4a11628f55a4df523b3ef602082610e57600094600254610915565b600255610e77856001600160a01b03166000526000602052604060002090565b818154019055604051908152a3565b505050606460405162461bcd60e51b815260206004820152601f60248201527f45524332303a206d696e7420746f20746865207a65726f2061646472657373006044820152fd5b906106ea91610eda610533565b610e15565b6001600160a01b0390610ef0610533565b16308114610f9757610f5e91602091610f116005546001600160a01b031690565b60006040518096819582947fa9059cbb00000000000000000000000000000000000000000000000000000000845260048401602090939291936001600160a01b0360408201951681520152565b03925af18015610f8a575b610f705750565b610f8790610f7e3d8261065e565b3d810190611004565b50565b610f9261101d565b610f69565b505050608460405162461bcd60e51b815260206004820152602f60248201527f534c4545503a2043616e6e6f74207265636f7665722074686520636f6e74726160448201527f63742773206f776e20746f6b656e2e00000000000000000000000000000000006064820152fd5b908160209103126103d957518015158114156103d95790565b506040513d6000823e3d90fd5b6001600160a01b039061103b610533565b1673ffffffffffffffffffffffffffffffffffffffff19600654161760065556fea36469706673582212201cbc8a550d86960f948ec75846d159bd83865f4d0682bb889e9215e2a308f6c46c6578706572696d656e74616cf564736f6c634300080a0041",
  "linkReferences": {},
  "deployedLinkReferences": {}
}