{
  "_format": "hh-sol-artifact-1",
  "contractName": "TokenTreasury",
  "sourceName": "contracts/TokenTreasury.sol",
  "abi": [
    {
      "inputs": [
        {
          "internalType": "address",
          "name": "_sleepToken",
          "type": "address"
        },
        {
          "internalType": "address",
          "name": "_sleepMinter",
          "type": "address"
        },
        {
          "internalType": "address",
          "name": "_stakingRewards",
          "type": "address"
        },
        {
          "internalType": "address",
          "name": "_polAddress",
          "type": "address"
        }
      ],
      "stateMutability": "nonpayable",
      "type": "constructor"
    },
    {
      "anonymous": false,
      "inputs": [
        {
          "indexed": true,
          "internalType": "address",
          "name": "recipient",
          "type": "address"
        },
        {
          "indexed": false,
          "internalType": "uint256",
          "name": "amount",
          "type": "uint256"
        },
        {
          "indexed": false,
          "internalType": "string",
          "name": "allocationType",
          "type": "string"
        }
      ],
      "name": "AllocationExecuted",
      "type": "event"
    },
    {
      "anonymous": false,
      "inputs": [
        {
          "indexed": true,
          "internalType": "address",
          "name": "newEngine",
          "type": "address"
        }
      ],
      "name": "BuyAndBurnEngineUpdated",
      "type": "event"
    },
    {
      "anonymous": false,
      "inputs": [
        {
          "indexed": true,
          "internalType": "uint256",
          "name": "epochNumber",
          "type": "uint256"
        },
        {
          "indexed": false,
          "internalType": "uint256",
          "name": "rankGrowth",
          "type": "uint256"
        },
        {
          "indexed": false,
          "internalType": "uint8",
          "name": "polPercent",
          "type": "uint8"
        },
        {
          "indexed": false,
          "internalType": "uint8",
          "name": "stakingPercent",
          "type": "uint8"
        },
        {
          "indexed": false,
          "internalType": "uint8",
          "name": "burnPercent",
          "type": "uint8"
        }
      ],
      "name": "EpochFinalized",
      "type": "event"
    },
    {
      "anonymous": false,
      "inputs": [
        {
          "indexed": true,
          "internalType": "uint256",
          "name": "epochNumber",
          "type": "uint256"
        },
        {
          "indexed": false,
          "internalType": "uint256",
          "name": "startTime",
          "type": "uint256"
        },
        {
          "indexed": false,
          "internalType": "uint256",
          "name": "startGlobalRank",
          "type": "uint256"
        }
      ],
      "name": "EpochStarted",
      "type": "event"
    },
    {
      "anonymous": false,
      "inputs": [
        {
          "indexed": true,
          "internalType": "address",
          "name": "previousOwner",
          "type": "address"
        },
        {
          "indexed": true,
          "internalType": "address",
          "name": "newOwner",
          "type": "address"
        }
      ],
      "name": "OwnershipTransferred",
      "type": "event"
    },
    {
      "anonymous": false,
      "inputs": [
        {
          "indexed": true,
          "internalType": "address",
          "name": "newAddress",
          "type": "address"
        }
      ],
      "name": "POLAddressUpdated",
      "type": "event"
    },
    {
      "anonymous": false,
      "inputs": [
        {
          "indexed": true,
          "internalType": "uint256",
          "name": "epochNumber",
          "type": "uint256"
        },
        {
          "indexed": false,
          "internalType": "uint256",
          "name": "okbAmount",
          "type": "uint256"
        },
        {
          "indexed": false,
          "internalType": "uint256",
          "name": "sleepAmount",
          "type": "uint256"
        }
      ],
      "name": "RevenueDistributed",
      "type": "event"
    },
    {
      "anonymous": false,
      "inputs": [
        {
          "indexed": true,
          "internalType": "address",
          "name": "newAddress",
          "type": "address"
        }
      ],
      "name": "StakingRewardsAddressUpdated",
      "type": "event"
    },
    {
      "inputs": [],
      "name": "BULL_THRESHOLD",
      "outputs": [
        {
          "internalType": "uint256",
          "name": "",
          "type": "uint256"
        }
      ],
      "stateMutability": "view",
      "type": "function"
    },
    {
      "inputs": [],
      "name": "BURN_ADDRESS",
      "outputs": [
        {
          "internalType": "address",
          "name": "",
          "type": "address"
        }
      ],
      "stateMutability": "view",
      "type": "function"
    },
    {
      "inputs": [],
      "name": "EPOCH_DURATION",
      "outputs": [
        {
          "internalType": "uint256",
          "name": "",
          "type": "uint256"
        }
      ],
      "stateMutability": "view",
      "type": "function"
    },
    {
      "inputs": [],
      "name": "WINTER_THRESHOLD",
      "outputs": [
        {
          "internalType": "uint256",
          "name": "",
          "type": "uint256"
        }
      ],
      "stateMutability": "view",
      "type": "function"
    },
    {
      "inputs": [],
      "name": "bullMode",
      "outputs": [
        {
          "internalType": "uint8",
          "name": "polPercent",
          "type": "uint8"
        },
        {
          "internalType": "uint8",
          "name": "stakingPercent",
          "type": "uint8"
        },
        {
          "internalType": "uint8",
          "name": "burnPercent",
          "type": "uint8"
        }
      ],
      "stateMutability": "view",
      "type": "function"
    },
    {
      "inputs": [],
      "name": "buyAndBurnEngine",
      "outputs": [
        {
          "internalType": "address",
          "name": "",
          "type": "address"
        }
      ],
      "stateMutability": "view",
      "type": "function"
    },
    {
      "inputs": [],
      "name": "checkAndUpdateEpoch",
      "outputs": [],
      "stateMutability": "nonpayable",
      "type": "function"
    },
    {
      "inputs": [],
      "name": "currentEpoch",
      "outputs": [
        {
          "internalType": "uint256",
          "name": "",
          "type": "uint256"
        }
      ],
      "stateMutability": "view",
      "type": "function"
    },
    {
      "inputs": [
        {
          "internalType": "address",
          "name": "token",
          "type": "address"
        },
        {
          "internalType": "uint256",
          "name": "amount",
          "type": "uint256"
        }
      ],
      "name": "emergencyWithdraw",
      "outputs": [],
      "stateMutability": "nonpayable",
      "type": "function"
    },
    {
      "inputs": [
        {
          "internalType": "uint256",
          "name": "",
          "type": "uint256"
        }
      ],
      "name": "epochOkbRevenue",
      "outputs": [
        {
          "internalType": "uint256",
          "name": "",
          "type": "uint256"
        }
      ],
      "stateMutability": "view",
      "type": "function"
    },
    {
      "inputs": [
        {
          "internalType": "uint256",
          "name": "",
          "type": "uint256"
        }
      ],
      "name": "epochSleepRevenue",
      "outputs": [
        {
          "internalType": "uint256",
          "name": "",
          "type": "uint256"
        }
      ],
      "stateMutability": "view",
      "type": "function"
    },
    {
      "inputs": [
        {
          "internalType": "uint256",
          "name": "",
          "type": "uint256"
        }
      ],
      "name": "epochs",
      "outputs": [
        {
          "internalType": "uint256",
          "name": "startTime",
          "type": "uint256"
        },
        {
          "internalType": "uint256",
          "name": "endTime",
          "type": "uint256"
        },
        {
          "internalType": "uint256",
          "name": "startGlobalRank",
          "type": "uint256"
        },
        {
          "internalType": "uint256",
          "name": "endGlobalRank",
          "type": "uint256"
        },
        {
          "internalType": "uint256",
          "name": "rankGrowth",
          "type": "uint256"
        },
        {
          "internalType": "bool",
          "name": "isFinalized",
          "type": "bool"
        },
        {
          "internalType": "uint8",
          "name": "polPercent",
          "type": "uint8"
        },
        {
          "internalType": "uint8",
          "name": "stakingPercent",
          "type": "uint8"
        },
        {
          "internalType": "uint8",
          "name": "burnPercent",
          "type": "uint8"
        }
      ],
      "stateMutability": "view",
      "type": "function"
    },
    {
      "inputs": [],
      "name": "getCurrentEpochInfo",
      "outputs": [
        {
          "internalType": "uint256",
          "name": "epochNumber",
          "type": "uint256"
        },
        {
          "internalType": "uint256",
          "name": "startTime",
          "type": "uint256"
        },
        {
          "internalType": "uint256",
          "name": "endTime",
          "type": "uint256"
        },
        {
          "internalType": "uint256",
          "name": "timeRemaining",
          "type": "uint256"
        },
        {
          "internalType": "uint256",
          "name": "startGlobalRank",
          "type": "uint256"
        },
        {
          "internalType": "uint256",
          "name": "currentGlobalRank",
          "type": "uint256"
        },
        {
          "internalType": "uint256",
          "name": "currentGrowth",
          "type": "uint256"
        }
      ],
      "stateMutability": "view",
      "type": "function"
    },
    {
      "inputs": [
        {
          "internalType": "uint256",
          "name": "epochNumber",
          "type": "uint256"
        }
      ],
      "name": "getEpochData",
      "outputs": [
        {
          "components": [
            {
              "internalType": "uint256",
              "name": "startTime",
              "type": "uint256"
            },
            {
              "internalType": "uint256",
              "name": "endTime",
              "type": "uint256"
            },
            {
              "internalType": "uint256",
              "name": "startGlobalRank",
              "type": "uint256"
            },
            {
              "internalType": "uint256",
              "name": "endGlobalRank",
              "type": "uint256"
            },
            {
              "internalType": "uint256",
              "name": "rankGrowth",
              "type": "uint256"
            },
            {
              "internalType": "bool",
              "name": "isFinalized",
              "type": "bool"
            },
            {
              "internalType": "uint8",
              "name": "polPercent",
              "type": "uint8"
            },
            {
              "internalType": "uint8",
              "name": "stakingPercent",
              "type": "uint8"
            },
            {
              "internalType": "uint8",
              "name": "burnPercent",
              "type": "uint8"
            }
          ],
          "internalType": "struct TokenTreasury.EpochData",
          "name": "",
          "type": "tuple"
        }
      ],
      "stateMutability": "view",
      "type": "function"
    },
    {
      "inputs": [],
      "name": "getRevenueStats",
      "outputs": [
        {
          "internalType": "uint256",
          "name": "totalOkb",
          "type": "uint256"
        },
        {
          "internalType": "uint256",
          "name": "totalSleep",
          "type": "uint256"
        },
        {
          "internalType": "uint256",
          "name": "currentEpochOkb",
          "type": "uint256"
        },
        {
          "internalType": "uint256",
          "name": "currentEpochSleep",
          "type": "uint256"
        }
      ],
      "stateMutability": "view",
      "type": "function"
    },
    {
      "inputs": [],
      "name": "manuallyFinalizeEpoch",
      "outputs": [],
      "stateMutability": "nonpayable",
      "type": "function"
    },
    {
      "inputs": [],
      "name": "owner",
      "outputs": [
        {
          "internalType": "address",
          "name": "",
          "type": "address"
        }
      ],
      "stateMutability": "view",
      "type": "function"
    },
    {
      "inputs": [],
      "name": "polAddress",
      "outputs": [
        {
          "internalType": "address",
          "name": "",
          "type": "address"
        }
      ],
      "stateMutability": "view",
      "type": "function"
    },
    {
      "inputs": [],
      "name": "previewAllocation",
      "outputs": [
        {
          "internalType": "uint8",
          "name": "pol",
          "type": "uint8"
        },
        {
          "internalType": "uint8",
          "name": "staking",
          "type": "uint8"
        },
        {
          "internalType": "uint8",
          "name": "burn",
          "type": "uint8"
        }
      ],
      "stateMutability": "view",
      "type": "function"
    },
    {
      "inputs": [],
      "name": "protocolStartTime",
      "outputs": [
        {
          "internalType": "uint256",
          "name": "",
          "type": "uint256"
        }
      ],
      "stateMutability": "view",
      "type": "function"
    },
    {
      "inputs": [
        {
          "internalType": "uint256",
          "name": "amount",
          "type": "uint256"
        }
      ],
      "name": "receiveSleepTokens",
      "outputs": [],
      "stateMutability": "nonpayable",
      "type": "function"
    },
    {
      "inputs": [],
      "name": "renounceOwnership",
      "outputs": [],
      "stateMutability": "nonpayable",
      "type": "function"
    },
    {
      "inputs": [
        {
          "internalType": "address",
          "name": "_buyAndBurnEngine",
          "type": "address"
        }
      ],
      "name": "setBuyAndBurnEngine",
      "outputs": [],
      "stateMutability": "nonpayable",
      "type": "function"
    },
    {
      "inputs": [
        {
          "internalType": "address",
          "name": "_polAddress",
          "type": "address"
        }
      ],
      "name": "setPOLAddress",
      "outputs": [],
      "stateMutability": "nonpayable",
      "type": "function"
    },
    {
      "inputs": [
        {
          "internalType": "address",
          "name": "_stakingRewards",
          "type": "address"
        }
      ],
      "name": "setStakingRewardsAddress",
      "outputs": [],
      "stateMutability": "nonpayable",
      "type": "function"
    },
    {
      "inputs": [],
      "name": "sleepMinter",
      "outputs": [
        {
          "internalType": "contract ISleepMinter",
          "name": "",
          "type": "address"
        }
      ],
      "stateMutability": "view",
      "type": "function"
    },
    {
      "inputs": [],
      "name": "sleepToken",
      "outputs": [
        {
          "internalType": "contract ISleepCoin",
          "name": "",
          "type": "address"
        }
      ],
      "stateMutability": "view",
      "type": "function"
    },
    {
      "inputs": [],
      "name": "stakingRewards",
      "outputs": [
        {
          "internalType": "contract IStakingRewards",
          "name": "",
          "type": "address"
        }
      ],
      "stateMutability": "view",
      "type": "function"
    },
    {
      "inputs": [],
      "name": "stakingRewardsAddress",
      "outputs": [
        {
          "internalType": "address",
          "name": "",
          "type": "address"
        }
      ],
      "stateMutability": "view",
      "type": "function"
    },
    {
      "inputs": [],
      "name": "totalOkbReceived",
      "outputs": [
        {
          "internalType": "uint256",
          "name": "",
          "type": "uint256"
        }
      ],
      "stateMutability": "view",
      "type": "function"
    },
    {
      "inputs": [],
      "name": "totalSleepReceived",
      "outputs": [
        {
          "internalType": "uint256",
          "name": "",
          "type": "uint256"
        }
      ],
      "stateMutability": "view",
      "type": "function"
    },
    {
      "inputs": [
        {
          "internalType": "address",
          "name": "newOwner",
          "type": "address"
        }
      ],
      "name": "transferOwnership",
      "outputs": [],
      "stateMutability": "nonpayable",
      "type": "function"
    },
    {
      "inputs": [
        {
          "internalType": "uint8",
          "name": "winterPol",
          "type": "uint8"
        },
        {
          "internalType": "uint8",
          "name": "winterStaking",
          "type": "uint8"
        },
        {
          "internalType": "uint8",
          "name": "winterBurn",
          "type": "uint8"
        },
        {
          "internalType": "uint8",
          "name": "bullPol",
          "type": "uint8"
        },
        {
          "internalType": "uint8",
          "name": "bullStaking",
          "type": "uint8"
        },
        {
          "internalType": "uint8",
          "name": "bullBurn",
          "type": "uint8"
        }
      ],
      "name": "updateAllocationModes",
      "outputs": [],
      "stateMutability": "nonpayable",
      "type": "function"
    },
    {
      "inputs": [],
      "name": "winterMode",
      "outputs": [
        {
          "internalType": "uint8",
          "name": "polPercent",
          "type": "uint8"
        },
        {
          "internalType": "uint8",
          "name": "stakingPercent",
          "type": "uint8"
        },
        {
          "internalType": "uint8",
          "name": "burnPercent",
          "type": "uint8"
        }
      ],
      "stateMutability": "view",
      "type": "function"
    },
    {
      "stateMutability": "payable",
      "type": "receive"
    }
  ],
  "bytecode": "0x60808060405234620002105760808162002539803803809162000023828562000216565b833981010312620002105780620001bf62000042620001e193620002ac565b916200019d6200005560208301620002ac565b936200017b6200007660606200006e60408701620002ac565b9501620002ac565b956200008162000420565b620000b56200008f62000252565b60378152602860208201526005604090910152600b805462ffffff191662052837179055565b620000e9620000c362000252565b600a8152604660208201526014604090910152600c805462ffffff19166214460a179055565b6001600160a01b03928316906200015990849062000109841515620002c9565b16916200011883151562000325565b62000137858816956200012d87151562000372565b8a161515620003d2565b600280546001600160a01b0319166001600160a01b0392909216919091179055565b600380546001600160a01b0319166001600160a01b0392909216919091179055565b600480546001600160a01b0319166001600160a01b0392909216919091179055565b600580546001600160a01b0319166001600160a01b0392909216919091179055565b600680546001600160a01b0319166001600160a01b0392909216919091179055565b620001eb42600855565b620001f66000600955565b620002006200058f565b604051611e7e9081620006bb8239f35b50600080fd5b601f909101601f19168101906001600160401b038211908210176200023a57604052565b5050634e487b7160e01b600052604160045260246000fd5b60405190606082016001600160401b038111838210176200027257604052565b505050634e487b7160e01b600052604160045260246000fd5b6040519061012082016001600160401b038111838210176200027257604052565b51906001600160a01b038216821415620002c257565b5050600080fd5b15620002d157565b5060405162461bcd60e51b815260206004820152602560248201527f54726561737572793a20496e76616c696420736c65657020746f6b656e206164604482015264647265737360d81b6064820152608490fd5b156200032d57565b50606460405162461bcd60e51b815260206004820152602060248201527f54726561737572793a20496e76616c6964206d696e74657220616464726573736044820152fd5b156200037a57565b5060405162461bcd60e51b815260206004820152602960248201527f54726561737572793a20496e76616c6964207374616b696e672072657761726460448201526873206164647265737360b81b6064820152608490fd5b15620003da57565b5060405162461bcd60e51b815260206004820152601d60248201527f54726561737572793a20496e76616c696420504f4c20616464726573730000006044820152606490fd5b60008054336001600160a01b031982168117835560405190926001600160a01b03909216917f8be0079c531659141344cd1fd0a4f28419497f9722a3daafe3b4186f6b6457e091a360018055565b90816020910312620002c2575190565b506040513d6000823e3d90fd5b621518001981116200049f57621518000190565b5050634e487b7160e01b600052601160045260246000fd5b906200057461010060056200058d9484518155602085015160018201556040850151600282015560608501516003820155608085015160048201550192620005186200050660a0830151151590565b859060ff801983541691151516179055565b620005416200052b60c083015160ff1690565b855461ff00191660089190911b61ff0016178555565b6200056c6200055460e083015160ff1690565b855462ff0000191660109190911b62ff000016178555565b015160ff1690565b63ff00000082549160181b169063ff0000001916179055565b565b60007f29db3deb62ef2036e5eb93aad68d2362aec0711af592cb365566603bd88651d46200068260046020620005dc620005d060035460018060a01b031690565b6001600160a01b031690565b604051630e12204160e11b815292839182905afa908115620006aa575b849162000687575b506200066a62000611426200048b565b6200061b6200028b565b9042825260208201528260408201528560608201528560808201528560a08201528560c08201528560e0820152856101008201526200066460008052600a602052604060002090565b620004b7565b60408051428152602081019290925290918291820190565b0390a2565b620006a39150620006993d8262000216565b3d8101906200046e565b3862000601565b620006b46200047e565b620005f956fe608060408181526004361015610027575b5050361561001d57600080fd5b610025611070565b005b600091823560e01c90816307ed5003146107575750806313fab368146107285780631f88859a1461070057806320784e99146106e957806329587c61146106d25780632a2a0221146106b45780633b7a3d131461069d5780634787d7bf1461066d57806364b87a701461063d57806369cdd9cf14610617578063715018a61461060057806376671808146105da578063788bff68146105aa578063790f3207146105845780637c82265a1461056d57806382a43d7d14610556578063859e7d321461052f5780638605af3e146105135780638da5cb5b146104de57806395ccea67146104c65780639b5c8dd11461048f578063a70b9f0c14610472578063ac18992c14610416578063ad8c773b146103e7578063babc394f14610395578063c07413ab14610365578063c3e28aee14610327578063c6b61e4c14610276578063cfb125cd14610246578063df7be09e1461022a578063f2fde38b14610213578063f91564af146101f9578063fccc2813146101d85763fe82ccbb146101ab57610010565b346101d4576101d091506101be3661077d565b600e5490519081529081906020820190565b0390f35b5080fd5b5090346101f457506101e93661077d565b5161dead8152602090f35b809150fd5b50346101d45761021061020b366107ae565b6119a6565b51f35b50346101d457610210610225366107ae565b6109b3565b5090346101f4575061023b3661077d565b5161c3508152602090f35b50346101d4576101d0915061025a3661077d565b60065490516001600160a01b0390911681529081906020820190565b50346101d4576101d091506102d861028d3661079c565b600052600a602052604060002090815491600181015491600282015491600381015491600560048301549201549060ff82169160ff8160081c169160ff808360101c169260181c1690565b98519788526020880196909652604087019490945260608601929092526080850152151560a084015260ff90811660c084015290811660e0830152909116610100820152908190610120820190565b50346101d4576101d0915061033b3661077d565b610343611878565b925160ff92831681529082166020820152911660408201529081906060820190565b50346101d4576101d091506103793661077d565b60035490516001600160a01b0390911681529081906020820190565b50346101d4576101d091506103a93661077d565b6103b16116f1565b9651958652602086019490945260408501929092526060840152608083015260a082015260c081019190915290819060e0820190565b50346101d4576101d091506103fb3661077d565b610343600c5460ff81169160ff808360081c169260101c1690565b50346101d4576101d0915061042a3661077d565b600d54600e546009546000908152600f602090815260408083205460109092529091205493519283526020830191909152604082015260608101919091529081906080820190565b5090346101f457506104833661077d565b51621518008152602090f35b50346101d4576101d091506104b76104a63661079c565b600052601060205260406000205490565b90519081529081906020820190565b50346101d4576102106104d8366108e8565b90611d51565b50346101d4576001600160a01b036101d0926104f93661077d565b54915191166001600160a01b031681529081906020820190565b5090346101f457506105243661077d565b516113888152602090f35b50346101d4576101d0915061054b6105463661079c565b6117b5565b905191829182610871565b50346101d4576102106105683661079c565b6110cd565b50346101d45761057c3661077d565b610210610a77565b50346101d4576101d091506105983661077d565b60085490519081529081906020820190565b50346101d4576101d091506105be3661077d565b60055490516001600160a01b0390911681529081906020820190565b50346101d4576101d091506105ee3661077d565b60095490519081529081906020820190565b50346101d45761060f3661077d565b61021061090f565b50346101d4576101d0915061062b3661077d565b600d5490519081529081906020820190565b50346101d4576101d091506106513661077d565b60045490516001600160a01b0390911681529081906020820190565b50346101d4576101d091506106813661077d565b60075490516001600160a01b0390911681529081906020820190565b50346101d4576102106106af366107ae565b611a6f565b50346101d4576102106106c6366107e9565b94939093929192611abb565b50346101d4576102106106e4366107ae565b61190d565b50346101d4576106f83661077d565b610210611cbb565b50346101d4576101d091506104b76107173661079c565b600052600f60205260406000205490565b50346101d4576101d0915061073c3661077d565b610343600b5460ff81169160ff808360081c169260101c1690565b92915050346101f4575061076a3661077d565b6002546001600160a01b03168152602090f35b600090600319011261078b57565b50600080fd5b600091031261078b57565b602090600319011261078b5760043590565b602090600319011261078b576004356001600160a01b0381168114156107d15790565b5050600080fd5b60a4359060ff82168214156107d157565b60c090600319011261078b5760043560ff81168114156107d1579060243560ff8116811415610869579060443560ff8116811415610860579060643560ff8116811415610856579060843560ff811681141561084b57906108486107d8565b90565b505050505050600080fd5b5050505050600080fd5b50505050600080fd5b505050600080fd5b6108e690929192610120810193805182526020810151602083015260408101516040830152606081015160608301526080810151608083015260a0810151151560a083015260ff60c08201511660c08301526108d760e082015160e084019060ff169052565b6101009081015160ff16910152565b565b604090600319011261078b576004356001600160a01b0381168114156107d1579060243590565b610917610959565b60006001600160a01b0381546001600160a01b031981168355167f8be0079c531659141344cd1fd0a4f28419497f9722a3daafe3b4186f6b6457e082604051a3565b6001600160a01b036000541633141561096e57565b50606460405162461bcd60e51b815260206004820152602060248201527f4f776e61626c653a2063616c6c6572206973206e6f7420746865206f776e65726044820152fd5b6109bb610959565b6001600160a01b038082168015610a0957600054906001600160a01b0319821617600055167f8be0079c531659141344cd1fd0a4f28419497f9722a3daafe3b4186f6b6457e06000604051a3565b50505050608460405162461bcd60e51b815260206004820152602660248201527f4f776e61626c653a206e6577206f776e657220697320746865207a65726f206160448201527f64647265737300000000000000000000000000000000000000000000000000006064820152fd5b600954600052600a602052604060002060018101544210159081610aad575b50610a9d57565b610aa5610b89565b6108e6610cd9565b60ff915060050154161538610a96565b50634e487b7160e01b600052604160045260246000fd5b610120810190811067ffffffffffffffff821117610af157604052565b610af9610abd565b604052565b90601f8019910116810190811067ffffffffffffffff821117610af157604052565b908160209103126107d1575190565b506040513d6000823e3d90fd5b50634e487b7160e01b600052601160045260246000fd5b6113888110610b65575b611387190190565b610b6d610b3c565b610b5d565b818110610b7d570390565b610b85610b3c565b0390565b610b9f600954600052600a602052604060002090565b7f45a79f44b939b37f43d62d3c515b3130620c467cea9374c678065042178e5b6e610c776005610c2260046020610bed610be16003546001600160a01b031690565b6001600160a01b031690565b60405192838092630e12204160e11b82525afa908115610ccc575b600091610cae575b50806003870155600286015490610b72565b600485019081559301805460ff19166001178155610ca9610c438554610f6a565b845463ffffff00191661ff00600885901b161762ff0000601084901b1617601882901b63ff00000016179094559093909290565b60095495549260405194859485929360ff80929695816060956080880199885216602087015216604085015216910152565b0390a2565b610cc69150610cbd3d82610afe565b3d810190610b20565b38610c10565b610cd4610b2f565b610c08565b60016009546000198114610def575b01806009557f29db3deb62ef2036e5eb93aad68d2362aec0711af592cb365566603bd88651d4610ca960046020610d2a610be16003546001600160a01b031690565b60405192838092630e12204160e11b82525afa908115610de2575b600091610dcd575b50610db5610d5a42610dfc565b610d62610e28565b9042825260208201528260408201526000606082015260006080820152600060a0820152600060c0820152600060e08201526000610100820152610db086600052600a602052604060002090565b610e55565b60408051428152602081019290925290918291820190565b610ddc9150610cbd3d82610afe565b38610d4d565b610dea610b2f565b610d45565b610df7610b3c565b610ce8565b621518009062151800198111610e10570190565b610e18610b3c565b0190565b81198111610e10570190565b604051906108e682610ad4565b604051906060820182811067ffffffffffffffff821117610af157604052565b90610f0a61010060056108e69484518155602085015160018201556040850151600282015560608501516003820155608085015160048201550192610eb2610ea060a0830151151590565b859060ff801983541691151516179055565b610ed9610ec360c083015160ff1690565b855461ff00191660089190911b61ff0016178555565b610f02610eea60e083015160ff1690565b855462ff0000191660109190911b62ff000016178555565b015160ff1690565b63ff00000082549160181b169063ff0000001916179055565b6064908060001904821181151516610f39570290565b610f41610b3c565b0290565b8060001904821181151516610f39570290565b60ff9182169116818110610b7d570390565b6113888111610f8c5750600b5460ff81169160ff808360081c169260101c1690565b61c3508110610fae5750600c5460ff81169160ff808360081c169260101c1690565b90610fce610fc6610fc161101194610b53565b610f23565b61afc8900490565b9061106a600b5493849361104d61101d60ff92611064611011858a16866110536110118261102a611011600c549661102461101d611017611011878c1685610f58565b60ff1690565b8d610f45565b6064900490565b90610b72565b9e60081c1661104d61101d61104761101184888a60081c16610f58565b8a610f45565b90610e1c565b9c60101c1696879160101c16610f58565b90610f45565b91929190565b3461107757565b61107f610a77565b61108b34600d54610e1c565b600d55600954600052600f60205260406000206110a9348254610e1c565b90556108e63461126b565b908160209103126107d157518015158114156107d15790565b80156111b1576108e6906110df610a77565b6110f4610be16002546001600160a01b031690565b6040517f23b872dd0000000000000000000000000000000000000000000000000000000081523360048201523060248201526044810183905290602090829060649082906000905af180156111a4575b611186575b5061115e61115982600e54610e1c565b600e55565b6111746009546000526010602052604060002090565b61117f828254610e1c565b905561162f565b61119d906111943d82610afe565b3d8101906110b4565b5038611149565b6111ac610b2f565b611144565b5050608460405162461bcd60e51b815260206004820152602760248201527f54726561737572793a20416d6f756e74206d757374206265206772656174657260448201527f207468616e2030000000000000000000000000000000000000000000000000006064820152fd5b3d15611266573d9067ffffffffffffffff8211611259575b6040519161124d601f8201601f191660200184610afe565b82523d6000602084013e565b611261610abd565b611235565b606090565b801561162c5760ff61129961101d8261129161101d611288611665565b50961687610f45565b931684610f45565b6112ac816112a78486610b72565b610b72565b9180611579575b5080611470575b5080611300575b50600954604080519283526000602084015290917f6215b003e186dbc79e3bd07b486dc69758f50dab026e5d485d4a945d560154479181908101610ca9565b6001600160a01b0361131a6007546001600160a01b031690565b1615611458576007546001600160a01b031660008080809385604051915af161134161121d565b50156113cd57507f30b6a9d9705d30007f96fd5234629d60f7fa9075d63fe6d4b12dfcc2a0c2c0d96113c361137e6007546001600160a01b031690565b9260405191829182608091815260406020820152600a60408201527f427579416e644275726e0000000000000000000000000000000000000000000060608201520190565b0390a25b386112c1565b9060405191808061dead9484865af16113e461121d565b506113f1575b50506113c7565b60408051918252602082018190526004908201527f4275726e0000000000000000000000000000000000000000000000000000000060608201527f30b6a9d9705d30007f96fd5234629d60f7fa9075d63fe6d4b12dfcc2a0c2c0d990608090a238806113ea565b604051906000808061dead9484865af16113e461121d565b611485610be16004546001600160a01b031690565b803b1561085657600082916004604051809481937f5ec2dc8d0000000000000000000000000000000000000000000000000000000083525af1801561156c575b61154f575b507f30b6a9d9705d30007f96fd5234629d60f7fa9075d63fe6d4b12dfcc2a0c2c0d96115466115016005546001600160a01b031690565b9260405191829182608091815260406020820152600760408201527f5374616b696e670000000000000000000000000000000000000000000000000060608201520190565b0390a2386112ba565b6115669061155d3d82610afe565b3d810190610791565b386114ca565b611574610b2f565b6114c5565b6000808061158f6006546001600160a01b031690565b84604051915af161159e61121d565b506115a8576112b3565b7f30b6a9d9705d30007f96fd5234629d60f7fa9075d63fe6d4b12dfcc2a0c2c0d96116236115de6006546001600160a01b031690565b9260405191829182608091815260406020820152600360408201527f504f4c000000000000000000000000000000000000000000000000000000000060608201520190565b0390a2386112b3565b50565b7f6215b003e186dbc79e3bd07b486dc69758f50dab026e5d485d4a945d56015447604060095492815190600082526020820152a2565b60095480156116d857611691816001600593106116cb575b60001901600052600a602052604060002090565b01549060ff918281166116b55750600b549082821692808360081c169260101c1690565b90828260081c1692808360101c169260181c1690565b6116d3610b3c565b61167d565b50600b5460ff81169160ff808360081c169260101c1690565b6004906009549061170c82600052600a602052604060002090565b9060206001600160a01b036003541660405195868092630e12204160e11b82525afa9384156117a8575b600094611791575b508154936001830154936000428611600014611788575042851061177b575b6002428603945b0154926117718484610b72565b9196959493929190565b611783610b3c565b61175d565b60029094611764565b6117a1919450610cbd3d82610afe565b923861173e565b6117b0610b2f565b611736565b61084860408051926117c684610ad4565b60009081855281602086015281838601528160608601528160808601528160a08601528160c08601528160e086015281610100809601528152600a602052209160ff6005611812610e28565b8554815260018601546020820152600286015460408201526003860154606082015260048601546080820152940154818116151560a086015260ff600882901c83161660c086015260ff601082901c83161660e086015260181c169083019060ff169052565b600954600052600a6020526118d26004604060002060206001600160a01b036003541660405193848092630e12204160e11b82525afa918215611900575b6000926118e6575b5060020154908181106118d9575b03610f6a565b9192909190565b6118e1610b3c565b6118cc565b60029192506118f990610cbd3d82610afe565b91906118be565b611908610b2f565b6118b6565b611915610959565b6001600160a01b038116801561195f576001600160a01b031960065416176006557f5dc8a57b462a8fae72fded55639269f100cfd12e046986a8ef490d56d5edcbf76000604051a2565b505050606460405162461bcd60e51b815260206004820152601d60248201527f54726561737572793a20496e76616c696420504f4c20616464726573730000006044820152fd5b6119ae610959565b6001600160a01b0381168015611a02576001600160a01b03198181600554161760055560045416176004557f244973ccecd5963806fa4916c9472e193e6eba6fe6867d7a54b700c0a81196366000604051a2565b505050608460405162461bcd60e51b815260206004820152602960248201527f54726561737572793a20496e76616c6964207374616b696e672072657761726460448201527f73206164647265737300000000000000000000000000000000000000000000006064820152fd5b611a77610959565b6001600160a01b0381166001600160a01b031960075416176007557f17e6b0fd0f7d055ad2a61c8069e85490bde3bf21d5bbd8653aeef0a0b35883e46000604051a2565b9293949194611ac8610959565b606460ff611adf88611ada8689611c33565b611c33565b161415611bc257611b18611b8194611b406108e698611b36611b3696611b186064611b126110118c8f8c611ada91611c33565b14611c49565b611b2c611b23610e35565b60ff9096168652565b60ff166020850152565b60ff166040830152565b8051600b8054602084015160409094015162ffffff1990911660ff939093169290921760089390931b61ff00169290921760109190911b62ff000016179055565b8051600c8054602084015160409094015162ffffff1990911660ff939093169290921760089390931b61ff00169290921760109190911b62ff000016179055565b50505050505050608460405162461bcd60e51b815260206004820152602c60248201527f54726561737572793a2057696e7465722070657263656e7461676573206d757360448201527f742073756d20746f2031303000000000000000000000000000000000000000006064820152fd5b60ff8091169116908160ff038111610e10570190565b15611c5057565b50608460405162461bcd60e51b815260206004820152602a60248201527f54726561737572793a2042756c6c2070657263656e7461676573206d7573742060448201527f73756d20746f20313030000000000000000000000000000000000000000000006064820152fd5b611cc3610959565b600954600052600a60205260ff60056040600020015416611ce657610aa5610b89565b50608460405162461bcd60e51b815260206004820152602160248201527f54726561737572793a2045706f636820616c72656164792066696e616c697a6560448201527f64000000000000000000000000000000000000000000000000000000000000006064820152fd5b6001600160a01b0390611d62610959565b1680611da75750600080808093611d86610be1610be184546001600160a01b031690565b828215611d9e575bf115611d9657565b6108e6610b2f565b506108fc611d8e565b611e0d91602091611dc06000546001600160a01b031690565b60006040518096819582947fa9059cbb00000000000000000000000000000000000000000000000000000000845260048401602090939291936001600160a01b0360408201951681520152565b03925af18015611e2d575b611e1f5750565b61162c906111943d82610afe565b611e35610b2f565b611e1856fea364697066735822122015815a7b1178d5a5d270399bf7bf57e0650e637eda582e6bcc0323b62205a44e6c6578706572696d656e74616cf564736f6c634300080a0041",
  "linkReferences": {},
  "deployedLinkReferences": {}
}