{
  "_format": "hh-sol-artifact-1",
  "contractName": "TokenAccessPass",
  "sourceName": "contracts/TokenAccessPass.sol",
  "abi": [
    {
      "inputs": [],
      "stateMutability": "nonpayable",
      "type": "constructor"
    },
    {
      "anonymous": false,
      "inputs": [
        {
          "indexed": true,
          "internalType": "address",
          "name": "to",
          "type": "address"
        },
        {
          "indexed": true,
          "internalType": "uint256",
          "name": "tokenId",
          "type": "uint256"
        }
      ],
      "name": "AccessPassMinted",
      "type": "event"
    },
    {
      "anonymous": false,
      "inputs": [
        {
          "indexed": true,
          "internalType": "address",
          "name": "owner",
          "type": "address"
        },
        {
          "indexed": true,
          "internalType": "address",
          "name": "approved",
          "type": "address"
        },
        {
          "indexed": true,
          "internalType": "uint256",
          "name": "tokenId",
          "type": "uint256"
        }
      ],
      "name": "Approval",
      "type": "event"
    },
    {
      "anonymous": false,
      "inputs": [
        {
          "indexed": true,
          "internalType": "address",
          "name": "owner",
          "type": "address"
        },
        {
          "indexed": true,
          "internalType": "address",
          "name": "operator",
          "type": "address"
        },
        {
          "indexed": false,
          "internalType": "bool",
          "name": "approved",
          "type": "bool"
        }
      ],
      "name": "ApprovalForAll",
      "type": "event"
    },
    {
      "anonymous": false,
      "inputs": [
        {
          "indexed": true,
          "internalType": "address",
          "name": "newContract",
          "type": "address"
        }
      ],
      "name": "DevSupportContractUpdated",
      "type": "event"
    },
    {
      "anonymous": false,
      "inputs": [
        {
          "indexed": true,
          "internalType": "uint256",
          "name": "tokenId",
          "type": "uint256"
        },
        {
          "indexed": true,
          "internalType": "address",
          "name": "user",
          "type": "address"
        },
        {
          "indexed": false,
          "internalType": "uint256",
          "name": "amount",
          "type": "uint256"
        }
      ],
      "name": "Locked",
      "type": "event"
    },
    {
      "anonymous": false,
      "inputs": [
        {
          "indexed": true,
          "internalType": "address",
          "name": "previousOwner",
          "type": "address"
        },
        {
          "indexed": true,
          "internalType": "address",
          "name": "newOwner",
          "type": "address"
        }
      ],
      "name": "OwnershipTransferred",
      "type": "event"
    },
    {
      "anonymous": false,
      "inputs": [
        {
          "indexed": true,
          "internalType": "uint256",
          "name": "tokenId",
          "type": "uint256"
        },
        {
          "indexed": true,
          "internalType": "address",
          "name": "user",
          "type": "address"
        },
        {
          "indexed": false,
          "internalType": "uint256",
          "name": "amount",
          "type": "uint256"
        }
      ],
      "name": "PermanentlyLocked",
      "type": "event"
    },
    {
      "anonymous": false,
      "inputs": [
        {
          "indexed": true,
          "internalType": "address",
          "name": "newAddress",
          "type": "address"
        }
      ],
      "name": "SleepTokenAddressUpdated",
      "type": "event"
    },
    {
      "anonymous": false,
      "inputs": [
        {
          "indexed": true,
          "internalType": "address",
          "name": "newContract",
          "type": "address"
        }
      ],
      "name": "StakingRewardsContractUpdated",
      "type": "event"
    },
    {
      "anonymous": false,
      "inputs": [
        {
          "indexed": true,
          "internalType": "address",
          "name": "from",
          "type": "address"
        },
        {
          "indexed": true,
          "internalType": "address",
          "name": "to",
          "type": "address"
        },
        {
          "indexed": true,
          "internalType": "uint256",
          "name": "tokenId",
          "type": "uint256"
        }
      ],
      "name": "Transfer",
      "type": "event"
    },
    {
      "anonymous": false,
      "inputs": [
        {
          "indexed": true,
          "internalType": "uint256",
          "name": "tokenId",
          "type": "uint256"
        },
        {
          "indexed": true,
          "internalType": "address",
          "name": "user",
          "type": "address"
        },
        {
          "indexed": false,
          "internalType": "uint256",
          "name": "amount",
          "type": "uint256"
        }
      ],
      "name": "Unlocked",
      "type": "event"
    },
    {
      "inputs": [
        {
          "internalType": "address",
          "name": "to",
          "type": "address"
        },
        {
          "internalType": "uint256",
          "name": "tokenId",
          "type": "uint256"
        }
      ],
      "name": "approve",
      "outputs": [],
      "stateMutability": "nonpayable",
      "type": "function"
    },
    {
      "inputs": [
        {
          "internalType": "address",
          "name": "owner",
          "type": "address"
        }
      ],
      "name": "balanceOf",
      "outputs": [
        {
          "internalType": "uint256",
          "name": "",
          "type": "uint256"
        }
      ],
      "stateMutability": "view",
      "type": "function"
    },
    {
      "inputs": [],
      "name": "devSupportContract",
      "outputs": [
        {
          "internalType": "address",
          "name": "",
          "type": "address"
        }
      ],
      "stateMutability": "view",
      "type": "function"
    },
    {
      "inputs": [
        {
          "internalType": "uint256",
          "name": "tokenId",
          "type": "uint256"
        }
      ],
      "name": "getApproved",
      "outputs": [
        {
          "internalType": "address",
          "name": "",
          "type": "address"
        }
      ],
      "stateMutability": "view",
      "type": "function"
    },
    {
      "inputs": [
        {
          "internalType": "uint256",
          "name": "tokenId",
          "type": "uint256"
        }
      ],
      "name": "getDevSupportAmount",
      "outputs": [
        {
          "internalType": "uint256",
          "name": "",
          "type": "uint256"
        }
      ],
      "stateMutability": "view",
      "type": "function"
    },
    {
      "inputs": [
        {
          "internalType": "uint256",
          "name": "tokenId",
          "type": "uint256"
        }
      ],
      "name": "getDynamicData",
      "outputs": [
        {
          "internalType": "string",
          "name": "",
          "type": "string"
        }
      ],
      "stateMutability": "view",
      "type": "function"
    },
    {
      "inputs": [
        {
          "internalType": "uint256",
          "name": "tokenId",
          "type": "uint256"
        }
      ],
      "name": "getLockingInfo",
      "outputs": [
        {
          "internalType": "uint256",
          "name": "totalLocked",
          "type": "uint256"
        },
        {
          "internalType": "uint256",
          "name": "permanentlyLocked",
          "type": "uint256"
        },
        {
          "internalType": "uint256",
          "name": "lockStartTime",
          "type": "uint256"
        }
      ],
      "stateMutability": "view",
      "type": "function"
    },
    {
      "inputs": [],
      "name": "getNextTokenId",
      "outputs": [
        {
          "internalType": "uint256",
          "name": "",
          "type": "uint256"
        }
      ],
      "stateMutability": "view",
      "type": "function"
    },
    {
      "inputs": [
        {
          "internalType": "uint256",
          "name": "tokenId",
          "type": "uint256"
        }
      ],
      "name": "getSVG",
      "outputs": [
        {
          "internalType": "string",
          "name": "",
          "type": "string"
        }
      ],
      "stateMutability": "view",
      "type": "function"
    },
    {
      "inputs": [
        {
          "internalType": "address",
          "name": "owner",
          "type": "address"
        },
        {
          "internalType": "address",
          "name": "operator",
          "type": "address"
        }
      ],
      "name": "isApprovedForAll",
      "outputs": [
        {
          "internalType": "bool",
          "name": "",
          "type": "bool"
        }
      ],
      "stateMutability": "view",
      "type": "function"
    },
    {
      "inputs": [
        {
          "internalType": "uint256",
          "name": "tokenId",
          "type": "uint256"
        }
      ],
      "name": "isDevSupported",
      "outputs": [
        {
          "internalType": "bool",
          "name": "",
          "type": "bool"
        }
      ],
      "stateMutability": "view",
      "type": "function"
    },
    {
      "inputs": [
        {
          "internalType": "uint256",
          "name": "",
          "type": "uint256"
        }
      ],
      "name": "lockTimestamps",
      "outputs": [
        {
          "internalType": "uint256",
          "name": "",
          "type": "uint256"
        }
      ],
      "stateMutability": "view",
      "type": "function"
    },
    {
      "inputs": [
        {
          "internalType": "uint256",
          "name": "tokenId",
          "type": "uint256"
        },
        {
          "internalType": "uint256",
          "name": "amount",
          "type": "uint256"
        }
      ],
      "name": "lockTokens",
      "outputs": [],
      "stateMutability": "nonpayable",
      "type": "function"
    },
    {
      "inputs": [
        {
          "internalType": "uint256",
          "name": "tokenId",
          "type": "uint256"
        },
        {
          "internalType": "uint256",
          "name": "amount",
          "type": "uint256"
        }
      ],
      "name": "lockTokensPermanently",
      "outputs": [],
      "stateMutability": "nonpayable",
      "type": "function"
    },
    {
      "inputs": [
        {
          "internalType": "uint256",
          "name": "",
          "type": "uint256"
        }
      ],
      "name": "lockedAmounts",
      "outputs": [
        {
          "internalType": "uint256",
          "name": "",
          "type": "uint256"
        }
      ],
      "stateMutability": "view",
      "type": "function"
    },
    {
      "inputs": [
        {
          "internalType": "string",
          "name": "svgData",
          "type": "string"
        }
      ],
      "name": "mintAccessPass",
      "outputs": [],
      "stateMutability": "nonpayable",
      "type": "function"
    },
    {
      "inputs": [],
      "name": "name",
      "outputs": [
        {
          "internalType": "string",
          "name": "",
          "type": "string"
        }
      ],
      "stateMutability": "view",
      "type": "function"
    },
    {
      "inputs": [],
      "name": "owner",
      "outputs": [
        {
          "internalType": "address",
          "name": "",
          "type": "address"
        }
      ],
      "stateMutability": "view",
      "type": "function"
    },
    {
      "inputs": [
        {
          "internalType": "uint256",
          "name": "tokenId",
          "type": "uint256"
        }
      ],
      "name": "ownerOf",
      "outputs": [
        {
          "internalType": "address",
          "name": "",
          "type": "address"
        }
      ],
      "stateMutability": "view",
      "type": "function"
    },
    {
      "inputs": [
        {
          "internalType": "uint256",
          "name": "",
          "type": "uint256"
        }
      ],
      "name": "permanentlyLockedAmounts",
      "outputs": [
        {
          "internalType": "uint256",
          "name": "",
          "type": "uint256"
        }
      ],
      "stateMutability": "view",
      "type": "function"
    },
    {
      "inputs": [],
      "name": "renounceOwnership",
      "outputs": [],
      "stateMutability": "nonpayable",
      "type": "function"
    },
    {
      "inputs": [
        {
          "internalType": "address",
          "name": "from",
          "type": "address"
        },
        {
          "internalType": "address",
          "name": "to",
          "type": "address"
        },
        {
          "internalType": "uint256",
          "name": "tokenId",
          "type": "uint256"
        }
      ],
      "name": "safeTransferFrom",
      "outputs": [],
      "stateMutability": "nonpayable",
      "type": "function"
    },
    {
      "inputs": [
        {
          "internalType": "address",
          "name": "from",
          "type": "address"
        },
        {
          "internalType": "address",
          "name": "to",
          "type": "address"
        },
        {
          "internalType": "uint256",
          "name": "tokenId",
          "type": "uint256"
        },
        {
          "internalType": "bytes",
          "name": "data",
          "type": "bytes"
        }
      ],
      "name": "safeTransferFrom",
      "outputs": [],
      "stateMutability": "nonpayable",
      "type": "function"
    },
    {
      "inputs": [
        {
          "internalType": "address",
          "name": "_stakingRewards",
          "type": "address"
        },
        {
          "internalType": "address",
          "name": "_sleepToken",
          "type": "address"
        }
      ],
      "name": "setAddresses",
      "outputs": [],
      "stateMutability": "nonpayable",
      "type": "function"
    },
    {
      "inputs": [
        {
          "internalType": "address",
          "name": "operator",
          "type": "address"
        },
        {
          "internalType": "bool",
          "name": "approved",
          "type": "bool"
        }
      ],
      "name": "setApprovalForAll",
      "outputs": [],
      "stateMutability": "nonpayable",
      "type": "function"
    },
    {
      "inputs": [
        {
          "internalType": "address",
          "name": "_devSupportContract",
          "type": "address"
        }
      ],
      "name": "setDevSupportContract",
      "outputs": [],
      "stateMutability": "nonpayable",
      "type": "function"
    },
    {
      "inputs": [],
      "name": "sleepToken",
      "outputs": [
        {
          "internalType": "contract IERC20",
          "name": "",
          "type": "address"
        }
      ],
      "stateMutability": "view",
      "type": "function"
    },
    {
      "inputs": [],
      "name": "stakingRewardsContract",
      "outputs": [
        {
          "internalType": "contract IStakingRewards",
          "name": "",
          "type": "address"
        }
      ],
      "stateMutability": "view",
      "type": "function"
    },
    {
      "inputs": [
        {
          "internalType": "bytes4",
          "name": "interfaceId",
          "type": "bytes4"
        }
      ],
      "name": "supportsInterface",
      "outputs": [
        {
          "internalType": "bool",
          "name": "",
          "type": "bool"
        }
      ],
      "stateMutability": "view",
      "type": "function"
    },
    {
      "inputs": [],
      "name": "symbol",
      "outputs": [
        {
          "internalType": "string",
          "name": "",
          "type": "string"
        }
      ],
      "stateMutability": "view",
      "type": "function"
    },
    {
      "inputs": [
        {
          "internalType": "uint256",
          "name": "tokenId",
          "type": "uint256"
        }
      ],
      "name": "tokenURI",
      "outputs": [
        {
          "internalType": "string",
          "name": "",
          "type": "string"
        }
      ],
      "stateMutability": "view",
      "type": "function"
    },
    {
      "inputs": [
        {
          "internalType": "address",
          "name": "from",
          "type": "address"
        },
        {
          "internalType": "address",
          "name": "to",
          "type": "address"
        },
        {
          "internalType": "uint256",
          "name": "tokenId",
          "type": "uint256"
        }
      ],
      "name": "transferFrom",
      "outputs": [],
      "stateMutability": "nonpayable",
      "type": "function"
    },
    {
      "inputs": [
        {
          "internalType": "address",
          "name": "newOwner",
          "type": "address"
        }
      ],
      "name": "transferOwnership",
      "outputs": [],
      "stateMutability": "nonpayable",
      "type": "function"
    },
    {
      "inputs": [
        {
          "internalType": "uint256",
          "name": "tokenId",
          "type": "uint256"
        },
        {
          "internalType": "uint256",
          "name": "amount",
          "type": "uint256"
        }
      ],
      "name": "unlockTokens",
      "outputs": [],
      "stateMutability": "nonpayable",
      "type": "function"
    }
  ],
  "bytecode": "0x6080604052346200017c576200001462000198565b60207f536c6565702050726f746f636f6c2041636365737320506173730000000000008183015262000045620001cd565b630535041560e41b8282015282519091906001600160401b0381116200016c575b60009162000080826200007a855462000202565b62000241565b80601f8311600114620000de57508190620000b7958492620000d2575b50508160011b916000199060031b1c1916179055620002f5565b620000c233620003f7565b6040516137809081620004448239f35b0151905038806200009d565b600080529194601f1986167f290decd9548b62a8d60345a988386fc84ba6bc95484008f6362f93160ef3e5639385905b82821062000153575050916001939187620000b798941062000139575b505050811b019055620002f5565b015160001960f88460031b161c191690553880806200012b565b806001869782949787015181550196019401906200010e565b6200017662000181565b62000066565b600080fd5b50634e487b7160e01b600052604160045260246000fd5b60408051919082016001600160401b03811183821017620001bd575b604052601a8252565b620001c762000181565b620001b4565b60408051919082016001600160401b03811183821017620001f2575b60405260048252565b620001fc62000181565b620001e9565b90600182811c9216801562000236575b60208310146200021e57565b5050634e487b7160e01b600052602260045260246000fd5b91607f169162000212565b601f81116200024e575050565b60009081805260208220906020601f850160051c830194106200028e575b601f0160051c01915b8281106200028257505050565b81815560010162000275565b90925082906200026c565b90601f8211620002a7575050565b60019160009083825260208220906020601f850160051c83019410620002ea575b601f0160051c01915b828110620002df5750505050565b8181558301620002d1565b9092508290620002c8565b80519091906001600160401b038111620003e7575b60019062000324816200031e845462000202565b62000299565b602080601f83116001146200036257508192939460009262000356575b5050600019600383901b1c191690821b179055565b01519050388062000341565b6001600052601f198316959091907fb10e2d527612073b26eecdfd717e6a320cf44b4afac2b0732d9fcbe2b7fa0cf6926000905b888210620003cf5750508385969710620003b5575b505050811b019055565b015160001960f88460031b161c19169055388080620003ab565b80878596829496860151815501950193019062000396565b620003f162000181565b6200030a565b600680546001600160a01b038381166001600160a01b03198316179092556040519116907f8be0079c531659141344cd1fd0a4f28419497f9722a3daafe3b4186f6b6457e090600090a356fe6040608081526004361015610015575b50600080fd5b600090813560e01c806301ffc9a71461064957806306fdde031461062d57806307ed5003146105fd578063081812fc146105e1578063095ea7b3146105c95780631fc00d06146105a157806323b872dd146105895780633190cbf814610571578063336237941461054157806342842e0e146105295780634d4f9a551461050d5780634f85f6e8146104f65780636352211e146104c15780636ae0d464146104a957806370a082311461048d578063715018a614610476578063754d6f641461044657806389158d8e1461042e5780638917873c146103d05780638da5cb5b146103a057806390107afe1461038857806395d89b411461036c578063992a23f514610354578063a22cb4651461033c578063b88d4fde14610321578063ba507e5814610305578063be985ac9146102e9578063c87b56dd146102c2578063caa0f92a1461029c578063e039751e14610274578063e985e9c51461021d578063f2fde38b14610203578063f8ce533e146101d65763f9c23fb114610198575061000f565b346101d2576101ce91506101bf6101ae36610744565b600052600d60205260406000205490565b90519081529081906020820190565b0390f35b5080fd5b50346101d2576101ce91506101f26101ed36610744565b6124c7565b905190151581529081906020820190565b50346101d25761021a61021536610807565b610ace565b51f35b50346101d2576101ce91506101f261026d61025561023a3661082a565b91906001600160a01b03166000526005602052604060002090565b906001600160a01b0316600052602052604060002090565b5460ff1690565b50346101d2576101ce91506101bf61028b36610744565b600052600b60205260406000205490565b50346101d2576101ce91506102b0366106c0565b60075490519081529081906020820190565b50346101d2576101ce91506102de6102d936610744565b61270b565b905191829182610733565b50346101d2576101ce91506102de61030036610744565b6125bd565b50346101d2576101ce91506101bf61031c36610744565b612555565b50346101d25761021a61033336610991565b9291909161125a565b50346101d25761021a61034e366108bb565b906110df565b50346101d25761021a6103663661085d565b906120ec565b50346101d2576101ce9150610380366106c0565b6102de610e26565b50346101d25761021a61039a3661082a565b90612397565b50346101d2576101ce91506103b4366106c0565b60065490516001600160a01b0390911681529081906020820190565b50346101d2576101ce91506104126103e736610744565b600091818352600b60205260408084205493838152600d60205281812054938152600c602052205490565b9251918252602082015260408101919091529081906060820190565b50346101d25761021a610440366107f1565b90611920565b50346101d2576101ce915061045a366106c0565b600a5490516001600160a01b0390911681529081906020820190565b50346101d257610485366106c0565b61021a610a28565b50346101d2576101ce91506101bf6104a436610807565b610c3a565b50346101d25761021a6104bb366107f1565b90611b1c565b50346101d2576101ce91506104dd6104d836610744565b610d12565b90516001600160a01b0390911681529081906020820190565b50346101d25761021a61050836610807565b61247b565b50346101d2576101ce91506102de61052436610744565b612e95565b50346101d25761021a61053b366107b2565b91611242565b50346101d2576101ce9150610555366106c0565b60095490516001600160a01b0390911681529081906020820190565b50346101d25761021a610583366107f1565b90611e95565b50346101d25761021a61059b366107b2565b91611212565b50346101d2576101ce91506101bf6105b836610744565b600052600c60205260406000205490565b50346101d25761021a6105db3661078b565b90610f5c565b50346101d2576101ce91506104dd6105f836610744565b61109d565b50346101d2576101ce9150610611366106c0565b60085490516001600160a01b0390911681529081906020820190565b50346101d2576101ce9150610641366106c0565b6102de610d70565b5050346106775750607f19610672610668610663366106a5565b610b92565b151560805260a090565b016080f35b80fd5b7fffffffff000000000000000000000000000000000000000000000000000000008116141561000f57565b602090600319011261000f576004356106bd8161067a565b90565b600090600319011261000f57565b600091031261000f57565b918091926000905b8282106106f95750116106f2575050565b6000910152565b915080602091830151818601520182916106e1565b90602091610727815180928185528580860191016106d9565b601f01601f1916010190565b9060206106bd92818152019061070e565b602090600319011261000f5760043590565b600435906001600160a01b03821682141561076d57565b5050600080fd5b602435906001600160a01b03821682141561076d57565b604090600319011261000f576004356001600160a01b03811681141561076d579060243590565b606090600319011261000f576001600160a01b03906004358281168114156107e957916024359081168114156107e9579060443590565b505050600080fd5b604090600319011261000f576004359060243590565b602090600319011261000f576004356001600160a01b03811681141561076d5790565b604090600319011261000f576001600160a01b03906004358281168114156107e957916024359081168114156107e95790565b90602060031983011261076d5760043567ffffffffffffffff928382116108a757806023830112156108a75781600401359384116108a757602484830101116107e9576024019190565b50505050600080fd5b801515141561000f57565b604090600319011261000f576004356001600160a01b03811681141561076d57906024356106bd816108b0565b50634e487b7160e01b600052604160045260246000fd5b6020810190811067ffffffffffffffff82111761091b57604052565b6109236108e8565b604052565b6040810190811067ffffffffffffffff82111761091b57604052565b90601f8019910116810190811067ffffffffffffffff82111761091b57604052565b60209067ffffffffffffffff8111610984575b601f01601f19160190565b61098c6108e8565b610979565b90608060031983011261076d576109a6610756565b916109af610774565b916044359160643567ffffffffffffffff8111610a1d5781602382011215610a1d578060040135906109e082610966565b926109ee6040519485610944565b82845260248383010111610a115781600092602460209301838601378301015290565b50505050505050600080fd5b505050505050600080fd5b610a30610a74565b60006001600160a01b036006546001600160a01b03198116600655167f8be0079c531659141344cd1fd0a4f28419497f9722a3daafe3b4186f6b6457e082604051a3565b6001600160a01b0360065416331415610a8957565b50606460405162461bcd60e51b815260206004820152602060248201527f4f776e61626c653a2063616c6c6572206973206e6f7420746865206f776e65726044820152fd5b610ad6610a74565b6001600160a01b038082168015610b2457600654906001600160a01b0319821617600655167f8be0079c531659141344cd1fd0a4f28419497f9722a3daafe3b4186f6b6457e06000604051a3565b50505050608460405162461bcd60e51b815260206004820152602660248201527f4f776e61626c653a206e6577206f776e657220697320746865207a65726f206160448201527f64647265737300000000000000000000000000000000000000000000000000006064820152fd5b7fffffffff00000000000000000000000000000000000000000000000000000000167f80ac58cd000000000000000000000000000000000000000000000000000000008114908115610c10575b8115610be9575090565b7f01ffc9a70000000000000000000000000000000000000000000000000000000091501490565b7f5b5e139f0000000000000000000000000000000000000000000000000000000081149150610bdf565b6001600160a01b03168015610c5a57600052600360205260406000205490565b5050608460405162461bcd60e51b815260206004820152602960248201527f4552433732313a2061646472657373207a65726f206973206e6f74206120766160448201527f6c6964206f776e657200000000000000000000000000000000000000000000006064820152fd5b15610ccd57565b50606460405162461bcd60e51b815260206004820152601860248201527f4552433732313a20696e76616c696420746f6b656e20494400000000000000006044820152fd5b60005260026020526001600160a01b03604060002054166106bd811515610cc6565b90600182811c92168015610d66575b6020831014610d4e57565b5050634e487b7160e01b600052602260045260246000fd5b91607f1691610d43565b60405190600082815491610d8383610d34565b80835292600190818116908115610e095750600114610dac575b50610daa92500383610944565b565b600080805291507f290decd9548b62a8d60345a988386fc84ba6bc95484008f6362f93160ef3e5635b848310610dee5750610daa935050810160200138610d9d565b81935090816020925483858a01015201910190918592610dd5565b94505050505060ff19166020830152610daa826040810138610d9d565b60405190600082600191825492610e3c84610d34565b80845293818116908115610e095750600114610e5f5750610daa92500383610944565b600081815291507fb10e2d527612073b26eecdfd717e6a320cf44b4afac2b0732d9fcbe2b7fa0cf65b848310610ea15750610daa935050810160200138610d9d565b81935090816020925483858a01015201910190918592610e88565b9060405191826000825492610ed084610d34565b908184526001948581169081600014610f3d5750600114610efa575b5050610daa92500383610944565b9093915060005260209081600020936000915b818310610f25575050610daa93508201013880610eec565b85548884018501529485019487945091830191610f0d565b9550505050505060ff19166020830152610daa82604081013880610eec565b90610f6681610d12565b6001600160a01b03808216809185161461102e573314908115611000575b5015610f9357610daa91611578565b505050608460405162461bcd60e51b815260206004820152603d60248201527f4552433732313a20617070726f76652063616c6c6572206973206e6f7420746f60448201527f6b656e206f776e6572206f7220617070726f76656420666f7220616c6c0000006064820152fd5b60ff91506110269061025533916001600160a01b03166000526005602052604060002090565b541638610f84565b5050505050608460405162461bcd60e51b815260206004820152602160248201527f4552433732313a20617070726f76616c20746f2063757272656e74206f776e6560448201527f72000000000000000000000000000000000000000000000000000000000000006064820152fd5b6110c56110c08260005260026020526001600160a01b0360406000205416151590565b610cc6565b60005260046020526001600160a01b036040600020541690565b906001600160a01b03821633146111595733600052600560205261111a826040600020906001600160a01b0316600052602052604060002090565b9015159060ff1981541660ff83161790556040519081527f17307eab39ab6107e8899845ad3d59bd9653f200f220920489ca2b5937696c3160203392a3565b505050606460405162461bcd60e51b815260206004820152601960248201527f4552433732313a20617070726f766520746f2063616c6c6572000000000000006044820152fd5b156111a757565b50608460405162461bcd60e51b815260206004820152602d60248201527f4552433732313a2063616c6c6572206973206e6f7420746f6b656e206f776e6560448201527f72206f7220617070726f766564000000000000000000000000000000000000006064820152fd5b90610daa929161122a61122584336112f4565b6111a0565b6113e7565b6040519061123c826108ff565b60008252565b9091610daa9260405192611255846108ff565b600084525b91610daa93916112819361127161122584336112f4565b61127c8383836113e7565b6117a4565b1561128857565b5060405162461bcd60e51b815260206004820152603260248201527f4552433732313a207472616e7366657220746f206e6f6e20455243373231526560448201527f63656976657220696d706c656d656e74657200000000000000000000000000006064820152608490fd5b6001600160a01b038061130684610d12565b16928183169284841494851561133c575b50508315611326575b50505090565b6113329192935061109d565b1614388080611320565b60ff9295509061136b9160005260056020526040600020906001600160a01b0316600052602052604060002090565b5416923880611317565b1561137c57565b50608460405162461bcd60e51b815260206004820152602560248201527f4552433732313a207472616e736665722066726f6d20696e636f72726563742060448201527f6f776e65720000000000000000000000000000000000000000000000000000006064820152fd5b61140a6113f384610d12565b6001600160a01b0383811692909182168314611375565b83161561150a5761143e9061142085858561369b565b61143861142c86610d12565b6001600160a01b031690565b14611375565b611465611455846000526004602052604060002090565b6001600160a01b03198154169055565b611482816001600160a01b03166000526003602052604060002090565b60001981540190556114a7826001600160a01b03166000526003602052604060002090565b600181540190556114e1826114c6856000526002602052604060002090565b906001600160a01b03166001600160a01b0319825416179055565b7fddf252ad1be2c89b69c2b068fc378daa952ba7f163c4a11628f55a4df523b3ef6000604051a4565b5050505050608460405162461bcd60e51b8152602060048201526024808201527f4552433732313a207472616e7366657220746f20746865207a65726f2061646460448201527f72657373000000000000000000000000000000000000000000000000000000006064820152fd5b8160005260046020526115a5816040600020906001600160a01b03166001600160a01b0319825416179055565b6115ae82610d12565b7f8c5be1e5ebec7d5bd14f71427d1e84f3dd0314c0f7b2291e5b200ac8c7c3b9256000604051a4565b9081602091031261076d57516106bd8161067a565b6106bd93926001600160a01b03608093168252600060208301526040820152816060820152019061070e565b90926106bd94936080936001600160a01b0380921684521660208301526040820152816060820152019061070e565b506040513d6000823e3d90fd5b3d1561167f573d9061166582610966565b916116736040519384610944565b82523d6000602084013e565b606090565b909190803b1561179c576116be6020916001600160a01b03936000604051958680958194630a85bd0160e11b9a8b845233600485016115ec565b0393165af16000918161177c575b50611756575050506116dc611654565b8051908161175157505060405162461bcd60e51b815260206004820152603260248201527f4552433732313a207472616e7366657220746f206e6f6e20455243373231526560448201527f63656976657220696d706c656d656e74657200000000000000000000000000006064820152608490fd5b602001fd5b7fffffffff00000000000000000000000000000000000000000000000000000000161490565b61179591925061178c3d82610944565b3d8101906115d7565b90386116cc565b505050600190565b92909190823b156117df576116be9260209260006001600160a01b03604051809781968295630a85bd0160e11b9b8c85523360048601611618565b50505050600190565b156117ef57565b50606460405162461bcd60e51b815260206004820152601360248201527f535041503a204e6f7420746865206f776e6572000000000000000000000000006044820152fd5b1561183b57565b50606460405162461bcd60e51b815260206004820152601960248201527f535041503a20534c45455020746f6b656e206e6f7420736574000000000000006044820152fd5b1561188757565b50606460405162461bcd60e51b815260206004820152601360248201527f535041503a2043616e6e6f74206c6f636b2030000000000000000000000000006044820152fd5b50634e487b7160e01b600052601160045260246000fd5b60029060021981116118f3570190565b6118fb6118cc565b0190565b811981116118f3570190565b9081602091031261076d57516106bd816108b0565b61192981610d12565b61193f6001600160a01b039182339116146117e8565b6119608161195861142c6008546001600160a01b031690565b161515611834565b61196b831515611880565b61197f82600052600c602052604060002090565b5415611b01575b61199a82600052600b602052604060002090565b6119a58482546118ff565b90556119bc61142c6008546001600160a01b031690565b6040516323b872dd60e01b81523360048201523060248201526044810185905290602090829060649082906000905af18015611af4575b611ad6575b50611a0e61142c6009546001600160a01b031690565b908116611a4c575b5060405191825233917f55016b6cc60c3d15b7b1ebd0ab766c07b3082c98a5b4d1d7ff012a97652a4b1d9080602081015b0390a3565b803b156108a7576040517f649508600000000000000000000000000000000000000000000000000000000081523360048201526024810183905260448101849052906000908290606490829084905af18015611ac9575b611aac57611a16565b611ac390611aba3d82610944565b3d8101906106ce565b38611a16565b611ad1611647565b611aa3565b611aed90611ae43d82610944565b3d81019061190b565b50386119f8565b611afc611647565b6119f3565b42611b1683600052600c602052604060002090565b55611986565b611b2581610d12565b611b3b6001600160a01b039182339116146117e8565b611b548161195861142c6008546001600160a01b031690565b611b5f831515611880565b611b7382600052600c602052604060002090565b5415611d33575b611b8e82600052600b602052604060002090565b611b998482546118ff565b9055611baf82600052600d602052604060002090565b611bba8482546118ff565b9055611bd161142c6008546001600160a01b031690565b6040516323b872dd60e01b81523360048201523060248201526044810185905290602090829060649082906000905af18015611d26575b611d11575b50611c2361142c6009546001600160a01b031690565b908116611c90575b50604051828152339082907f55016b6cc60c3d15b7b1ebd0ab766c07b3082c98a5b4d1d7ff012a97652a4b1d90602090a360405191825233917f7ace5fc2f7b8b76c4c4e0f52a44d63e321033d6e3d9978f779dfbae185a11472908060208101611a47565b803b156108a7576040517fea33eeb80000000000000000000000000000000000000000000000000000000081523360048201526024810183905260448101849052906000908290606490829084905af18015611d04575b611cf057611c2b565b611cfe90611aba3d82610944565b38611c2b565b611d0c611647565b611ce7565b611d1f90611ae43d82610944565b5038611c0d565b611d2e611647565b611c08565b42611d4883600052600c602052604060002090565b55611b7a565b15611d5557565b50606460405162461bcd60e51b815260206004820152601560248201527f535041503a2043616e6e6f7420756e6c6f636b203000000000000000000000006044820152fd5b15611da157565b50608460405162461bcd60e51b815260206004820152602160248201527f535041503a20496e73756666696369656e74206c6f636b65642062616c616e6360448201527f65000000000000000000000000000000000000000000000000000000000000006064820152fd5b818110611e17570390565b611e1f6118cc565b0390565b15611e2a57565b50608460405162461bcd60e51b815260206004820152602d60248201527f535041503a2043616e6e6f7420756e6c6f636b207065726d616e656e746c792060448201527f6c6f636b656420746f6b656e73000000000000000000000000000000000000006064820152fd5b611e9e81610d12565b611eb46001600160a01b039182339116146117e8565b611ebf831515611d4e565b611edf83611ed784600052600b602052604060002090565b541015611d9a565b611f1d83611f16611efa85600052600b602052604060002090565b54611f0f86600052600d602052604060002090565b5490611e0c565b1015611e23565b611f3182600052600b602052604060002090565b611f3c848254611e0c565b9055611f5361142c6009546001600160a01b031690565b908116612017575b50611f7161142c6008546001600160a01b031690565b6040517fa9059cbb0000000000000000000000000000000000000000000000000000000081523360048201526024810184905290602090829060449082906000905af1801561200a575b611ff5575b5060405191825233917ff1c2201ab8d3afe0ab6336204843b66bb25c5f27d6de3490c9a463fd18d294a9908060208101611a47565b61200390611ae43d82610944565b5038611fc0565b612012611647565b611fbb565b803b156108a7576040517f23e253960000000000000000000000000000000000000000000000000000000081523360048201526024810183905260448101849052906000908290606490829084905af1801561208b575b61207757611f5b565b61208590611aba3d82610944565b38611f5b565b612093611647565b61206e565b90601f81116120a657505050565b600091825260208220906020601f850160051c830194106120e2575b601f0160051c01915b8281106120d757505050565b8181556001016120cb565b90925082906120c2565b906007549160018084016007556000928484526020600e8152604085209367ffffffffffffffff8311612205575b61212e836121288754610d34565b87612098565b8591601f84116001146121995750928293918392879461218e575b50501b916000199060031b1c19161790555b6121658233612212565b7f66702ecaf25560bc14c58ea4b2b0765c566b3beb2a9b0a7a9a1e9809899a06f53391604051a3565b013592503880612149565b9183601f1981166121af88600052602060002090565b9489905b888383106121eb57505050106121d1575b505050811b01905561215b565b0135600019600384901b60f8161c191690553880806121c4565b8686013588559096019593840193879350908101906121b3565b61220d6108e8565b61211a565b60405161221e816108ff565b600081526001600160a01b0382161561230357826112819261226861226361225f610daa9760005260026020526001600160a01b0360406000205416151590565b1590565b61234b565b61227282826135f3565b61229861226361225f8460005260026020526001600160a01b0360406000205416151590565b6122b5816001600160a01b03166000526003602052604060002090565b600181540190556122d4816114c6846000526002602052604060002090565b818160007fddf252ad1be2c89b69c2b068fc378daa952ba7f163c4a11628f55a4df523b3ef81604051a4611684565b50505050606460405162461bcd60e51b815260206004820152602060248201527f4552433732313a206d696e7420746f20746865207a65726f20616464726573736044820152fd5b1561235257565b50606460405162461bcd60e51b815260206004820152601c60248201527f4552433732313a20746f6b656e20616c7265616479206d696e746564000000006044820152fd5b61239f610a74565b6001600160a01b038082169182151580612470575b15612427577f386c9362da708fdba148bd321b6e7b0a9ee842fc18d4efd599fa8161beb3d300926000926001600160a01b031991826009541617600955604051927f01a89bfd735459779065820a632fb02c666a11dd80f22c0a87c046f020e61ced8585a28516906008541617600855a2565b5050505050606460405162461bcd60e51b815260206004820152601260248201527f535041503a205a65726f206164647265737300000000000000000000000000006044820152fd5b5081841615156123b4565b612483610a74565b6001600160a01b0381166001600160a01b0319600a541617600a557f5ee862dfd12ccda2141d92260ee64e6fd54b956707c845ec285f6b856b00f4016000604051a2565b6001600160a01b03600a541690811561253f576020906024604051809481937f3d3dc2af00000000000000000000000000000000000000000000000000000000835260048301525afa908115612532575b600091612523575090565b6106bd9150611ae43d82610944565b61253a611647565b612518565b5050600090565b9081602091031261076d575190565b6001600160a01b03600a541690811561253f57602090602460405180948193633edca40d60e21b835260048301525afa9081156125b0575b600091612598575090565b6106bd91506125a73d82610944565b3d810190612546565b6125b8611647565b61258d565b6125dd8160005260026020526001600160a01b0360406000205416151590565b1561268c5760009081526020600e8152604082206040519283918181549061260482610d34565b8086529260019280841690811561266b575060011461262e575b505050506106bd92500382610944565b815285812095935091905b8183106126535750506106bd93508201013880808061261e565b85548784018501529485019486945091830191612639565b965050505050505060ff1916908201526106bd81604081013880808061261e565b5050608460405162461bcd60e51b815260206004820152602560248201527f536c656570416363657373506173733a20546f6b656e20646f6573206e6f742060448201527f65786973740000000000000000000000000000000000000000000000000000006064820152fd5b906118fb602092828151948592016106d9565b61272b8160005260026020526001600160a01b0360406000205416151590565b15612a7a5761274481600052600e602052604060002090565b61274d90610ebc565b61275682612e95565b9161276090612cf6565b9061276a90612c0f565b6040517f7b000000000000000000000000000000000000000000000000000000000000006020820152928392909190602184017f226e616d65223a2022536c6565702050726f746f636f6c20416363657373205081527f617373202300000000000000000000000000000000000000000000000000000060208201526025016127f2916126f8565b61088b60f21b81526002017f226465736372697074696f6e223a20224120646563656e7472616c697a65642081527f736176696e6773206361726420666f722074686520536c6565702050726f746f60208201527f636f6c2065636f73797374656d2e2054686973204e465420726570726573656e60408201527f747320796f7572207374616b656420534c45455020746f6b656e7320616e642060608201527f646973706c617973207265616c2d74696d652072657761726420646174612e2260808201527f2c0000000000000000000000000000000000000000000000000000000000000060a082015260a1017f22696d616765223a2022646174613a696d6167652f7376672b786d6c3b62617381527f6536342c000000000000000000000000000000000000000000000000000000006020820152602401612936916126f8565b61088b60f21b81526002017f2261747472696275746573223a205b00000000000000000000000000000000008152600f017f7b202274726169745f74797065223a202244796e616d69632044617461222c2081527f2276616c7565223a20000000000000000000000000000000000000000000000060208201526029016129bc916126f8565b7f207d00000000000000000000000000000000000000000000000000000000000081526002017f5d000000000000000000000000000000000000000000000000000000000000008152600101607d60f81b81526001010390601f19918281018252612a279082610944565b612a3090612c0f565b6040517f646174613a6170706c69636174696f6e2f6a736f6e3b6261736536342c000000602082015291908290603d8201612a6a916126f8565b0390810182526106bd9082610944565b5050608460405162461bcd60e51b815260206004820152603060248201527f546f6b656e416363657373506173733a2055524920717565727920666f72206e60448201527f6f6e6578697374656e7420746f6b656e000000000000000000000000000000006064820152fd5b604051906060820182811067ffffffffffffffff821117612b57575b604052604082527f6768696a6b6c6d6e6f707172737475767778797a303132333435363738392b2f6040837f4142434445464748494a4b4c4d4e4f505152535455565758595a61626364656660208201520152565b612b5f6108e8565b612b02565b7f3fffffffffffffffffffffffffffffffffffffffffffffffffffffffffffffff8111600116612b95575b60021b90565b612b9d6118cc565b612b8f565b604051906060820182811067ffffffffffffffff821117612bd0575b604052602a8252604082602036910137565b612bd86108e8565b612bbe565b90612be782610966565b612bf46040519182610944565b8281528092612c05601f1991610966565b0190602036910137565b805115612ced57612c1e612ae6565b612c42612c3d612c38612c3185516118e3565b6003900490565b612b64565b612bdd565b91602083019181825183016020810191825193600084525b828210612c9b5750505052516003900660018114612c8857600214612c7d575090565b603d90600019015390565b50603d9081600019820153600119015390565b9091956004906003809401938451600190603f9082828260121c16880101518553828282600c1c16880101518386015382828260061c1688010151600286015316850101519082015301959190612c5a565b506106bd61122f565b806000917a184f03e93ff9f4daa797ed6e38ed64bf6a1f01000000000000000080821015612e38575b506d04ee2d6d415b85acef810000000080831015612e29575b50662386f26fc1000080831015612e1a575b506305f5e10080831015612e0b575b5061271080831015612dfc575b506064821015612dec575b600a80921015612de2575b600190816021612d8d828701612bdd565b95860101905b612d9f575b5050505090565b600019019083907f30313233343536373839616263646566000000000000000000000000000000008282061a835304918215612ddd57919082612d93565b612d98565b9160010191612d7c565b9190606460029104910191612d71565b60049193920491019138612d66565b60089193920491019138612d59565b60109193920491019138612d4a565b60209193920491019138612d38565b604093508104915038612d1f565b919082604091031261076d576020825192015190565b60405190612e6982610928565b601782527f2c226973446576537570706f72746572223a66616c73650000000000000000006020830152565b612e9e81610d12565b90612eb381600052600b602052604060002090565b54612ec882600052600d602052604060002090565b546001600160a01b0393612edd8186166134cc565b90612ee785612cf6565b92670de0b6b3a764000080809604612efe90612cf6565b9104612f0990612cf6565b9660409182519889916020978897888501612f4890600b907f7b22686f6c646572223a2200000000000000000000000000000000000000000081520190565b612f51916126f8565b61088b60f21b81526002017f22746f6b656e4964223a220000000000000000000000000000000000000000008152600b01612f8b916126f8565b61088b60f21b81526002017f22746f74616c4c6f636b6564223a2200000000000000000000000000000000008152600f01612fc5916126f8565b61088b60f21b81526002017f227065726d616e656e746c794c6f636b6564223a2200000000000000000000008152601501612fff916126f8565b601160f91b81526001010395601f19968781018a5261301e908a610944565b8261302761122f565b9160095461303b906001600160a01b031690565b6001600160a01b0316938416151599613240976132339761318a966106bd9d6132db575b50505061306a61122f565b5088613075826124c7565b806132be575b156132a9576132196131f061319061318a9661318a6131c76131906130da61318a9a896132259b816130bb61142c61142c600a546001600160a01b031690565b91895180968192633edca40d60e21b8352600483019190602083019252565b0381845afa93841561329c575b60009461326e575b5061318a92613159600461319e94613190948c51928380927f36499bcf0000000000000000000000000000000000000000000000000000000082525afa908115613261575b60009161324c575b5061315361314b848904612cf6565b938204612cf6565b96613587565b98519e8f9d8e016015907f2c22646576537570706f7274416d6f756e74223a22000000000000000000000081520190565b906126f8565b61088b60f21b815260020190565b7f22746f74616c537570706f7274506f6f6c223a22000000000000000000000000815260140190565b7f22636f6e747269627574696f6e50657263656e74223a22000000000000000000815260170190565b7f226973446576537570706f72746572223a747275650000000000000000000000815260150190565b038a8101835282610944565b935b51998a978801906126f8565b607d60f81b815260010190565b03908101835282610944565b61325b91506125a73d82610944565b3861313c565b613269611647565b613134565b61319091945092613159600461319e9461328f61318a976125a73d82610944565b97945094505050926130ef565b6132a4611647565b6130e7565b5050505061318a6132b8612e5c565b93613227565b506132d461142c600a546001600160a01b031690565b151561307b565b61318a9396506133c661333586886133df96956133d395825180809681947f308e401e000000000000000000000000000000000000000000000000000000008352600483019190916001600160a01b036020820193169052565b03915afa918215613422575b60009081936133e8575b5061319061336b8361336461318a9561339d9504612cf6565b9504612cf6565b938b51998a9889016011907f2c22636c61696d61626c654f6b62223a2200000000000000000000000000000081520190565b7f22636c61696d61626c65536c656570223a220000000000000000000000000000815260120190565b601160f91b815260010190565b038b8101835282610944565b9288388061305f565b82935061339d915061336b61318a936133646134146131909461340b3d82610944565b3d810190612e46565b97909550505093505061334b565b61342a611647565b613341565b50634e487b7160e01b600052603260045260246000fd5b90602091805182101561345857010190565b61346061342f565b010190565b8015613473575b6000190190565b61347b6118cc565b61346c565b1561348757565b50606460405162461bcd60e51b815260206004820152602060248201527f537472696e67733a20686578206c656e67746820696e73756666696369656e746044820152fd5b6134d4612ba2565b9081511561357a575b60306020830153815160019081101561356d575b90607860218401536029915b80831161351057506106bd915015613480565b90807f3031323334353637383961626364656600000000000000000000000000000000600f61355993166010811015613560575b1a61354f8587613446565b5360041c92613465565b91906134fd565b61356861342f565b613544565b61357561342f565b6134f1565b61358261342f565b6134dd565b9080156135b8576064826106bd93600019048211811515166135ab575b0204612cf6565b6135b36118cc565b6135a4565b50506040516135c681610928565b600181527f3000000000000000000000000000000000000000000000000000000000000000602082015290565b6001600160a01b0380600954169283151580613693575b613615575b50505050565b833b1561368957606460405180948193631cf0a6f360e21b83526004830152600096879586928360248601521660448401525af1801561367c575b61365c575b808061360f565b81906136683d82610944565b3d810103126136775780613655565b809150fd5b613684611647565b613650565b5050505050600080fd5b50600061360a565b6001600160a01b039283600954169081151580613731575b6136bf575b5050505050565b813b15610a1d5760006064928682966040519889978896631cf0a6f360e21b885260048801521660248601521660448401525af18015613724575b613708575b808080806136b8565b6000906137153d82610944565b3d8101031261000f57386136ff565b61372c611647565b6136fa565b5084831615156136b356fea3646970667358221220f55c018f3065f4d7d7917366dc53ab5063154883203c76d1ffaa90701febffc06c6578706572696d656e74616cf564736f6c634300080a0041",
  "linkReferences": {},
  "deployedLinkReferences": {}
}