{
  "_format": "hh-sol-artifact-1",
  "contractName": "SleepMinter",
  "sourceName": "contracts/SleepMinter.sol",
  "abi": [
    {
      "inputs": [
        {
          "internalType": "address",
          "name": "_sleepTokenAddress",
          "type": "address"
        },
        {
          "internalType": "address",
          "name": "_treasuryAddress",
          "type": "address"
        }
      ],
      "stateMutability": "nonpayable",
      "type": "constructor"
    },
    {
      "anonymous": false,
      "inputs": [
        {
          "indexed": true,
          "internalType": "address",
          "name": "owner",
          "type": "address"
        },
        {
          "indexed": true,
          "internalType": "address",
          "name": "approved",
          "type": "address"
        },
        {
          "indexed": true,
          "internalType": "uint256",
          "name": "tokenId",
          "type": "uint256"
        }
      ],
      "name": "Approval",
      "type": "event"
    },
    {
      "anonymous": false,
      "inputs": [
        {
          "indexed": true,
          "internalType": "address",
          "name": "owner",
          "type": "address"
        },
        {
          "indexed": true,
          "internalType": "address",
          "name": "operator",
          "type": "address"
        },
        {
          "indexed": false,
          "internalType": "bool",
          "name": "approved",
          "type": "bool"
        }
      ],
      "name": "ApprovalForAll",
      "type": "event"
    },
    {
      "anonymous": false,
      "inputs": [
        {
          "indexed": true,
          "internalType": "address",
          "name": "previousOwner",
          "type": "address"
        },
        {
          "indexed": true,
          "internalType": "address",
          "name": "newOwner",
          "type": "address"
        }
      ],
      "name": "OwnershipTransferred",
      "type": "event"
    },
    {
      "anonymous": false,
      "inputs": [
        {
          "indexed": true,
          "internalType": "address",
          "name": "minter",
          "type": "address"
        },
        {
          "indexed": false,
          "internalType": "uint256",
          "name": "term",
          "type": "uint256"
        },
        {
          "indexed": false,
          "internalType": "uint256",
          "name": "count",
          "type": "uint256"
        },
        {
          "indexed": false,
          "internalType": "uint256",
          "name": "feePaid",
          "type": "uint256"
        },
        {
          "indexed": false,
          "internalType": "uint256",
          "name": "expectedFee",
          "type": "uint256"
        }
      ],
      "name": "RankClaimed",
      "type": "event"
    },
    {
      "anonymous": false,
      "inputs": [
        {
          "indexed": true,
          "internalType": "address",
          "name": "from",
          "type": "address"
        },
        {
          "indexed": true,
          "internalType": "address",
          "name": "to",
          "type": "address"
        },
        {
          "indexed": true,
          "internalType": "uint256",
          "name": "tokenId",
          "type": "uint256"
        }
      ],
      "name": "Transfer",
      "type": "event"
    },
    {
      "inputs": [],
      "name": "EAA",
      "outputs": [
        {
          "internalType": "uint256",
          "name": "",
          "type": "uint256"
        }
      ],
      "stateMutability": "view",
      "type": "function"
    },
    {
      "inputs": [],
      "name": "MAX_PENALTY_PCT",
      "outputs": [
        {
          "internalType": "uint256",
          "name": "",
          "type": "uint256"
        }
      ],
      "stateMutability": "view",
      "type": "function"
    },
    {
      "inputs": [],
      "name": "MINT_FEE",
      "outputs": [
        {
          "internalType": "uint256",
          "name": "",
          "type": "uint256"
        }
      ],
      "stateMutability": "view",
      "type": "function"
    },
    {
      "inputs": [],
      "name": "SECONDS_IN_DAY",
      "outputs": [
        {
          "internalType": "uint256",
          "name": "",
          "type": "uint256"
        }
      ],
      "stateMutability": "view",
      "type": "function"
    },
    {
      "inputs": [],
      "name": "WITHDRAWAL_WINDOW_DAYS",
      "outputs": [
        {
          "internalType": "uint256",
          "name": "",
          "type": "uint256"
        }
      ],
      "stateMutability": "view",
      "type": "function"
    },
    {
      "inputs": [
        {
          "internalType": "address",
          "name": "to",
          "type": "address"
        },
        {
          "internalType": "uint256",
          "name": "tokenId",
          "type": "uint256"
        }
      ],
      "name": "approve",
      "outputs": [],
      "stateMutability": "nonpayable",
      "type": "function"
    },
    {
      "inputs": [
        {
          "internalType": "address",
          "name": "owner",
          "type": "address"
        }
      ],
      "name": "balanceOf",
      "outputs": [
        {
          "internalType": "uint256",
          "name": "",
          "type": "uint256"
        }
      ],
      "stateMutability": "view",
      "type": "function"
    },
    {
      "inputs": [
        {
          "internalType": "uint256",
          "name": "tokenId",
          "type": "uint256"
        }
      ],
      "name": "claimMintReward",
      "outputs": [],
      "stateMutability": "nonpayable",
      "type": "function"
    },
    {
      "inputs": [
        {
          "internalType": "uint256",
          "name": "term",
          "type": "uint256"
        },
        {
          "internalType": "uint256",
          "name": "count",
          "type": "uint256"
        }
      ],
      "name": "claimRank",
      "outputs": [],
      "stateMutability": "payable",
      "type": "function"
    },
    {
      "inputs": [],
      "name": "genesisTs",
      "outputs": [
        {
          "internalType": "uint256",
          "name": "",
          "type": "uint256"
        }
      ],
      "stateMutability": "view",
      "type": "function"
    },
    {
      "inputs": [
        {
          "internalType": "uint256",
          "name": "tokenId",
          "type": "uint256"
        }
      ],
      "name": "getApproved",
      "outputs": [
        {
          "internalType": "address",
          "name": "",
          "type": "address"
        }
      ],
      "stateMutability": "view",
      "type": "function"
    },
    {
      "inputs": [],
      "name": "globalRank",
      "outputs": [
        {
          "internalType": "uint256",
          "name": "",
          "type": "uint256"
        }
      ],
      "stateMutability": "view",
      "type": "function"
    },
    {
      "inputs": [
        {
          "internalType": "address",
          "name": "owner",
          "type": "address"
        },
        {
          "internalType": "address",
          "name": "operator",
          "type": "address"
        }
      ],
      "name": "isApprovedForAll",
      "outputs": [
        {
          "internalType": "bool",
          "name": "",
          "type": "bool"
        }
      ],
      "stateMutability": "view",
      "type": "function"
    },
    {
      "inputs": [
        {
          "internalType": "uint256",
          "name": "",
          "type": "uint256"
        }
      ],
      "name": "mintPositions",
      "outputs": [
        {
          "internalType": "uint256",
          "name": "maturityTs",
          "type": "uint256"
        },
        {
          "internalType": "uint256",
          "name": "term",
          "type": "uint256"
        },
        {
          "internalType": "uint256",
          "name": "count",
          "type": "uint256"
        },
        {
          "internalType": "uint256",
          "name": "rank",
          "type": "uint256"
        },
        {
          "internalType": "uint256",
          "name": "amplifier",
          "type": "uint256"
        },
        {
          "internalType": "address",
          "name": "minter",
          "type": "address"
        }
      ],
      "stateMutability": "view",
      "type": "function"
    },
    {
      "inputs": [],
      "name": "name",
      "outputs": [
        {
          "internalType": "string",
          "name": "",
          "type": "string"
        }
      ],
      "stateMutability": "view",
      "type": "function"
    },
    {
      "inputs": [],
      "name": "owner",
      "outputs": [
        {
          "internalType": "address",
          "name": "",
          "type": "address"
        }
      ],
      "stateMutability": "view",
      "type": "function"
    },
    {
      "inputs": [
        {
          "internalType": "uint256",
          "name": "tokenId",
          "type": "uint256"
        }
      ],
      "name": "ownerOf",
      "outputs": [
        {
          "internalType": "address",
          "name": "",
          "type": "address"
        }
      ],
      "stateMutability": "view",
      "type": "function"
    },
    {
      "inputs": [
        {
          "internalType": "address",
          "name": "tokenAddress",
          "type": "address"
        },
        {
          "internalType": "uint256",
          "name": "amount",
          "type": "uint256"
        }
      ],
      "name": "recoverTokens",
      "outputs": [],
      "stateMutability": "nonpayable",
      "type": "function"
    },
    {
      "inputs": [],
      "name": "renounceOwnership",
      "outputs": [],
      "stateMutability": "nonpayable",
      "type": "function"
    },
    {
      "inputs": [
        {
          "internalType": "address",
          "name": "from",
          "type": "address"
        },
        {
          "internalType": "address",
          "name": "to",
          "type": "address"
        },
        {
          "internalType": "uint256",
          "name": "tokenId",
          "type": "uint256"
        }
      ],
      "name": "safeTransferFrom",
      "outputs": [],
      "stateMutability": "nonpayable",
      "type": "function"
    },
    {
      "inputs": [
        {
          "internalType": "address",
          "name": "from",
          "type": "address"
        },
        {
          "internalType": "address",
          "name": "to",
          "type": "address"
        },
        {
          "internalType": "uint256",
          "name": "tokenId",
          "type": "uint256"
        },
        {
          "internalType": "bytes",
          "name": "data",
          "type": "bytes"
        }
      ],
      "name": "safeTransferFrom",
      "outputs": [],
      "stateMutability": "nonpayable",
      "type": "function"
    },
    {
      "inputs": [
        {
          "internalType": "address",
          "name": "operator",
          "type": "address"
        },
        {
          "internalType": "bool",
          "name": "approved",
          "type": "bool"
        }
      ],
      "name": "setApprovalForAll",
      "outputs": [],
      "stateMutability": "nonpayable",
      "type": "function"
    },
    {
      "inputs": [
        {
          "internalType": "uint256",
          "name": "tokenId",
          "type": "uint256"
        },
        {
          "internalType": "uint256",
          "name": "newMaturityTs",
          "type": "uint256"
        }
      ],
      "name": "setMaturity",
      "outputs": [],
      "stateMutability": "nonpayable",
      "type": "function"
    },
    {
      "inputs": [
        {
          "internalType": "address",
          "name": "_stakingRewardsAddress",
          "type": "address"
        }
      ],
      "name": "setStakingRewardsAddress",
      "outputs": [],
      "stateMutability": "nonpayable",
      "type": "function"
    },
    {
      "inputs": [],
      "name": "sleepToken",
      "outputs": [
        {
          "internalType": "contract ISleepCoin",
          "name": "",
          "type": "address"
        }
      ],
      "stateMutability": "view",
      "type": "function"
    },
    {
      "inputs": [],
      "name": "stakingRewardsAddress",
      "outputs": [
        {
          "internalType": "address",
          "name": "",
          "type": "address"
        }
      ],
      "stateMutability": "view",
      "type": "function"
    },
    {
      "inputs": [
        {
          "internalType": "bytes4",
          "name": "interfaceId",
          "type": "bytes4"
        }
      ],
      "name": "supportsInterface",
      "outputs": [
        {
          "internalType": "bool",
          "name": "",
          "type": "bool"
        }
      ],
      "stateMutability": "view",
      "type": "function"
    },
    {
      "inputs": [],
      "name": "symbol",
      "outputs": [
        {
          "internalType": "string",
          "name": "",
          "type": "string"
        }
      ],
      "stateMutability": "view",
      "type": "function"
    },
    {
      "inputs": [
        {
          "internalType": "uint256",
          "name": "index",
          "type": "uint256"
        }
      ],
      "name": "tokenByIndex",
      "outputs": [
        {
          "internalType": "uint256",
          "name": "",
          "type": "uint256"
        }
      ],
      "stateMutability": "view",
      "type": "function"
    },
    {
      "inputs": [
        {
          "internalType": "address",
          "name": "owner",
          "type": "address"
        },
        {
          "internalType": "uint256",
          "name": "index",
          "type": "uint256"
        }
      ],
      "name": "tokenOfOwnerByIndex",
      "outputs": [
        {
          "internalType": "uint256",
          "name": "",
          "type": "uint256"
        }
      ],
      "stateMutability": "view",
      "type": "function"
    },
    {
      "inputs": [
        {
          "internalType": "uint256",
          "name": "tokenId",
          "type": "uint256"
        }
      ],
      "name": "tokenURI",
      "outputs": [
        {
          "internalType": "string",
          "name": "",
          "type": "string"
        }
      ],
      "stateMutability": "view",
      "type": "function"
    },
    {
      "inputs": [],
      "name": "totalSupply",
      "outputs": [
        {
          "internalType": "uint256",
          "name": "",
          "type": "uint256"
        }
      ],
      "stateMutability": "view",
      "type": "function"
    },
    {
      "inputs": [
        {
          "internalType": "address",
          "name": "from",
          "type": "address"
        },
        {
          "internalType": "address",
          "name": "to",
          "type": "address"
        },
        {
          "internalType": "uint256",
          "name": "tokenId",
          "type": "uint256"
        }
      ],
      "name": "transferFrom",
      "outputs": [],
      "stateMutability": "nonpayable",
      "type": "function"
    },
    {
      "inputs": [
        {
          "internalType": "address",
          "name": "newOwner",
          "type": "address"
        }
      ],
      "name": "transferOwnership",
      "outputs": [],
      "stateMutability": "nonpayable",
      "type": "function"
    },
    {
      "inputs": [],
      "name": "treasuryDistributor",
      "outputs": [
        {
          "internalType": "address",
          "name": "",
          "type": "address"
        }
      ],
      "stateMutability": "view",
      "type": "function"
    }
  ],
  "bytecode": "0x60a0604052620186a0600f553480156200001857600080fd5b5060405162002c9a38038062002c9a8339810160408190526200003b9162000222565b604080518082018252601681527f536c656570204d696e74696e6720506f736974696f6e000000000000000000006020808301918252835180850190945260088452670534c4545502d4d560c41b908401528151919291620000a0916000916200015f565b508051620000b69060019060208401906200015f565b505050620000d3620000cd6200010960201b60201c565b6200010d565b42608052600b80546001600160a01b039384166001600160a01b031991821617909155600c805492909316911617905562000297565b3390565b600a80546001600160a01b038381166001600160a01b0319831681179093556040519116919082907f8be0079c531659141344cd1fd0a4f28419497f9722a3daafe3b4186f6b6457e090600090a35050565b8280546200016d906200025a565b90600052602060002090601f016020900481019282620001915760008555620001dc565b82601f10620001ac57805160ff1916838001178555620001dc565b82800160010185558215620001dc579182015b82811115620001dc578251825591602001919060010190620001bf565b50620001ea929150620001ee565b5090565b5b80821115620001ea5760008155600101620001ef565b80516001600160a01b03811681146200021d57600080fd5b919050565b600080604083850312156200023657600080fd5b620002418362000205565b9150620002516020840162000205565b90509250929050565b600181811c908216806200026f57607f821691505b602082108114156200029157634e487b7160e01b600052602260045260246000fd5b50919050565b6080516129d9620002c16000396000818161062e015281816119b30152611af701526129d96000f3fe6080604052600436106102045760003560e01c806370a0823111610118578063c56f0bab116100a0578063e3af6d0a1161006f578063e3af6d0a1461061c578063e985e9c514610650578063f2fde38b14610699578063f3efc260146106b9578063f91564af146106cc57600080fd5b8063c56f0bab146105ac578063c87b56dd146105c1578063d7bf81a3146105e1578063dae0247b146105fc57600080fd5b806381749a8a116100e757806381749a8a146105195780638da5cb5b1461053957806395d89b4114610557578063a22cb4651461056c578063b88d4fde1461058c57600080fd5b806370a082311461043557806370a333e014610455578063715018a6146104e4578063788bff68146104f957600080fd5b80631c2440821161019b5780634f6ccce71161016a5780634f6ccce7146103a857806361a52a36146103c85780636352211e146103df578063698787c4146103ff5780636e4991f61461041f57600080fd5b80631c2440821461033257806323b872dd146103485780632f745c591461036857806342842e0e1461038857600080fd5b8063081812fc116101d7578063081812fc146102ba578063095ea7b3146102da5780630f2e1228146102fa57806318160ddd1461031d57600080fd5b806301ffc9a714610209578063069c9fae1461023e57806306fdde031461026057806307ed500314610282575b600080fd5b34801561021557600080fd5b5061022961022436600461243b565b6106ec565b60405190151581526020015b60405180910390f35b34801561024a57600080fd5b5061025e610259366004612474565b6106fd565b005b34801561026c57600080fd5b5061027561079c565b60405161023591906124f6565b34801561028e57600080fd5b50600b546102a2906001600160a01b031681565b6040516001600160a01b039091168152602001610235565b3480156102c657600080fd5b506102a26102d5366004612509565b61082e565b3480156102e657600080fd5b5061025e6102f5366004612474565b610855565b34801561030657600080fd5b5061030f606381565b604051908152602001610235565b34801561032957600080fd5b5060085461030f565b34801561033e57600080fd5b5061030f600e5481565b34801561035457600080fd5b5061025e610363366004612522565b61096b565b34801561037457600080fd5b5061030f610383366004612474565b61099c565b34801561039457600080fd5b5061025e6103a3366004612522565b610a32565b3480156103b457600080fd5b5061030f6103c3366004612509565b610a4d565b3480156103d457600080fd5b5061030f6201518081565b3480156103eb57600080fd5b506102a26103fa366004612509565b610ae0565b34801561040b57600080fd5b5061025e61041a366004612509565b610b40565b34801561042b57600080fd5b5061030f600f5481565b34801561044157600080fd5b5061030f61045036600461255e565b610dce565b34801561046157600080fd5b506104ae610470366004612509565b60116020526000908152604090208054600182015460028301546003840154600485015460059095015493949293919290916001600160a01b031686565b60408051968752602087019590955293850192909252606084015260808301526001600160a01b031660a082015260c001610235565b3480156104f057600080fd5b5061025e610e54565b34801561050557600080fd5b50600d546102a2906001600160a01b031681565b34801561052557600080fd5b50600c546102a2906001600160a01b031681565b34801561054557600080fd5b50600a546001600160a01b03166102a2565b34801561056357600080fd5b50610275610e68565b34801561057857600080fd5b5061025e610587366004612587565b610e77565b34801561059857600080fd5b5061025e6105a73660046125d4565b610e86565b3480156105b857600080fd5b5061030f600a81565b3480156105cd57600080fd5b506102756105dc366004612509565b610ebe565b3480156105ed57600080fd5b5061030f662386f26fc1000081565b34801561060857600080fd5b5061025e6106173660046126b0565b610f32565b34801561062857600080fd5b5061030f7f000000000000000000000000000000000000000000000000000000000000000081565b34801561065c57600080fd5b5061022961066b3660046126d2565b6001600160a01b03918216600090815260056020908152604080832093909416825291909152205460ff1690565b3480156106a557600080fd5b5061025e6106b436600461255e565b610f4c565b61025e6106c73660046126b0565b610fc5565b3480156106d857600080fd5b5061025e6106e736600461255e565b611263565b60006106f78261128d565b92915050565b6107056112b2565b816001600160a01b031663a9059cbb610726600a546001600160a01b031690565b6040516001600160e01b031960e084901b1681526001600160a01b039091166004820152602481018490526044016020604051808303816000875af1158015610773573d6000803e3d6000fd5b505050506040513d601f19601f820116820180604052508101906107979190612705565b505050565b6060600080546107ab90612722565b80601f01602080910402602001604051908101604052809291908181526020018280546107d790612722565b80156108245780601f106107f957610100808354040283529160200191610824565b820191906000526020600020905b81548152906001019060200180831161080757829003601f168201915b5050505050905090565b60006108398261130c565b506000908152600460205260409020546001600160a01b031690565b600061086082610ae0565b9050806001600160a01b0316836001600160a01b031614156108d35760405162461bcd60e51b815260206004820152602160248201527f4552433732313a20617070726f76616c20746f2063757272656e74206f776e656044820152603960f91b60648201526084015b60405180910390fd5b336001600160a01b03821614806108ef57506108ef813361066b565b6109615760405162461bcd60e51b815260206004820152603d60248201527f4552433732313a20617070726f76652063616c6c6572206973206e6f7420746f60448201527f6b656e206f776e6572206f7220617070726f76656420666f7220616c6c00000060648201526084016108ca565b610797838361136b565b61097533826113d9565b6109915760405162461bcd60e51b81526004016108ca9061275d565b610797838383611458565b60006109a783610dce565b8210610a095760405162461bcd60e51b815260206004820152602b60248201527f455243373231456e756d657261626c653a206f776e657220696e646578206f7560448201526a74206f6620626f756e647360a81b60648201526084016108ca565b506001600160a01b03919091166000908152600660209081526040808320938352929052205490565b61079783838360405180602001604052806000815250610e86565b6000610a5860085490565b8210610abb5760405162461bcd60e51b815260206004820152602c60248201527f455243373231456e756d657261626c653a20676c6f62616c20696e646578206f60448201526b7574206f6620626f756e647360a01b60648201526084016108ca565b60088281548110610ace57610ace6127aa565b90600052602060002001549050919050565b6000818152600260205260408120546001600160a01b0316806106f75760405162461bcd60e51b8152602060048201526018602482015277115490cdcc8c4e881a5b9d985b1a59081d1bdad95b88125160421b60448201526064016108ca565b610b4a33826113d9565b610ba85760405162461bcd60e51b815260206004820152602960248201527f534c4545502d4d503a2043616c6c6572206973206e6f74206f776e6572206f7260448201526808185c1c1c9bdd995960ba1b60648201526084016108ca565b60008181526011602052604090208054421015610c155760405162461bcd60e51b815260206004820152602560248201527f534c4545502d4d503a204d696e74696e67207465726d206e6f7420796574206d604482015264617475726560d81b60648201526084016108ca565b6000610c2e8260010154836003015484600401546115c9565b90506000826002015482610c4291906127d6565b90506000610c538460000154611670565b905060006064610c6383826127f5565b610c6d90856127d6565b610c779190612822565b90508115610d1a576000610c8b82856127f5565b905060006064610c9c8360066127d6565b610ca69190612822565b90508015610d1757600b54600d546040516340c10f1960e01b81526001600160a01b039182166004820152602481018490529116906340c10f1990604401600060405180830381600087803b158015610cfe57600080fd5b505af1158015610d12573d6000803e3d6000fd5b505050505b50505b6000868152601160205260408120818155600181018290556002810182905560038101829055600481019190915560050180546001600160a01b0319169055610d6286611713565b600b546040516340c10f1960e01b8152336004820152602481018390526001600160a01b03909116906340c10f1990604401600060405180830381600087803b158015610dae57600080fd5b505af1158015610dc2573d6000803e3d6000fd5b50505050505050505050565b60006001600160a01b038216610e385760405162461bcd60e51b815260206004820152602960248201527f4552433732313a2061646472657373207a65726f206973206e6f7420612076616044820152683634b21037bbb732b960b91b60648201526084016108ca565b506001600160a01b031660009081526003602052604090205490565b610e5c6112b2565b610e6660006117b6565b565b6060600180546107ab90612722565b610e82338383611808565b5050565b610e9033836113d9565b610eac5760405162461bcd60e51b81526004016108ca9061275d565b610eb8848484846118d7565b50505050565b6060610ec98261130c565b6000610ee060408051602081019091526000815290565b90506000815111610f005760405180602001604052806000815250610f2b565b80610f0a8461190a565b604051602001610f1b929190612844565b6040516020818303038152906040525b9392505050565b610f3a6112b2565b60009182526011602052604090912055565b610f546112b2565b6001600160a01b038116610fb95760405162461bcd60e51b815260206004820152602660248201527f4f776e61626c653a206e6577206f776e657220697320746865207a65726f206160448201526564647265737360d01b60648201526084016108ca565b610fc2816117b6565b50565b600081118015610fd6575060648111155b6110345760405162461bcd60e51b815260206004820152602960248201527f534c4545502d4d503a20436f756e74206d757374206265206265747765656e2060448201526803120616e64203130360bc1b60648201526084016108ca565b61103c6119a7565b82111561109a5760405162461bcd60e51b815260206004820152602660248201527f534c4545502d4d503a205465726d2065786365656473206d6178696d756d20616044820152651b1b1bddd95960d21b60648201526084016108ca565b60006110ad82662386f26fc100006127d6565b90508034146111085760405162461bcd60e51b815260206004820152602160248201527f534c4545502d4d503a20496e636f7272656374206d696e7420666565207061696044820152601960fa1b60648201526084016108ca565b600c60009054906101000a90046001600160a01b03166001600160a01b031663bb57ad20346040518263ffffffff1660e01b81526004016000604051808303818588803b15801561115857600080fd5b505af115801561116c573d6000803e3d6000fd5b50505050506000600e5460016111829190612873565b905082600e60008282546111969190612873565b909155505060108054600101905560006111af60105490565b90506040518060c0016040528086426111c89190612873565b81526020018681526020018581526020018381526020016111e7611a0e565b8152336020918201819052600084815260118352604090819020845181559284015160018401558301516002830155606083015160038301556080830151600483015560a090920151600590910180546001600160a01b0319166001600160a01b0390921691909117905561125c9082611a75565b5050505050565b61126b6112b2565b600d80546001600160a01b0319166001600160a01b0392909216919091179055565b60006001600160e01b0319821663780e9d6360e01b14806106f757506106f782611a8f565b600a546001600160a01b03163314610e665760405162461bcd60e51b815260206004820181905260248201527f4f776e61626c653a2063616c6c6572206973206e6f7420746865206f776e657260448201526064016108ca565b6000818152600260205260409020546001600160a01b0316610fc25760405162461bcd60e51b8152602060048201526018602482015277115490cdcc8c4e881a5b9d985b1a59081d1bdad95b88125160421b60448201526064016108ca565b600081815260046020526040902080546001600160a01b0319166001600160a01b03841690811790915581906113a082610ae0565b6001600160a01b03167f8c5be1e5ebec7d5bd14f71427d1e84f3dd0314c0f7b2291e5b200ac8c7c3b92560405160405180910390a45050565b6000806113e583610ae0565b9050806001600160a01b0316846001600160a01b0316148061142c57506001600160a01b0380821660009081526005602090815260408083209388168352929052205460ff165b806114505750836001600160a01b03166114458461082e565b6001600160a01b0316145b949350505050565b826001600160a01b031661146b82610ae0565b6001600160a01b0316146114915760405162461bcd60e51b81526004016108ca9061288b565b6001600160a01b0382166114f35760405162461bcd60e51b8152602060048201526024808201527f4552433732313a207472616e7366657220746f20746865207a65726f206164646044820152637265737360e01b60648201526084016108ca565b6115008383836001611adf565b826001600160a01b031661151382610ae0565b6001600160a01b0316146115395760405162461bcd60e51b81526004016108ca9061288b565b600081815260046020908152604080832080546001600160a01b03199081169091556001600160a01b0387811680865260038552838620805460001901905590871680865283862080546001019055868652600290945282852080549092168417909155905184937fddf252ad1be2c89b69c2b068fc378daa952ba7f163c4a11628f55a4df523b3ef91a4505050565b60008083600e54116115dc5760006115ea565b83600e546115ea91906127f5565b9050600281106115fa57806115fd565b60025b90506000620f4240600f5487868561161591906127d6565b61161f91906127d6565b61162991906127d6565b6116339190612822565b9050600061163f611aeb565b9050600061166461165c8361165386611b64565b600f0b90611b7d565b600f0b611bb4565b98975050505050505050565b60008061167d83426127f5565b9050600061168e6201518083612822565b9050600281116116a2575060009392505050565b600581116116c0576116b56002826127f5565b6114509060056127d6565b600a811161170957600f60006116d76005846127f5565b6116e290600f6127d6565b6116ec9083612873565b9050606381116116fc57806116ff565b60635b9695505050505050565b5060639392505050565b600061171e82610ae0565b905061172e816000846001611adf565b61173782610ae0565b600083815260046020908152604080832080546001600160a01b03199081169091556001600160a01b0385168085526003845282852080546000190190558785526002909352818420805490911690555192935084927fddf252ad1be2c89b69c2b068fc378daa952ba7f163c4a11628f55a4df523b3ef908390a45050565b600a80546001600160a01b038381166001600160a01b0319831681179093556040519116919082907f8be0079c531659141344cd1fd0a4f28419497f9722a3daafe3b4186f6b6457e090600090a35050565b816001600160a01b0316836001600160a01b0316141561186a5760405162461bcd60e51b815260206004820152601960248201527f4552433732313a20617070726f766520746f2063616c6c65720000000000000060448201526064016108ca565b6001600160a01b03838116600081815260056020908152604080832094871680845294825291829020805460ff191686151590811790915591519182527f17307eab39ab6107e8899845ad3d59bd9653f200f220920489ca2b5937696c31910160405180910390a3505050565b6118e2848484611458565b6118ee84848484611bd0565b610eb85760405162461bcd60e51b81526004016108ca906128d0565b6060600061191783611cce565b600101905060008167ffffffffffffffff811115611937576119376125be565b6040519080825280601f01601f191660200182016040528015611961576020820181803683370190505b5090508181016020015b600019016f181899199a1a9b1b9c1cb0b131b232b360811b600a86061a8153600a850494508461199a5761199f565b61196b565b509392505050565b600080620151806119d87f0000000000000000000000000000000000000000000000000000000000000000426127f5565b6119e29190612822565b9050620151806119f3600383612822565b6119fe90602d612873565b611a0891906127d6565b91505090565b600080620186a0600e54611a229190612822565b9050606460005b82811015611a5c576064611a3e8360626127d6565b611a489190612822565b915080611a5481612922565b915050611a29565b5060018111611a6c576001611a6e565b805b9250505090565b610e82828260405180602001604052806000815250611da6565b60006001600160e01b031982166380ac58cd60e01b1480611ac057506001600160e01b03198216635b5e139f60e01b145b806106f757506301ffc9a760e01b6001600160e01b03198316146106f7565b610eb884848484611dd9565b60008062015180611b1c7f0000000000000000000000000000000000000000000000000000000000000000426127f5565b611b269190612822565b90506000611b5682600f0b611b4d62989680611b4461946f19611f06565b600f0b90611f2d565b600f0b90611f77565b9050611a6e81600f0b611fa7565b60006001603f1b8210611b7657600080fd5b5060401b90565b6000600f83810b9083900b0260401d60016001607f1b03198112801590611bab575060016001607f1b038113155b610f2b57600080fd5b60008082600f0b1215611bc657600080fd5b50600f0b60401d90565b60006001600160a01b0384163b15611cc357604051630a85bd0160e11b81526001600160a01b0385169063150b7a0290611c1490339089908890889060040161293d565b6020604051808303816000875af1925050508015611c4f575060408051601f3d908101601f19168201909252611c4c91810190612970565b60015b611ca9573d808015611c7d576040519150601f19603f3d011682016040523d82523d6000602084013e611c82565b606091505b508051611ca15760405162461bcd60e51b81526004016108ca906128d0565b805181602001fd5b6001600160e01b031916630a85bd0160e11b149050611450565b506001949350505050565b60008072184f03e93ff9f4daa797ed6e38ed64bf6a1f0160401b8310611d0d5772184f03e93ff9f4daa797ed6e38ed64bf6a1f0160401b830492506040015b6d04ee2d6d415b85acef81000000008310611d39576d04ee2d6d415b85acef8100000000830492506020015b662386f26fc100008310611d5757662386f26fc10000830492506010015b6305f5e1008310611d6f576305f5e100830492506008015b6127108310611d8357612710830492506004015b60648310611d95576064830492506002015b600a83106106f75760010192915050565b611db0838361205a565b611dbd6000848484611bd0565b6107975760405162461bcd60e51b81526004016108ca906128d0565b6001811115611e485760405162461bcd60e51b815260206004820152603560248201527f455243373231456e756d657261626c653a20636f6e7365637574697665207472604482015274185b9cd9995c9cc81b9bdd081cdd5c1c1bdc9d1959605a1b60648201526084016108ca565b816001600160a01b038516611ea457611e9f81600880546000838152600960205260408120829055600182018355919091527ff3f7a9fe364faab93b216da50a3214154f22a0a2b415b23a84c8169e8b636ee30155565b611ec7565b836001600160a01b0316856001600160a01b031614611ec757611ec785826121f3565b6001600160a01b038416611ee357611ede81612290565b61125c565b846001600160a01b0316846001600160a01b03161461125c5761125c848261233f565b6000677fffffffffffffff198212158015611f2457506001603f1b82125b611b7657600080fd5b600081611f3957600080fd5b60008284600f0b81611f4d57611f4d61280c565b05905060016001607f1b03198112801590611bab575060016001607f1b03811315610f2b57600080fd5b6000600f83900b820260016001607f1b03198112801590611bab575060016001607f1b03811315610f2b57600080fd5b600060016001607f1b0382600f0b12611fbf57600080fd5b6803ffffffffffffffff1982600f0b1215611fdc57506000919050565b6000611fe86001611b64565b9050826000611ff76001611b64565b905060025b600061200784612383565b600f0b13156120505761201a84846123a2565b93506120268387611b7d565b925061203a8261203583611b64565b611b7d565b915060010161204983836123d5565b9250611ffc565b5091949350505050565b6001600160a01b0382166120b05760405162461bcd60e51b815260206004820181905260248201527f4552433732313a206d696e7420746f20746865207a65726f206164647265737360448201526064016108ca565b6000818152600260205260409020546001600160a01b0316156121155760405162461bcd60e51b815260206004820152601c60248201527f4552433732313a20746f6b656e20616c7265616479206d696e7465640000000060448201526064016108ca565b612123600083836001611adf565b6000818152600260205260409020546001600160a01b0316156121885760405162461bcd60e51b815260206004820152601c60248201527f4552433732313a20746f6b656e20616c7265616479206d696e7465640000000060448201526064016108ca565b6001600160a01b038216600081815260036020908152604080832080546001019055848352600290915280822080546001600160a01b0319168417905551839291907fddf252ad1be2c89b69c2b068fc378daa952ba7f163c4a11628f55a4df523b3ef908290a45050565b6000600161220084610dce565b61220a91906127f5565b60008381526007602052604090205490915080821461225d576001600160a01b03841660009081526006602090815260408083208584528252808320548484528184208190558352600790915290208190555b5060009182526007602090815260408084208490556001600160a01b039094168352600681528383209183525290812055565b6008546000906122a2906001906127f5565b600083815260096020526040812054600880549394509092849081106122ca576122ca6127aa565b9060005260206000200154905080600883815481106122eb576122eb6127aa565b60009182526020808320909101929092558281526009909152604080822084905585825281205560088054806123235761232361298d565b6001900381819060005260206000200160009055905550505050565b600061234a83610dce565b6001600160a01b039093166000908152600660209081526040808320868452825280832085905593825260079052919091209190915550565b60008082600f0b121561239e5761239982612403565b6106f7565b5090565b6000600f83810b9083900b0160016001607f1b03198112801590611bab575060016001607f1b03811315610f2b57600080fd5b600081600f0b600014156123e857600080fd5b600082600f0b604085600f0b901b81611f4d57611f4d61280c565b6000600f82900b60016001607f1b0319141561241e57600080fd5b5060000390565b6001600160e01b031981168114610fc257600080fd5b60006020828403121561244d57600080fd5b8135610f2b81612425565b80356001600160a01b038116811461246f57600080fd5b919050565b6000806040838503121561248757600080fd5b61249083612458565b946020939093013593505050565b60005b838110156124b95781810151838201526020016124a1565b83811115610eb85750506000910152565b600081518084526124e281602086016020860161249e565b601f01601f19169290920160200192915050565b602081526000610f2b60208301846124ca565b60006020828403121561251b57600080fd5b5035919050565b60008060006060848603121561253757600080fd5b61254084612458565b925061254e60208501612458565b9150604084013590509250925092565b60006020828403121561257057600080fd5b610f2b82612458565b8015158114610fc257600080fd5b6000806040838503121561259a57600080fd5b6125a383612458565b915060208301356125b381612579565b809150509250929050565b634e487b7160e01b600052604160045260246000fd5b600080600080608085870312156125ea57600080fd5b6125f385612458565b935061260160208601612458565b925060408501359150606085013567ffffffffffffffff8082111561262557600080fd5b818701915087601f83011261263957600080fd5b81358181111561264b5761264b6125be565b604051601f8201601f19908116603f01168101908382118183101715612673576126736125be565b816040528281528a602084870101111561268c57600080fd5b82602086016020830137600060208483010152809550505050505092959194509250565b600080604083850312156126c357600080fd5b50508035926020909101359150565b600080604083850312156126e557600080fd5b6126ee83612458565b91506126fc60208401612458565b90509250929050565b60006020828403121561271757600080fd5b8151610f2b81612579565b600181811c9082168061273657607f821691505b6020821081141561275757634e487b7160e01b600052602260045260246000fd5b50919050565b6020808252602d908201527f4552433732313a2063616c6c6572206973206e6f7420746f6b656e206f776e6560408201526c1c881bdc88185c1c1c9bdd9959609a1b606082015260800190565b634e487b7160e01b600052603260045260246000fd5b634e487b7160e01b600052601160045260246000fd5b60008160001904831182151516156127f0576127f06127c0565b500290565b600082821015612807576128076127c0565b500390565b634e487b7160e01b600052601260045260246000fd5b60008261283f57634e487b7160e01b600052601260045260246000fd5b500490565b6000835161285681846020880161249e565b83519083019061286a81836020880161249e565b01949350505050565b60008219821115612886576128866127c0565b500190565b60208082526025908201527f4552433732313a207472616e736665722066726f6d20696e636f72726563742060408201526437bbb732b960d91b606082015260800190565b60208082526032908201527f4552433732313a207472616e7366657220746f206e6f6e20455243373231526560408201527131b2b4bb32b91034b6b83632b6b2b73a32b960711b606082015260800190565b6000600019821415612936576129366127c0565b5060010190565b6001600160a01b03858116825284166020820152604081018390526080606082018190526000906116ff908301846124ca565b60006020828403121561298257600080fd5b8151610f2b81612425565b634e487b7160e01b600052603160045260246000fdfea26469706673582212205039d085e73ed97c654b66da53cf99670e85aca03f0b26626a9d7597160a8f3164736f6c634300080a0033",
  "linkReferences": {},
  "deployedLinkReferences": {}
}