{
  "_format": "hh-sol-artifact-1",
  "contractName": "StakingRewards",
  "sourceName": "contracts/StakingRewards.sol",
  "abi": [
    {
      "inputs": [
        {
          "internalType": "address",
          "name": "_sleepTokenAddress",
          "type": "address"
        }
      ],
      "stateMutability": "nonpayable",
      "type": "constructor"
    },
    {
      "anonymous": false,
      "inputs": [
        {
          "indexed": true,
          "internalType": "address",
          "name": "previousOwner",
          "type": "address"
        },
        {
          "indexed": true,
          "internalType": "address",
          "name": "newOwner",
          "type": "address"
        }
      ],
      "name": "OwnershipTransferred",
      "type": "event"
    },
    {
      "anonymous": false,
      "inputs": [
        {
          "indexed": true,
          "internalType": "address",
          "name": "user",
          "type": "address"
        },
        {
          "indexed": false,
          "internalType": "uint256",
          "name": "amount",
          "type": "uint256"
        }
      ],
      "name": "RewardClaimed",
      "type": "event"
    },
    {
      "anonymous": false,
      "inputs": [
        {
          "indexed": true,
          "internalType": "address",
          "name": "from",
          "type": "address"
        },
        {
          "indexed": false,
          "internalType": "uint256",
          "name": "amount",
          "type": "uint256"
        }
      ],
      "name": "RewardDeposited",
      "type": "event"
    },
    {
      "anonymous": false,
      "inputs": [
        {
          "indexed": false,
          "internalType": "uint256",
          "name": "totalAmount",
          "type": "uint256"
        }
      ],
      "name": "RewardsDistributed",
      "type": "event"
    },
    {
      "anonymous": false,
      "inputs": [
        {
          "indexed": true,
          "internalType": "address",
          "name": "user",
          "type": "address"
        },
        {
          "indexed": false,
          "internalType": "uint256",
          "name": "amount",
          "type": "uint256"
        }
      ],
      "name": "SleepRewardClaimed",
      "type": "event"
    },
    {
      "anonymous": false,
      "inputs": [
        {
          "indexed": false,
          "internalType": "uint256",
          "name": "totalAmount",
          "type": "uint256"
        }
      ],
      "name": "SleepRewardsDistributed",
      "type": "event"
    },
    {
      "anonymous": false,
      "inputs": [
        {
          "indexed": true,
          "internalType": "address",
          "name": "user",
          "type": "address"
        },
        {
          "indexed": false,
          "internalType": "uint256",
          "name": "amount",
          "type": "uint256"
        }
      ],
      "name": "Staked",
      "type": "event"
    },
    {
      "anonymous": false,
      "inputs": [
        {
          "indexed": true,
          "internalType": "address",
          "name": "user",
          "type": "address"
        },
        {
          "indexed": false,
          "internalType": "uint256",
          "name": "amount",
          "type": "uint256"
        }
      ],
      "name": "Unstaked",
      "type": "event"
    },
    {
      "inputs": [],
      "name": "VETERAN_STATUS_SECONDS",
      "outputs": [
        {
          "internalType": "uint256",
          "name": "",
          "type": "uint256"
        }
      ],
      "stateMutability": "view",
      "type": "function"
    },
    {
      "inputs": [],
      "name": "claimReward",
      "outputs": [],
      "stateMutability": "nonpayable",
      "type": "function"
    },
    {
      "inputs": [],
      "name": "claimSleepReward",
      "outputs": [],
      "stateMutability": "nonpayable",
      "type": "function"
    },
    {
      "inputs": [],
      "name": "depositReward",
      "outputs": [],
      "stateMutability": "payable",
      "type": "function"
    },
    {
      "inputs": [],
      "name": "distributeRewards",
      "outputs": [],
      "stateMutability": "nonpayable",
      "type": "function"
    },
    {
      "inputs": [],
      "name": "distributeSleepRewards",
      "outputs": [],
      "stateMutability": "nonpayable",
      "type": "function"
    },
    {
      "inputs": [
        {
          "internalType": "address",
          "name": "",
          "type": "address"
        }
      ],
      "name": "isStaker",
      "outputs": [
        {
          "internalType": "bool",
          "name": "",
          "type": "bool"
        }
      ],
      "stateMutability": "view",
      "type": "function"
    },
    {
      "inputs": [],
      "name": "overlordsVault",
      "outputs": [
        {
          "internalType": "uint256",
          "name": "",
          "type": "uint256"
        }
      ],
      "stateMutability": "view",
      "type": "function"
    },
    {
      "inputs": [],
      "name": "owner",
      "outputs": [
        {
          "internalType": "address",
          "name": "",
          "type": "address"
        }
      ],
      "stateMutability": "view",
      "type": "function"
    },
    {
      "inputs": [
        {
          "internalType": "address",
          "name": "tokenAddress",
          "type": "address"
        },
        {
          "internalType": "uint256",
          "name": "amount",
          "type": "uint256"
        }
      ],
      "name": "recoverTokens",
      "outputs": [],
      "stateMutability": "nonpayable",
      "type": "function"
    },
    {
      "inputs": [],
      "name": "renounceOwnership",
      "outputs": [],
      "stateMutability": "nonpayable",
      "type": "function"
    },
    {
      "inputs": [],
      "name": "rewardPool",
      "outputs": [
        {
          "internalType": "uint256",
          "name": "",
          "type": "uint256"
        }
      ],
      "stateMutability": "view",
      "type": "function"
    },
    {
      "inputs": [
        {
          "internalType": "address",
          "name": "user",
          "type": "address"
        },
        {
          "internalType": "uint256",
          "name": "newSinceTimestamp",
          "type": "uint256"
        }
      ],
      "name": "setSinceTimestamp",
      "outputs": [],
      "stateMutability": "nonpayable",
      "type": "function"
    },
    {
      "inputs": [],
      "name": "sleepToken",
      "outputs": [
        {
          "internalType": "contract IERC20",
          "name": "",
          "type": "address"
        }
      ],
      "stateMutability": "view",
      "type": "function"
    },
    {
      "inputs": [
        {
          "internalType": "uint256",
          "name": "amount",
          "type": "uint256"
        }
      ],
      "name": "stake",
      "outputs": [],
      "stateMutability": "nonpayable",
      "type": "function"
    },
    {
      "inputs": [
        {
          "internalType": "uint256",
          "name": "",
          "type": "uint256"
        }
      ],
      "name": "stakers",
      "outputs": [
        {
          "internalType": "address",
          "name": "",
          "type": "address"
        }
      ],
      "stateMutability": "view",
      "type": "function"
    },
    {
      "inputs": [],
      "name": "totalStaked",
      "outputs": [
        {
          "internalType": "uint256",
          "name": "",
          "type": "uint256"
        }
      ],
      "stateMutability": "view",
      "type": "function"
    },
    {
      "inputs": [
        {
          "internalType": "address",
          "name": "newOwner",
          "type": "address"
        }
      ],
      "name": "transferOwnership",
      "outputs": [],
      "stateMutability": "nonpayable",
      "type": "function"
    },
    {
      "inputs": [],
      "name": "unstake",
      "outputs": [],
      "stateMutability": "nonpayable",
      "type": "function"
    },
    {
      "inputs": [
        {
          "internalType": "address",
          "name": "",
          "type": "address"
        }
      ],
      "name": "userRewards",
      "outputs": [
        {
          "internalType": "uint256",
          "name": "",
          "type": "uint256"
        }
      ],
      "stateMutability": "view",
      "type": "function"
    },
    {
      "inputs": [
        {
          "internalType": "address",
          "name": "",
          "type": "address"
        }
      ],
      "name": "userSleepRewards",
      "outputs": [
        {
          "internalType": "uint256",
          "name": "",
          "type": "uint256"
        }
      ],
      "stateMutability": "view",
      "type": "function"
    },
    {
      "inputs": [
        {
          "internalType": "address",
          "name": "",
          "type": "address"
        }
      ],
      "name": "userStakes",
      "outputs": [
        {
          "internalType": "uint256",
          "name": "amount",
          "type": "uint256"
        },
        {
          "internalType": "uint256",
          "name": "sinceTimestamp",
          "type": "uint256"
        }
      ],
      "stateMutability": "view",
      "type": "function"
    },
    {
      "stateMutability": "payable",
      "type": "receive"
    }
  ],
  "bytecode": "0x608060405234801561001057600080fd5b506040516115cd3803806115cd83398101604081905261002f916100b1565b61003833610061565b60018055600280546001600160a01b0319166001600160a01b03929092169190911790556100e1565b600080546001600160a01b038381166001600160a01b0319831681178455604051919092169283917f8be0079c531659141344cd1fd0a4f28419497f9722a3daafe3b4186f6b6457e09190a35050565b6000602082840312156100c357600080fd5b81516001600160a01b03811681146100da57600080fd5b9392505050565b6114dd806100f06000396000f3fe6080604052600436106101395760003560e01c8063817b1cd2116100ab578063b88a802f1161006f578063b88a802f1461035b578063b8ab01ba14610370578063c664e4d314610390578063f2fde38b146103a5578063f575b97d146103c5578063fd5e6dd1146103f257600080fd5b8063817b1cd2146102a95780638da5cb5b146102bf5780638da7ad23146102dd5780639b77b62f14610326578063a694fc3a1461033b57600080fd5b80635e24b6cf116100fd5780635e24b6cf1461020a5780635ec2dc8d1461022157806366666aa9146102295780636f1e85331461023f5780636f4a2cd01461027f578063715018a61461029457600080fd5b80630660f1e814610145578063069c9fae1461018557806307ed5003146101a75780630a339dc1146101df5780632def6620146101f557600080fd5b3661014057005b600080fd5b34801561015157600080fd5b5061017261016036600461133a565b60096020526000908152604090205481565b6040519081526020015b60405180910390f35b34801561019157600080fd5b506101a56101a036600461135c565b610412565b005b3480156101b357600080fd5b506002546101c7906001600160a01b031681565b6040516001600160a01b03909116815260200161017c565b3480156101eb57600080fd5b5061017260085481565b34801561020157600080fd5b506101a5610527565b34801561021657600080fd5b5061017262278d0081565b6101a561067e565b34801561023557600080fd5b5061017260075481565b34801561024b57600080fd5b5061026f61025a36600461133a565b60056020526000908152604090205460ff1681565b604051901515815260200161017c565b34801561028b57600080fd5b506101a561071c565b3480156102a057600080fd5b506101a5610a6c565b3480156102b557600080fd5b5061017260065481565b3480156102cb57600080fd5b506000546001600160a01b03166101c7565b3480156102e957600080fd5b506103116102f836600461133a565b6003602052600090815260409020805460019091015482565b6040805192835260208301919091520161017c565b34801561033257600080fd5b506101a5610a7e565b34801561034757600080fd5b506101a5610356366004611386565b610bb2565b34801561036757600080fd5b506101a5610d9b565b34801561037c57600080fd5b506101a561038b36600461135c565b610ef5565b34801561039c57600080fd5b506101a5610f8f565b3480156103b157600080fd5b506101a56103c036600461133a565b61117a565b3480156103d157600080fd5b506101726103e036600461133a565b600a6020526000908152604090205481565b3480156103fe57600080fd5b506101c761040d366004611386565b6111f0565b61041a61121a565b6002546001600160a01b03838116911614156104905760405162461bcd60e51b815260206004820152602a60248201527f5374616b696e673a2043616e6e6f74207265636f76657220746865207374616b60448201526934b733903a37b5b2b71760b11b60648201526084015b60405180910390fd5b816001600160a01b031663a9059cbb6104b16000546001600160a01b031690565b6040516001600160e01b031960e084901b1681526001600160a01b039091166004820152602481018490526044016020604051808303816000875af11580156104fe573d6000803e3d6000fd5b505050506040513d601f19601f82011682018060405250810190610522919061139f565b505050565b61052f611274565b33600090815260036020526040902054806105975760405162461bcd60e51b815260206004820152602260248201527f5374616b696e673a20596f752068617665206e6f20746f6b656e73207374616b604482015261195960f21b6064820152608401610487565b336000908152600360205260408120818155600101819055600680548392906105c19084906113d7565b909155505060025460405163a9059cbb60e01b8152336004820152602481018390526001600160a01b039091169063a9059cbb906044016020604051808303816000875af1158015610617573d6000803e3d6000fd5b505050506040513d601f19601f8201168201806040525081019061063b919061139f565b5060405181815233907f0f5bb82176feb1b5e747e28471aa92156a04d9f3ab9f45f28e2d704232b93f75906020015b60405180910390a25061067c60018055565b565b600034116106ce5760405162461bcd60e51b815260206004820181905260248201527f5374616b696e673a2043616e6e6f74206465706f7369742030207265776172646044820152606401610487565b34600760008282546106e091906113ee565b909155505060405134815233907f7dbc080e4530c8bcf265eb5c9a35ae096ca1eb607b7e802b96581ef4c5e1a7039060200160405180910390a2565b61072461121a565b61072c611274565b6007548061077c5760405162461bcd60e51b815260206004820152601d60248201527f5374616b696e673a2052657761726420706f6f6c20697320656d7074790000006044820152606401610487565b600060075560065461079057600755610a63565b60045460009067ffffffffffffffff8111156107ae576107ae611406565b6040519080825280602002602001820160405280156107d7578160200160208202803683370190505b5090506000806000805b60045481101561096b576000600482815481106108005761080061141c565b60009182526020808320909101546001600160a01b0316808352600390915260409091205490915080156109565760065460009061083e838b611432565b6108489190611451565b6001600160a01b03841660009081526003602052604090206001015490915062278d009061087690426113d7565b106108f4576001600160a01b038316600090815260096020526040812080548392906108a39084906113ee565b92505081905550828888815181106108bd576108bd61141c565b6001600160a01b0390921660209283029190910190910152866108df81611473565b97506108ed905082876113ee565b9550610954565b60006064610903836014611432565b61090d9190611451565b905061091981876113ee565b955061092581836113d7565b6001600160a01b0385166000908152600960205260408120805490919061094d9084906113ee565b9091555050505b505b5050808061096390611473565b9150506107e1565b5060008111801561097c5750600082115b15610a2a5760005b83811015610a285760008582815181106109a0576109a061141c565b6020908102919091018101516001600160a01b03811660009081526003909252604082205490925090856109d48387611432565b6109de9190611451565b6001600160a01b038416600090815260096020526040812080549293508392909190610a0b9084906113ee565b925050819055505050508080610a2090611473565b915050610984565b505b6040518581527f6d1c76d614228b523baa4dcd9539e2c713b54ff4ab3ff2d1627e7f6cd32be4429060200160405180910390a150505050505b61067c60018055565b610a7461121a565b61067c60006112ce565b610a86611274565b336000908152600a602052604090205480610af75760405162461bcd60e51b815260206004820152602b60248201527f5374616b696e673a20596f752068617665206e6f20534c45455020726577617260448201526a647320746f20636c61696d60a81b6064820152608401610487565b336000818152600a602052604080822091909155600254905163a9059cbb60e01b81526004810192909252602482018390526001600160a01b03169063a9059cbb906044016020604051808303816000875af1158015610b5b573d6000803e3d6000fd5b505050506040513d601f19601f82011682018060405250810190610b7f919061139f565b5060405181815233907fb82fa250d997a8f39fe231936e1c033d90f35c7d84651960da35da81b208c34b9060200161066a565b610bba611274565b60008111610c0a5760405162461bcd60e51b815260206004820152601760248201527f5374616b696e673a2043616e6e6f74207374616b6520300000000000000000006044820152606401610487565b33600090815260036020526040902054610ca15733600090815260036020908152604080832042600190910155600590915290205460ff16610ca1576004805460018181019092557f8a35acfbc15ff81a39ae7d344fd709f28e8600b4aa8c65c6b64bfe7fe36bd19b0180546001600160a01b031916339081179091556000908152600560205260409020805460ff191690911790555b3360009081526003602052604081208054839290610cc09084906113ee565b925050819055508060066000828254610cd991906113ee565b90915550506002546040516323b872dd60e01b8152336004820152306024820152604481018390526001600160a01b03909116906323b872dd906064016020604051808303816000875af1158015610d35573d6000803e3d6000fd5b505050506040513d601f19601f82011682018060405250810190610d59919061139f565b5060405181815233907f9e71bc8eea02a63969f509818f2dafb9254532904319f9dbda79b67bd34a5f3d9060200160405180910390a2610d9860018055565b50565b610da3611274565b3360009081526009602052604090205480610e0e5760405162461bcd60e51b815260206004820152602560248201527f5374616b696e673a20596f752068617665206e6f207265776172647320746f20604482015264636c61696d60d81b6064820152608401610487565b336000818152600960205260408082208290555190919083908381818185875af1925050503d8060008114610e5f576040519150601f19603f3d011682016040523d82523d6000602084013e610e64565b606091505b5050905080610eb55760405162461bcd60e51b815260206004820152601f60248201527f5374616b696e673a20526577617264207472616e73666572206661696c6564006044820152606401610487565b60405182815233907f106f923f993c2149d49b4255ff723acafa1f2d94393f561d3eda32ae348f72419060200160405180910390a2505061067c60018055565b610efd61121a565b6001600160a01b038216600090815260036020526040902054610f705760405162461bcd60e51b815260206004820152602560248201527f5374616b696e673a205573657220686173206e6f207374616b6520746f206d6f6044820152643234b33c9760d91b6064820152608401610487565b6001600160a01b03909116600090815260036020526040902060010155565b610f9761121a565b610f9f611274565b6006546002546040516370a0823160e01b8152306004820152600092916001600160a01b0316906370a0823190602401602060405180830381865afa158015610fec573d6000803e3d6000fd5b505050506040513d601f19601f82011682018060405250810190611010919061148e565b61101a91906113d7565b90506000811161107c5760405162461bcd60e51b815260206004820152602760248201527f5374616b696e673a204e6f20534c454550207265776172647320746f206469736044820152667472696275746560c81b6064820152608401610487565b6006546110895750610a63565b60005b60045481101561113c576000600482815481106110ab576110ab61141c565b60009182526020808320909101546001600160a01b031680835260039091526040909120549091508015611127576006546000906110e98387611432565b6110f39190611451565b6001600160a01b0384166000908152600a60205260408120805492935083929091906111209084906113ee565b9091555050505b5050808061113490611473565b91505061108c565b506040518181527f58679421d71365a7d4a25d4993b2fb8cf657c07d5524321d1ce74dafb63ddc6a9060200160405180910390a15061067c60018055565b61118261121a565b6001600160a01b0381166111e75760405162461bcd60e51b815260206004820152602660248201527f4f776e61626c653a206e6577206f776e657220697320746865207a65726f206160448201526564647265737360d01b6064820152608401610487565b610d98816112ce565b6004818154811061120057600080fd5b6000918252602090912001546001600160a01b0316905081565b6000546001600160a01b0316331461067c5760405162461bcd60e51b815260206004820181905260248201527f4f776e61626c653a2063616c6c6572206973206e6f7420746865206f776e65726044820152606401610487565b600260015414156112c75760405162461bcd60e51b815260206004820152601f60248201527f5265656e7472616e637947756172643a207265656e7472616e742063616c6c006044820152606401610487565b6002600155565b600080546001600160a01b038381166001600160a01b0319831681178455604051919092169283917f8be0079c531659141344cd1fd0a4f28419497f9722a3daafe3b4186f6b6457e09190a35050565b80356001600160a01b038116811461133557600080fd5b919050565b60006020828403121561134c57600080fd5b6113558261131e565b9392505050565b6000806040838503121561136f57600080fd5b6113788361131e565b946020939093013593505050565b60006020828403121561139857600080fd5b5035919050565b6000602082840312156113b157600080fd5b8151801515811461135557600080fd5b634e487b7160e01b600052601160045260246000fd5b6000828210156113e9576113e96113c1565b500390565b60008219821115611401576114016113c1565b500190565b634e487b7160e01b600052604160045260246000fd5b634e487b7160e01b600052603260045260246000fd5b600081600019048311821515161561144c5761144c6113c1565b500290565b60008261146e57634e487b7160e01b600052601260045260246000fd5b500490565b6000600019821415611487576114876113c1565b5060010190565b6000602082840312156114a057600080fd5b505191905056fea2646970667358221220e29aacba64062d8b426b61140ce2247822120704a7dc03a6e5d0dd769089b24464736f6c634300080a0033",
  "linkReferences": {},
  "deployedLinkReferences": {}
}