{
  "_format": "hh-sol-artifact-1",
  "contractName": "TreasuryDistributor",
  "sourceName": "contracts/TreasuryDistributor.sol",
  "abi": [
    {
      "inputs": [
        {
          "internalType": "address",
          "name": "_routerAddress",
          "type": "address"
        },
        {
          "internalType": "address",
          "name": "_sleepTokenAddress",
          "type": "address"
        },
        {
          "internalType": "address",
          "name": "_sleepMinterAddress",
          "type": "address"
        }
      ],
      "stateMutability": "nonpayable",
      "type": "constructor"
    },
    {
      "anonymous": false,
      "inputs": [
        {
          "indexed": false,
          "internalType": "uint256",
          "name": "okbAmount",
          "type": "uint256"
        },
        {
          "indexed": true,
          "internalType": "address",
          "name": "recipient",
          "type": "address"
        }
      ],
      "name": "FeesDistributed",
      "type": "event"
    },
    {
      "anonymous": false,
      "inputs": [
        {
          "indexed": false,
          "internalType": "uint256",
          "name": "xenlAmount",
          "type": "uint256"
        },
        {
          "indexed": false,
          "internalType": "uint256",
          "name": "okbAmount",
          "type": "uint256"
        }
      ],
      "name": "LiquidityAdded",
      "type": "event"
    },
    {
      "anonymous": false,
      "inputs": [
        {
          "indexed": true,
          "internalType": "address",
          "name": "previousOwner",
          "type": "address"
        },
        {
          "indexed": true,
          "internalType": "address",
          "name": "newOwner",
          "type": "address"
        }
      ],
      "name": "OwnershipTransferred",
      "type": "event"
    },
    {
      "inputs": [],
      "name": "DEAD_ADDRESS",
      "outputs": [
        {
          "internalType": "address",
          "name": "",
          "type": "address"
        }
      ],
      "stateMutability": "view",
      "type": "function"
    },
    {
      "inputs": [],
      "name": "burnShare",
      "outputs": [
        {
          "internalType": "uint8",
          "name": "",
          "type": "uint8"
        }
      ],
      "stateMutability": "view",
      "type": "function"
    },
    {
      "inputs": [],
      "name": "dexPair",
      "outputs": [
        {
          "internalType": "address",
          "name": "",
          "type": "address"
        }
      ],
      "stateMutability": "view",
      "type": "function"
    },
    {
      "inputs": [
        {
          "internalType": "uint256",
          "name": "amount",
          "type": "uint256"
        }
      ],
      "name": "distribute",
      "outputs": [],
      "stateMutability": "nonpayable",
      "type": "function"
    },
    {
      "inputs": [],
      "name": "distributeFees",
      "outputs": [],
      "stateMutability": "payable",
      "type": "function"
    },
    {
      "inputs": [],
      "name": "owner",
      "outputs": [
        {
          "internalType": "address",
          "name": "",
          "type": "address"
        }
      ],
      "stateMutability": "view",
      "type": "function"
    },
    {
      "inputs": [],
      "name": "polShare",
      "outputs": [
        {
          "internalType": "uint8",
          "name": "",
          "type": "uint8"
        }
      ],
      "stateMutability": "view",
      "type": "function"
    },
    {
      "inputs": [],
      "name": "renounceOwnership",
      "outputs": [],
      "stateMutability": "nonpayable",
      "type": "function"
    },
    {
      "inputs": [
        {
          "internalType": "address",
          "name": "_minterAddress",
          "type": "address"
        }
      ],
      "name": "setMinterAddress",
      "outputs": [],
      "stateMutability": "nonpayable",
      "type": "function"
    },
    {
      "inputs": [
        {
          "internalType": "uint8",
          "name": "_pol",
          "type": "uint8"
        },
        {
          "internalType": "uint8",
          "name": "_staking",
          "type": "uint8"
        },
        {
          "internalType": "uint8",
          "name": "_burn",
          "type": "uint8"
        }
      ],
      "name": "setShares",
      "outputs": [],
      "stateMutability": "nonpayable",
      "type": "function"
    },
    {
      "inputs": [
        {
          "internalType": "uint256",
          "name": "_threshold",
          "type": "uint256"
        }
      ],
      "name": "setSwapThreshold",
      "outputs": [],
      "stateMutability": "nonpayable",
      "type": "function"
    },
    {
      "inputs": [
        {
          "internalType": "address",
          "name": "_stakingRewards",
          "type": "address"
        }
      ],
      "name": "setWallets",
      "outputs": [],
      "stateMutability": "nonpayable",
      "type": "function"
    },
    {
      "inputs": [],
      "name": "sleepMinter",
      "outputs": [
        {
          "internalType": "contract ISleepMinter",
          "name": "",
          "type": "address"
        }
      ],
      "stateMutability": "view",
      "type": "function"
    },
    {
      "inputs": [],
      "name": "sleepToken",
      "outputs": [
        {
          "internalType": "contract ISleepCoin",
          "name": "",
          "type": "address"
        }
      ],
      "stateMutability": "view",
      "type": "function"
    },
    {
      "inputs": [],
      "name": "stakingRewardsWallet",
      "outputs": [
        {
          "internalType": "address",
          "name": "",
          "type": "address"
        }
      ],
      "stateMutability": "view",
      "type": "function"
    },
    {
      "inputs": [],
      "name": "stakingShare",
      "outputs": [
        {
          "internalType": "uint8",
          "name": "",
          "type": "uint8"
        }
      ],
      "stateMutability": "view",
      "type": "function"
    },
    {
      "inputs": [],
      "name": "swapThreshold",
      "outputs": [
        {
          "internalType": "uint256",
          "name": "",
          "type": "uint256"
        }
      ],
      "stateMutability": "view",
      "type": "function"
    },
    {
      "inputs": [
        {
          "internalType": "address",
          "name": "newOwner",
          "type": "address"
        }
      ],
      "name": "transferOwnership",
      "outputs": [],
      "stateMutability": "nonpayable",
      "type": "function"
    },
    {
      "inputs": [],
      "name": "uniswapV2Router",
      "outputs": [
        {
          "internalType": "contract IUniswapV2Router02",
          "name": "",
          "type": "address"
        }
      ],
      "stateMutability": "view",
      "type": "function"
    },
    {
      "stateMutability": "payable",
      "type": "receive"
    }
  ],
  "bytecode": "0x60a060405261dead60805234801561001657600080fd5b5060405161105d38038061105d83398101604081905261003591610114565b61003e336100a8565b600180546001600160a01b03199081166001600160a01b0395861617909155600280548216938516939093179092556003805490921692169190911790556005805462ffffff60a01b19166201181960a11b1790556b204fce5e3e25026110000000600655610157565b600080546001600160a01b038381166001600160a01b0319831681178455604051919092169283917f8be0079c531659141344cd1fd0a4f28419497f9722a3daafe3b4186f6b6457e09190a35050565b80516001600160a01b038116811461010f57600080fd5b919050565b60008060006060848603121561012957600080fd5b610132846100f8565b9250610140602085016100f8565b915061014e604085016100f8565b90509250925092565b608051610eeb61017260003960006101ea0152610eeb6000f3fe6080604052600436106101185760003560e01c80638da5cb5b116100a0578063bb57ad2011610064578063bb57ad2014610323578063c07413ab1461032b578063eb50e70e1461034b578063f242ab411461036b578063f2fde38b1461038b57600080fd5b80638da5cb5b1461028457806391c05b0b146102a25780639d0014b1146102c2578063a3106b95146102e2578063a50f13d81461030257600080fd5b80634e6fd6c4116100e75780634e6fd6c4146101d85780634f6365b51461020c5780635a7353ea1461022e578063715018a61461024f57806383a30da41461026457600080fd5b80630445b6671461012457806305bf0a541461014d57806307ed5003146101805780631694505e146101b857600080fd5b3661011f57005b600080fd5b34801561013057600080fd5b5061013a60065481565b6040519081526020015b60405180910390f35b34801561015957600080fd5b5060055461016e90600160b01b900460ff1681565b60405160ff9091168152602001610144565b34801561018c57600080fd5b506002546101a0906001600160a01b031681565b6040516001600160a01b039091168152602001610144565b3480156101c457600080fd5b506001546101a0906001600160a01b031681565b3480156101e457600080fd5b506101a07f000000000000000000000000000000000000000000000000000000000000000081565b34801561021857600080fd5b5061022c610227366004610c80565b6103ab565b005b34801561023a57600080fd5b5060055461016e90600160a01b900460ff1681565b34801561025b57600080fd5b5061022c610473565b34801561027057600080fd5b506005546101a0906001600160a01b031681565b34801561029057600080fd5b506000546001600160a01b03166101a0565b3480156102ae57600080fd5b5061022c6102bd366004610cc3565b610487565b3480156102ce57600080fd5b5061022c6102dd366004610cc3565b610595565b3480156102ee57600080fd5b5061022c6102fd366004610cf1565b6105a2565b34801561030e57600080fd5b5060055461016e90600160a81b900460ff1681565b61022c6105cc565b34801561033757600080fd5b506003546101a0906001600160a01b031681565b34801561035757600080fd5b5061022c610366366004610cf1565b6105d5565b34801561037757600080fd5b506004546101a0906001600160a01b031681565b34801561039757600080fd5b5061022c6103a6366004610cf1565b6105ff565b6103b3610678565b806103be8385610d2b565b6103c89190610d2b565b60ff1660641461042b5760405162461bcd60e51b815260206004820152602360248201527f4469737472696275746f723a20536861726573206d7573742073756d20746f2060448201526203130360ec1b60648201526084015b60405180910390fd5b6005805461ffff60a01b1916600160a01b60ff9586160260ff60a81b191617600160a81b938516939093029290921760ff60b01b1916600160b01b9190931602919091179055565b61047b610678565b61048560006106d2565b565b6002546001600160a01b031633146104f75760405162461bcd60e51b815260206004820152602d60248201527f4469737472696275746f723a2043616c6c6572206973206e6f7420746865207460448201526c1bdad95b8818dbdb9d1c9858dd609a1b6064820152608401610422565b6002546040516370a0823160e01b81523060048201526000916001600160a01b0316906370a0823190602401602060405180830381865afa158015610540573d6000803e3d6000fd5b505050506040513d601f19601f820116820180604052508101906105649190610d50565b600554909150600160b81b900460ff1615801561058357506006548110155b156105915761059181610722565b5050565b61059d610678565b600655565b6105aa610678565b600380546001600160a01b0319166001600160a01b0392909216919091179055565b6104853461094c565b6105dd610678565b600580546001600160a01b0319166001600160a01b0392909216919091179055565b610607610678565b6001600160a01b03811661066c5760405162461bcd60e51b815260206004820152602660248201527f4f776e61626c653a206e6577206f776e657220697320746865207a65726f206160448201526564647265737360d01b6064820152608401610422565b610675816106d2565b50565b6000546001600160a01b031633146104855760405162461bcd60e51b815260206004820181905260248201527f4f776e61626c653a2063616c6c6572206973206e6f7420746865206f776e65726044820152606401610422565b600080546001600160a01b038381166001600160a01b0319831681178455604051919092169283917f8be0079c531659141344cd1fd0a4f28419497f9722a3daafe3b4186f6b6457e09190a35050565b6005805460ff60b81b1916600160b81b17905560035460408051630e12204160e11b81529051620186a0926001600160a01b031691631c2440829160048083019260209291908290030181865afa158015610781573d6000803e3d6000fd5b505050506040513d601f19601f820116820180604052508101906107a59190610d50565b10610861576107b381610954565b47801561085b576005546040516000916001600160a01b03169083908381818185875af1925050503d8060008114610807576040519150601f19603f3d011682016040523d82523d6000602084013e61080c565b606091505b505090508015610859576005546040518381526001600160a01b03909116907f341e32c59ee54467795dec7285f8f4b9130574db04a9c48a818ccf0031ba9c5f9060200160405180910390a25b505b5061093c565b60055460009060649061087e90600160a01b900460ff1684610d69565b6108889190610d88565b905060006108968284610daa565b905080156108a7576108a781610954565b600554479060009060ff600160a01b82048116916108d691600160b01b8204811691600160a81b900416610d2b565b6108e09190610d2b565b60055460ff918216916108fb91600160a01b90041684610d69565b6109059190610d88565b90506000841180156109175750600081115b15610926576109268482610b1b565b478015610936576109368161094c565b50505050505b506005805460ff60b81b19169055565b806106755750565b60025460015460405163095ea7b360e01b81526001600160a01b0391821660048201526024810184905291169063095ea7b3906044016020604051808303816000875af11580156109a9573d6000803e3d6000fd5b505050506040513d601f19601f820116820180604052508101906109cd9190610dc1565b50604080516002808252606082018352600092602083019080368337505060025482519293506001600160a01b031691839150600090610a0f57610a0f610de3565b6001600160a01b03928316602091820292909201810191909152600154604080516315ab88c960e31b81529051919093169263ad5c46489260048083019391928290030181865afa158015610a68573d6000803e3d6000fd5b505050506040513d601f19601f82011682018060405250810190610a8c9190610df9565b81600181518110610a9f57610a9f610de3565b6001600160a01b03928316602091820292909201015260015460405163791ac94760e01b815291169063791ac94790610ae5908590600090869030904290600401610e16565b600060405180830381600087803b158015610aff57600080fd5b505af1158015610b13573d6000803e3d6000fd5b505050505050565b60025460015460405163095ea7b360e01b81526001600160a01b0391821660048201526024810185905291169063095ea7b3906044016020604051808303816000875af1158015610b70573d6000803e3d6000fd5b505050506040513d601f19601f82011682018060405250810190610b949190610dc1565b5060015460025460405163f305d71960e01b81526001600160a01b0391821660048201526024810185905260006044820181905260648201523060848201524260a482015291169063f305d71990839060c40160606040518083038185885af1158015610c05573d6000803e3d6000fd5b50505050506040513d601f19601f82011682018060405250810190610c2a9190610e87565b505060408051848152602081018490527f38f8a0c92f4c5b0b6877f878cb4c0c8d348a47b76d716c8e78f425043df9515b92500160405180910390a15050565b803560ff81168114610c7b57600080fd5b919050565b600080600060608486031215610c9557600080fd5b610c9e84610c6a565b9250610cac60208501610c6a565b9150610cba60408501610c6a565b90509250925092565b600060208284031215610cd557600080fd5b5035919050565b6001600160a01b038116811461067557600080fd5b600060208284031215610d0357600080fd5b8135610d0e81610cdc565b9392505050565b634e487b7160e01b600052601160045260246000fd5b600060ff821660ff84168060ff03821115610d4857610d48610d15565b019392505050565b600060208284031215610d6257600080fd5b5051919050565b6000816000190483118215151615610d8357610d83610d15565b500290565b600082610da557634e487b7160e01b600052601260045260246000fd5b500490565b600082821015610dbc57610dbc610d15565b500390565b600060208284031215610dd357600080fd5b81518015158114610d0e57600080fd5b634e487b7160e01b600052603260045260246000fd5b600060208284031215610e0b57600080fd5b8151610d0e81610cdc565b600060a082018783526020878185015260a0604085015281875180845260c086019150828901935060005b81811015610e665784516001600160a01b031683529383019391830191600101610e41565b50506001600160a01b03969096166060850152505050608001529392505050565b600080600060608486031215610e9c57600080fd5b835192506020840151915060408401519050925092509256fea264697066735822122026238101b7adc2322813b04966d637eed79c2afe02322141abdcb1c368d1841464736f6c634300080a0033",
  "linkReferences": {},
  "deployedLinkReferences": {}
}